{"abi":[{"type":"constructor","inputs":[{"name":"token_addr","type":"address","internalType":"address"},{"name":"art_proxy","type":"address","internalType":"address"}],"stateMutability":"nonpayable"},{"type":"function","name":"DELEGATION_TYPEHASH","inputs":[],"outputs":[{"name":"","type":"bytes32","internalType":"bytes32"}],"stateMutability":"view"},{"type":"function","name":"DOMAIN_TYPEHASH","inputs":[],"outputs":[{"name":"","type":"bytes32","internalType":"bytes32"}],"stateMutability":"view"},{"type":"function","name":"MAX_DELEGATES","inputs":[],"outputs":[{"name":"","type":"uint256","internalType":"uint256"}],"stateMutability":"view"},{"type":"function","name":"abstain","inputs":[{"name":"_tokenId","type":"uint256","internalType":"uint256"}],"outputs":[],"stateMutability":"nonpayable"},{"type":"function","name":"approve","inputs":[{"name":"_approved","type":"address","internalType":"address"},{"name":"_tokenId","type":"uint256","internalType":"uint256"}],"outputs":[],"stateMutability":"nonpayable"},{"type":"function","name":"artProxy","inputs":[],"outputs":[{"name":"","type":"address","internalType":"address"}],"stateMutability":"view"},{"type":"function","name":"attach","inputs":[{"name":"_tokenId","type":"uint256","internalType":"uint256"}],"outputs":[],"stateMutability":"nonpayable"},{"type":"function","name":"attachments","inputs":[{"name":"","type":"uint256","internalType":"uint256"}],"outputs":[{"name":"","type":"uint256","internalType":"uint256"}],"stateMutability":"view"},{"type":"function","name":"balanceOf","inputs":[{"name":"_owner","type":"address","internalType":"address"}],"outputs":[{"name":"","type":"uint256","internalType":"uint256"}],"stateMutability":"view"},{"type":"function","name":"balanceOfAtNFT","inputs":[{"name":"_tokenId","type":"uint256","internalType":"uint256"},{"name":"_block","type":"uint256","internalType":"uint256"}],"outputs":[{"name":"","type":"uint256","internalType":"uint256"}],"stateMutability":"view"},{"type":"function","name":"balanceOfNFT","inputs":[{"name":"_tokenId","type":"uint256","internalType":"uint256"}],"outputs":[{"name":"","type":"uint256","internalType":"uint256"}],"stateMutability":"view"},{"type":"function","name":"balanceOfNFTAt","inputs":[{"name":"_tokenId","type":"uint256","internalType":"uint256"},{"name":"_t","type":"uint256","internalType":"uint256"}],"outputs":[{"name":"","type":"uint256","internalType":"uint256"}],"stateMutability":"view"},{"type":"function","name":"beehive","inputs":[],"outputs":[{"name":"","type":"address","internalType":"address"}],"stateMutability":"view"},{"type":"function","name":"block_number","inputs":[],"outputs":[{"name":"","type":"uint256","internalType":"uint256"}],"stateMutability":"view"},{"type":"function","name":"checkpoint","inputs":[],"outputs":[],"stateMutability":"nonpayable"},{"type":"function","name":"checkpoints","inputs":[{"name":"","type":"address","internalType":"address"},{"name":"","type":"uint32","internalType":"uint32"}],"outputs":[{"name":"timestamp","type":"uint256","internalType":"uint256"}],"stateMutability":"view"},{"type":"function","name":"create_lock","inputs":[{"name":"_value","type":"uint256","internalType":"uint256"},{"name":"_lock_duration","type":"uint256","internalType":"uint256"}],"outputs":[{"name":"","type":"uint256","internalType":"uint256"}],"stateMutability":"nonpayable"},{"type":"function","name":"create_lock_for","inputs":[{"name":"_value","type":"uint256","internalType":"uint256"},{"name":"_lock_duration","type":"uint256","internalType":"uint256"},{"name":"_to","type":"address","internalType":"address"}],"outputs":[{"name":"","type":"uint256","internalType":"uint256"}],"stateMutability":"nonpayable"},{"type":"function","name":"decimals","inputs":[],"outputs":[{"name":"","type":"uint8","internalType":"uint8"}],"stateMutability":"view"},{"type":"function","name":"delegate","inputs":[{"name":"delegatee","type":"address","internalType":"address"}],"outputs":[],"stateMutability":"nonpayable"},{"type":"function","name":"delegateBySig","inputs":[{"name":"delegatee","type":"address","internalType":"address"},{"name":"nonce","type":"uint256","internalType":"uint256"},{"name":"expiry","type":"uint256","internalType":"uint256"},{"name":"v","type":"uint8","internalType":"uint8"},{"name":"r","type":"bytes32","internalType":"bytes32"},{"name":"s","type":"bytes32","internalType":"bytes32"}],"outputs":[],"stateMutability":"nonpayable"},{"type":"function","name":"delegates","inputs":[{"name":"delegator","type":"address","internalType":"address"}],"outputs":[{"name":"","type":"address","internalType":"address"}],"stateMutability":"view"},{"type":"function","name":"deposit_for","inputs":[{"name":"_tokenId","type":"uint256","internalType":"uint256"},{"name":"_value","type":"uint256","internalType":"uint256"}],"outputs":[],"stateMutability":"nonpayable"},{"type":"function","name":"detach","inputs":[{"name":"_tokenId","type":"uint256","internalType":"uint256"}],"outputs":[],"stateMutability":"nonpayable"},{"type":"function","name":"epoch","inputs":[],"outputs":[{"name":"","type":"uint256","internalType":"uint256"}],"stateMutability":"view"},{"type":"function","name":"getApproved","inputs":[{"name":"_tokenId","type":"uint256","internalType":"uint256"}],"outputs":[{"name":"","type":"address","internalType":"address"}],"stateMutability":"view"},{"type":"function","name":"getPastTotalSupply","inputs":[{"name":"timestamp","type":"uint256","internalType":"uint256"}],"outputs":[{"name":"","type":"uint256","internalType":"uint256"}],"stateMutability":"view"},{"type":"function","name":"getPastVotes","inputs":[{"name":"account","type":"address","internalType":"address"},{"name":"timestamp","type":"uint256","internalType":"uint256"}],"outputs":[{"name":"","type":"uint256","internalType":"uint256"}],"stateMutability":"view"},{"type":"function","name":"getPastVotesIndex","inputs":[{"name":"account","type":"address","internalType":"address"},{"name":"timestamp","type":"uint256","internalType":"uint256"}],"outputs":[{"name":"","type":"uint32","internalType":"uint32"}],"stateMutability":"view"},{"type":"function","name":"getVotes","inputs":[{"name":"account","type":"address","internalType":"address"}],"outputs":[{"name":"","type":"uint256","internalType":"uint256"}],"stateMutability":"view"},{"type":"function","name":"get_last_user_slope","inputs":[{"name":"_tokenId","type":"uint256","internalType":"uint256"}],"outputs":[{"name":"","type":"int128","internalType":"int128"}],"stateMutability":"view"},{"type":"function","name":"increase_amount","inputs":[{"name":"_tokenId","type":"uint256","internalType":"uint256"},{"name":"_value","type":"uint256","internalType":"uint256"}],"outputs":[],"stateMutability":"nonpayable"},{"type":"function","name":"increase_unlock_time","inputs":[{"name":"_tokenId","type":"uint256","internalType":"uint256"},{"name":"_lock_duration","type":"uint256","internalType":"uint256"}],"outputs":[],"stateMutability":"nonpayable"},{"type":"function","name":"isApprovedForAll","inputs":[{"name":"_owner","type":"address","internalType":"address"},{"name":"_operator","type":"address","internalType":"address"}],"outputs":[{"name":"","type":"bool","internalType":"bool"}],"stateMutability":"view"},{"type":"function","name":"isApprovedOrOwner","inputs":[{"name":"_spender","type":"address","internalType":"address"},{"name":"_tokenId","type":"uint256","internalType":"uint256"}],"outputs":[{"name":"","type":"bool","internalType":"bool"}],"stateMutability":"view"},{"type":"function","name":"locked","inputs":[{"name":"","type":"uint256","internalType":"uint256"}],"outputs":[{"name":"amount","type":"int128","internalType":"int128"},{"name":"end","type":"uint256","internalType":"uint256"}],"stateMutability":"view"},{"type":"function","name":"locked__end","inputs":[{"name":"_tokenId","type":"uint256","internalType":"uint256"}],"outputs":[{"name":"","type":"uint256","internalType":"uint256"}],"stateMutability":"view"},{"type":"function","name":"merge","inputs":[{"name":"_from","type":"uint256","internalType":"uint256"},{"name":"_to","type":"uint256","internalType":"uint256"}],"outputs":[],"stateMutability":"nonpayable"},{"type":"function","name":"name","inputs":[],"outputs":[{"name":"","type":"string","internalType":"string"}],"stateMutability":"view"},{"type":"function","name":"nonces","inputs":[{"name":"","type":"address","internalType":"address"}],"outputs":[{"name":"","type":"uint256","internalType":"uint256"}],"stateMutability":"view"},{"type":"function","name":"numCheckpoints","inputs":[{"name":"","type":"address","internalType":"address"}],"outputs":[{"name":"","type":"uint32","internalType":"uint32"}],"stateMutability":"view"},{"type":"function","name":"ownerOf","inputs":[{"name":"_tokenId","type":"uint256","internalType":"uint256"}],"outputs":[{"name":"","type":"address","internalType":"address"}],"stateMutability":"view"},{"type":"function","name":"ownership_change","inputs":[{"name":"","type":"uint256","internalType":"uint256"}],"outputs":[{"name":"","type":"uint256","internalType":"uint256"}],"stateMutability":"view"},{"type":"function","name":"point_history","inputs":[{"name":"","type":"uint256","internalType":"uint256"}],"outputs":[{"name":"bias","type":"int128","internalType":"int128"},{"name":"slope","type":"int128","internalType":"int128"},{"name":"ts","type":"uint256","internalType":"uint256"},{"name":"blk","type":"uint256","internalType":"uint256"}],"stateMutability":"view"},{"type":"function","name":"safeTransferFrom","inputs":[{"name":"_from","type":"address","internalType":"address"},{"name":"_to","type":"address","internalType":"address"},{"name":"_tokenId","type":"uint256","internalType":"uint256"}],"outputs":[],"stateMutability":"nonpayable"},{"type":"function","name":"safeTransferFrom","inputs":[{"name":"_from","type":"address","internalType":"address"},{"name":"_to","type":"address","internalType":"address"},{"name":"_tokenId","type":"uint256","internalType":"uint256"},{"name":"_data","type":"bytes","internalType":"bytes"}],"outputs":[],"stateMutability":"nonpayable"},{"type":"function","name":"setApprovalForAll","inputs":[{"name":"_operator","type":"address","internalType":"address"},{"name":"_approved","type":"bool","internalType":"bool"}],"outputs":[],"stateMutability":"nonpayable"},{"type":"function","name":"setArtProxy","inputs":[{"name":"_proxy","type":"address","internalType":"address"}],"outputs":[],"stateMutability":"nonpayable"},{"type":"function","name":"setTeam","inputs":[{"name":"_team","type":"address","internalType":"address"}],"outputs":[],"stateMutability":"nonpayable"},{"type":"function","name":"setVoter","inputs":[{"name":"_voter","type":"address","internalType":"address"}],"outputs":[],"stateMutability":"nonpayable"},{"type":"function","name":"slope_changes","inputs":[{"name":"","type":"uint256","internalType":"uint256"}],"outputs":[{"name":"","type":"int128","internalType":"int128"}],"stateMutability":"view"},{"type":"function","name":"supply","inputs":[],"outputs":[{"name":"","type":"uint256","internalType":"uint256"}],"stateMutability":"view"},{"type":"function","name":"supportsInterface","inputs":[{"name":"_interfaceID","type":"bytes4","internalType":"bytes4"}],"outputs":[{"name":"","type":"bool","internalType":"bool"}],"stateMutability":"view"},{"type":"function","name":"symbol","inputs":[],"outputs":[{"name":"","type":"string","internalType":"string"}],"stateMutability":"view"},{"type":"function","name":"team","inputs":[],"outputs":[{"name":"","type":"address","internalType":"address"}],"stateMutability":"view"},{"type":"function","name":"token","inputs":[],"outputs":[{"name":"","type":"address","internalType":"address"}],"stateMutability":"view"},{"type":"function","name":"tokenOfOwnerByIndex","inputs":[{"name":"_owner","type":"address","internalType":"address"},{"name":"_tokenIndex","type":"uint256","internalType":"uint256"}],"outputs":[{"name":"","type":"uint256","internalType":"uint256"}],"stateMutability":"view"},{"type":"function","name":"tokenURI","inputs":[{"name":"_tokenId","type":"uint256","internalType":"uint256"}],"outputs":[{"name":"","type":"string","internalType":"string"}],"stateMutability":"view"},{"type":"function","name":"totalSupply","inputs":[],"outputs":[{"name":"","type":"uint256","internalType":"uint256"}],"stateMutability":"view"},{"type":"function","name":"totalSupplyAt","inputs":[{"name":"_block","type":"uint256","internalType":"uint256"}],"outputs":[{"name":"","type":"uint256","internalType":"uint256"}],"stateMutability":"view"},{"type":"function","name":"totalSupplyAtT","inputs":[{"name":"t","type":"uint256","internalType":"uint256"}],"outputs":[{"name":"","type":"uint256","internalType":"uint256"}],"stateMutability":"view"},{"type":"function","name":"transferFrom","inputs":[{"name":"_from","type":"address","internalType":"address"},{"name":"_to","type":"address","internalType":"address"},{"name":"_tokenId","type":"uint256","internalType":"uint256"}],"outputs":[],"stateMutability":"nonpayable"},{"type":"function","name":"user_point_epoch","inputs":[{"name":"","type":"uint256","internalType":"uint256"}],"outputs":[{"name":"","type":"uint256","internalType":"uint256"}],"stateMutability":"view"},{"type":"function","name":"user_point_history","inputs":[{"name":"","type":"uint256","internalType":"uint256"},{"name":"","type":"uint256","internalType":"uint256"}],"outputs":[{"name":"bias","type":"int128","internalType":"int128"},{"name":"slope","type":"int128","internalType":"int128"},{"name":"ts","type":"uint256","internalType":"uint256"},{"name":"blk","type":"uint256","internalType":"uint256"}],"stateMutability":"view"},{"type":"function","name":"user_point_history__ts","inputs":[{"name":"_tokenId","type":"uint256","internalType":"uint256"},{"name":"_idx","type":"uint256","internalType":"uint256"}],"outputs":[{"name":"","type":"uint256","internalType":"uint256"}],"stateMutability":"view"},{"type":"function","name":"version","inputs":[],"outputs":[{"name":"","type":"string","internalType":"string"}],"stateMutability":"view"},{"type":"function","name":"voted","inputs":[{"name":"","type":"uint256","internalType":"uint256"}],"outputs":[{"name":"","type":"bool","internalType":"bool"}],"stateMutability":"view"},{"type":"function","name":"voter","inputs":[],"outputs":[{"name":"","type":"address","internalType":"address"}],"stateMutability":"view"},{"type":"function","name":"voting","inputs":[{"name":"_tokenId","type":"uint256","internalType":"uint256"}],"outputs":[],"stateMutability":"nonpayable"},{"type":"function","name":"withdraw","inputs":[{"name":"_tokenId","type":"uint256","internalType":"uint256"}],"outputs":[],"stateMutability":"nonpayable"},{"type":"event","name":"Approval","inputs":[{"name":"owner","type":"address","indexed":true,"internalType":"address"},{"name":"approved","type":"address","indexed":true,"internalType":"address"},{"name":"tokenId","type":"uint256","indexed":true,"internalType":"uint256"}],"anonymous":false},{"type":"event","name":"ApprovalForAll","inputs":[{"name":"owner","type":"address","indexed":true,"internalType":"address"},{"name":"operator","type":"address","indexed":true,"internalType":"address"},{"name":"approved","type":"bool","indexed":false,"internalType":"bool"}],"anonymous":false},{"type":"event","name":"DelegateChanged","inputs":[{"name":"delegator","type":"address","indexed":true,"internalType":"address"},{"name":"fromDelegate","type":"address","indexed":true,"internalType":"address"},{"name":"toDelegate","type":"address","indexed":true,"internalType":"address"}],"anonymous":false},{"type":"event","name":"Deposit","inputs":[{"name":"provider","type":"address","indexed":true,"internalType":"address"},{"name":"tokenId","type":"uint256","indexed":false,"internalType":"uint256"},{"name":"value","type":"uint256","indexed":false,"internalType":"uint256"},{"name":"locktime","type":"uint256","indexed":true,"internalType":"uint256"},{"name":"deposit_type","type":"uint8","indexed":false,"internalType":"enum BeehiveEscrow.DepositType"},{"name":"ts","type":"uint256","indexed":false,"internalType":"uint256"}],"anonymous":false},{"type":"event","name":"Supply","inputs":[{"name":"prevSupply","type":"uint256","indexed":false,"internalType":"uint256"},{"name":"supply","type":"uint256","indexed":false,"internalType":"uint256"}],"anonymous":false},{"type":"event","name":"Transfer","inputs":[{"name":"from","type":"address","indexed":true,"internalType":"address"},{"name":"to","type":"address","indexed":true,"internalType":"address"},{"name":"tokenId","type":"uint256","indexed":true,"internalType":"uint256"}],"anonymous":false},{"type":"event","name":"Withdraw","inputs":[{"name":"provider","type":"address","indexed":true,"internalType":"address"},{"name":"tokenId","type":"uint256","indexed":false,"internalType":"uint256"},{"name":"value","type":"uint256","indexed":false,"internalType":"uint256"},{"name":"ts","type":"uint256","indexed":false,"internalType":"uint256"}],"anonymous":false}],"bytecode":{"object":"0x60a06040526006805460ff60a01b1916600160a01b1790553480156200002457600080fd5b5060405162004cbe38038062004cbe8339810160408190526200004791620001be565b6001600160a01b0382811660805260008054336001600160a01b031991821681178355600180548316909117815560028054909216938516939093179055437f3617319a054d772f909f7c479a2cebe5066e836a939412e32403c99029b92f0155427f3617319a054d772f909f7c479a2cebe5066e836a939412e32403c99029b92f005560046020527f9fe05126d2d9ecf60592e254dead906a4b2e492f36cca727682c38e9008c6ac1805460ff1990811684179091557f4267c0a6fd96b7a87f183ee8744f24d011423cd0e0142b3f563f183d8d9a456b8054821684179055635b5e139f60e01b82527e24030bcf4927897dffe721c2d8dda4bfd8910861687c42b03a463b43b0414780549091169092179091556005546040519091309160008051602062004c9e833981519152908290a4600554604051600090309060008051602062004c9e833981519152908390a45050620001f6565b80516001600160a01b0381168114620001b957600080fd5b919050565b60008060408385031215620001d257600080fd5b620001dd83620001a1565b9150620001ed60208401620001a1565b90509250929050565b608051614a776200022760003960008181610b690152818161104d0152818161115101526135930152614a776000f3fe608060405234801561001057600080fd5b50600436106104125760003560e01c80637116c60c11610220578063c1f0fb9f11610130578063e7a324dc116100b8578063f1127ed811610087578063f1127ed814610b03578063f8a0576314610b2e578063fbd3a29d14610b51578063fc0c546a14610b64578063fd4a77f114610b8b57600080fd5b8063e7a324dc14610a7a578063e7e242d414610aa1578063e985e9c514610ab4578063ee99fe2814610af057600080fd5b8063d1c2babb116100ff578063d1c2babb146109e3578063d1febfb9146109f6578063d4e54c3b14610a34578063e0514aba14610a47578063e441135c14610a5a57600080fd5b8063c1f0fb9f146109a2578063c2c4c5c1146109b5578063c3cda520146109bd578063c87b56dd146109d057600080fd5b806395d89b41116101b3578063a183af5211610182578063a183af521461090e578063a22cb46514610921578063a4d855df14610934578063b45a3c0e14610947578063b88d4fde1461098f57600080fd5b806395d89b41146108b2578063981b24d0146108d5578063986b7d8a146108e85780639ab24eb0146108fb57600080fd5b80638c2c9baf116101ef5780638c2c9baf146108605780638e539e8c146108735780638fbb38ff14610886578063900cf0cf146108a957600080fd5b80637116c60c146107f7578063711974841461080a5780637ecebe001461082d57806385f2aef21461084d57600080fd5b8063313ce567116103265780635594a045116102ae5780636352211e1161027d5780636352211e1461076257806365fc38731461078b5780636f5488371461079e5780636fcfff45146107be57806370a08231146107e457600080fd5b80635594a04514610720578063587cde1e146107335780635c19a95c146107465780635f5b0c321461075957600080fd5b8063430c2081116102f5578063430c20811461069d578063461f711c146106b057806346c96aac146106d65780634bc2a657146106e957806354fd4d50146106fc57600080fd5b8063313ce5671461064a5780633395df25146106645780633a46b1a81461067757806342842e0e1461068a57600080fd5b80631376f3da116103a957806323b872dd1161037857806323b872dd146105d557806325a58b56146105e85780632e1a7d4d146105ee5780632e720f7d146106015780632f745c591461061457600080fd5b80631376f3da1461055857806318160ddd146105935780631c984bc31461059b57806320606b70146105ae57600080fd5b8063081812fc116103e5578063081812fc146104cf578063095cf5c614610510578063095ea7b3146105255780630d6a20331461053857600080fd5b806301ffc9a714610417578063047fc9aa1461045957806306fdde03146104705780630758c7d8146104a7575b600080fd5b6104446104253660046141b9565b6001600160e01b03191660009081526004602052604090205460ff1690565b60405190151581526020015b60405180910390f35b61046260135481565b604051908152602001610450565b61049a6040518060400160405280600b81526020016a109151521255914813919560aa1b81525081565b604051610450919061422e565b6104ba6104b536600461425d565b610b9e565b60405163ffffffff9091168152602001610450565b6104f86104dd366004614287565b6000908152600960205260409020546001600160a01b031690565b6040516001600160a01b039091168152602001610450565b61052361051e3660046142a0565b610d11565b005b61052361053336600461425d565b610d4a565b610462610546366004614287565b60146020526000908152604090205481565b61056b6105663660046142bb565b610e32565b60408051600f95860b81529390940b6020840152928201526060810191909152608001610450565b610462610e79565b6104626105a93660046142bb565b610e89565b6104627f8cad95687ba82c2ce50e74f7b754645e5117c3a5bec8151c0726d5857980a86681565b6105236105e33660046142dd565b610ebb565b43610462565b6105236105fc366004614287565b610ecc565b61052361060f3660046142a0565b6112b7565b61046261062236600461425d565b6001600160a01b03919091166000908152600c60209081526040808320938352929052205490565b610652601281565b60405160ff9091168152602001610450565b6006546104f8906001600160a01b031681565b61046261068536600461425d565b6112f0565b6105236106983660046142dd565b61138f565b6104446106ab36600461425d565b6113aa565b6106c36106be366004614287565b6113bd565b604051600f9190910b8152602001610450565b6000546104f8906001600160a01b031681565b6105236106f73660046142a0565b611400565b61049a604051806040016040528060058152602001640312e302e360dc1b81525081565b6002546104f8906001600160a01b031681565b6104f86107413660046142a0565b611439565b6105236107543660046142a0565b611469565b61046261040081565b6104f8610770366004614287565b6000908152600760205260409020546001600160a01b031690565b6104626107993660046142bb565b611487565b6104626107ac366004614287565b600b6020526000908152604090205481565b6104ba6107cc3660046142a0565b60186020526000908152604090205463ffffffff1681565b6104626107f23660046142a0565b6114dc565b610462610805366004614287565b6114fa565b6106c3610818366004614287565b601260205260009081526040902054600f0b81565b61046261083b3660046142a0565b60196020526000908152604090205481565b6001546104f8906001600160a01b031681565b61046261086e3660046142bb565b61155a565b610462610881366004614287565b611566565b610444610894366004614287565b60156020526000908152604090205460ff1681565b61046260115481565b61049a604051806040016040528060048152602001631893919560e21b81525081565b6104626108e3366004614287565b611571565b6105236108f6366004614287565b611713565b6104626109093660046142a0565b611757565b61052361091c3660046142bb565b61182a565b61052361092f366004614327565b61193c565b6105236109423660046142bb565b6119c0565b610975610955366004614287565b60106020526000908152604090208054600190910154600f9190910b9082565b60408051600f9390930b8352602083019190915201610450565b61052361099d3660046143cd565b611bb8565b6105236109b0366004614287565b611d57565b610523611d86565b6105236109cb366004614478565b611dc6565b61049a6109de366004614287565b61210f565b6105236109f13660046142bb565b61223b565b61056b610a04366004614287565b600360205260009081526040902080546001820154600290920154600f82810b93600160801b909304900b919084565b610462610a423660046144d8565b6123a0565b610462610a553660046142bb565b6123f6565b610462610a68366004614287565b600e6020526000908152604090205481565b6104627fe48329057bfd03d55e49b547132e39cffd9c1820ad7b9d4c5307691425d15adf81565b610462610aaf366004614287565b612402565b610444610ac236600461450d565b6001600160a01b039182166000908152600a6020908152604080832093909416825291909152205460ff1690565b610523610afe3660046142bb565b61242a565b610462610b11366004614540565b601760209081526000928352604080842090915290825290205481565b610462610b3c366004614287565b60009081526010602052604090206001015490565b610523610b5f366004614287565b61250b565b6104f87f000000000000000000000000000000000000000000000000000000000000000081565b610523610b99366004614287565b61253c565b6001600160a01b03821660009081526018602052604081205463ffffffff16808203610bce576000915050610d0b565b6001600160a01b03841660009081526017602052604081208491610bf360018561458b565b63ffffffff16815260208101919091526040016000205411610c2257610c1a60018261458b565b915050610d0b565b6001600160a01b0384166000908152601760209081526040808320838052909152902054831015610c57576000915050610d0b565b600080610c6560018461458b565b90505b8163ffffffff168163ffffffff161115610d065760006002610c8a848461458b565b610c9491906145c6565b610c9e908361458b565b6001600160a01b038816600090815260176020908152604080832063ffffffff851684529091529020805491925090879003610ce057509350610d0b92505050565b8054871115610cf157819350610cff565b610cfc60018361458b565b92505b5050610c68565b509150505b92915050565b6001546001600160a01b03163314610d2857600080fd5b600180546001600160a01b0319166001600160a01b0392909216919091179055565b6000818152600760205260409020546001600160a01b031680610d6c57600080fd5b806001600160a01b0316836001600160a01b031603610d8a57600080fd5b6000828152600760209081526040808320546001600160a01b038581168552600a845282852033808752945291909320549216149060ff168180610dcb5750805b610dd457600080fd5b60008481526009602052604080822080546001600160a01b0319166001600160a01b0389811691821790925591518793918716917f8c5be1e5ebec7d5bd14f71427d1e84f3dd0314c0f7b2291e5b200ac8c7c3b92591a45050505050565b600f60205281600052604060002081633b9aca008110610e5157600080fd5b6003020180546001820154600290920154600f82810b9550600160801b90920490910b925084565b6000610e84426114fa565b905090565b6000828152600f6020526040812082633b9aca008110610eab57610eab6145e9565b6003020160010154905092915050565b610ec78383833361256e565b505050565b600654600160a01b900460ff16600114610ee557600080fd5b6006805460ff60a01b1916600160a11b179055610f02338261264f565b610f0e57610f0e6145ff565b600081815260146020526040902054158015610f39575060008181526015602052604090205460ff16155b610f5e5760405162461bcd60e51b8152600401610f5590614615565b60405180910390fd5b600081815260106020908152604080832081518083019092528054600f0b80835260019091015492820183905290929091819042108015610fb757610fa4600285614637565b9150610fb0828561464b565b9250610fbb565b8392505b604080518082018252600080825260208083018281528a83526010909152929020905181546001600160801b0319166001600160801b03909116178155905160019091015560135461100d858261464b565b601355604080518082019091526000808252602082015261103190889088906126b5565b60405163a9059cbb60e01b8152336004820152602481018590527f00000000000000000000000000000000000000000000000000000000000000006001600160a01b03169063a9059cbb906044016020604051808303816000875af115801561109e573d6000803e3d6000fd5b505050506040513d601f19601f820116820180604052508101906110c29190614662565b6111005760405162461bcd60e51b815260206004820152600f60248201526e1d1c985b9cd9995c8819985a5b1959608a1b6044820152606401610f55565b81801561110d5750600083115b801561112357506001546001600160a01b031615155b1561120c5760015460405163a9059cbb60e01b81526001600160a01b039182166004820152602481018590527f00000000000000000000000000000000000000000000000000000000000000009091169063a9059cbb906044016020604051808303816000875af115801561119c573d6000803e3d6000fd5b505050506040513d601f19601f820116820180604052508101906111c09190614662565b61120c5760405162461bcd60e51b815260206004820152601760248201527f70656e616c7479207472616e73666572206661696c65640000000000000000006044820152606401610f55565b61121587612cd1565b60408051888152602081018690524281830152905133917f02f25270a4d87bea75db541cdfe559334a275b4a233520ed6c0a2429667cca94919081900360600190a27f5e2aa66efd74cce82b21852e317e5490d9ecc9e6bb953ae24d90851258cc2f5c81611283878261464b565b6040805192835260208301919091520160405180910390a150506006805460ff60a01b1916600160a01b1790555050505050565b6001546001600160a01b031633146112ce57600080fd5b600280546001600160a01b0319166001600160a01b0392909216919091179055565b6000806112fd8484610b9e565b6001600160a01b038516600090815260176020908152604080832063ffffffff851684529091528120919250600190910190805b825481101561138557600083828154811061134e5761134e6145e9565b906000526020600020015490506113658188612da4565b61136f908461467f565b925050808061137d90614697565b915050611331565b5095945050505050565b610ec783838360405180602001604052806000815250611bb8565b60006113b6838361264f565b9392505050565b6000818152600e6020908152604080832054600f909252822081633b9aca0081106113ea576113ea6145e9565b6003020154600160801b9004600f0b9392505050565b6000546001600160a01b0316331461141757600080fd5b600080546001600160a01b0319166001600160a01b0392909216919091179055565b6001600160a01b03808216600090815260166020526040812054909116801561146257806113b6565b5090919050565b6001600160a01b03811661147a5750335b6114843382612e78565b50565b600654600090600160a01b900460ff166001146114a357600080fd5b6006805460ff60a01b1916600160a11b1790556114c1838333612eeb565b90506006805460ff60a01b1916600160a01b17905592915050565b6001600160a01b038116600090815260086020526040812054610d0b565b601154600081815260036020908152604080832081516080810183528154600f81810b8352600160801b909104900b938101939093526001810154918301919091526002015460608201529091906115528185613042565b949350505050565b60006113b68383613143565b6000610d0b826114fa565b600043821115611583576115836145ff565b6011546000611592848361341c565b600081815260036020908152604080832081516080810183528154600f81810b8352600160801b909104900b93810193909352600181015491830191909152600201546060820152919250838310156116a15760006003816115f586600161467f565b8152602080820192909252604090810160002081516080810183528154600f81810b8352600160801b909104900b938101939093526001810154918301919091526002015460608083018290528501519192501461169b5782606001518160600151611661919061464b565b83604001518260400151611675919061464b565b6060850151611684908a61464b565b61168e91906146b0565b6116989190614637565b91505b506116f0565b438260600151146116f05760608201516116bb904361464b565b60408301516116ca904261464b565b60608401516116d9908961464b565b6116e391906146b0565b6116ed9190614637565b90505b61170982828460400151611704919061467f565b613042565b9695505050505050565b6000546001600160a01b0316331461172a57600080fd5b6000818152601460205260409020546117459060019061464b565b60009182526014602052604090912055565b6001600160a01b03811660009081526018602052604081205463ffffffff168082036117865750600092915050565b6001600160a01b0383166000908152601760205260408120816117aa60018561458b565b63ffffffff1663ffffffff16815260200190815260200160002060010190506000805b82548110156118215760008382815481106117ea576117ea6145e9565b906000526020600020015490506118018142612da4565b61180b908461467f565b925050808061181990614697565b9150506117cd565b50949350505050565b600654600160a01b900460ff1660011461184357600080fd5b6006805460ff60a01b1916600160a11b179055611860338361264f565b61186c5761186c6145ff565b60008281526010602090815260409182902082518084019093528054600f0b83526001015490820152816118a2576118a26145ff565b60008160000151600f0b136118f25760405162461bcd60e51b8152602060048201526016602482015275139bc8195e1a5cdd1a5b99c81b1bd8dac8199bdd5b9960521b6044820152606401610f55565b428160200151116119155760405162461bcd60e51b8152600401610f55906146cf565b611924838360008460026134a2565b50506006805460ff60a01b1916600160a01b17905550565b336001600160a01b03831603611954576119546145ff565b336000818152600a602090815260408083206001600160a01b03871680855290835292819020805460ff191686151590811790915590519081529192917f17307eab39ab6107e8899845ad3d59bd9653f200f220920489ca2b5937696c31910160405180910390a35050565b600654600160a01b900460ff166001146119d957600080fd5b6006805460ff60a01b1916600160a11b1790556119f6338361264f565b611a0257611a026145ff565b600082815260106020908152604080832081518083019092528054600f0b825260010154918101919091529062093a8080611a3d854261467f565b611a479190614637565b611a5191906146b0565b905042826020015111611a955760405162461bcd60e51b815260206004820152600c60248201526b131bd8dac8195e1c1a5c995960a21b6044820152606401610f55565b60008260000151600f0b13611ae05760405162461bcd60e51b8152602060048201526011602482015270139bdd1a1a5b99c81a5cc81b1bd8dad959607a1b6044820152606401610f55565b81602001518111611b335760405162461bcd60e51b815260206004820152601f60248201527f43616e206f6e6c7920696e637265617365206c6f636b206475726174696f6e006044820152606401610f55565b611b4163168e6a004261467f565b811115611b905760405162461bcd60e51b815260206004820152601e60248201527f566f74696e67206c6f636b2063616e2062652034207965617273206d617800006044820152606401610f55565b611b9f846000838560036134a2565b50506006805460ff60a01b1916600160a01b1790555050565b611bc48484843361256e565b823b15611d5157604051630a85bd0160e11b81526001600160a01b0384169063150b7a0290611bfd903390889087908790600401614713565b6020604051808303816000875af1925050508015611c38575060408051601f3d908101601f19168201909252611c3591810190614746565b60015b611ce0573d808015611c66576040519150601f19603f3d011682016040523d82523d6000602084013e611c6b565b606091505b508051600003611cd85760405162461bcd60e51b815260206004820152603260248201527f4552433732313a207472616e7366657220746f206e6f6e20455243373231526560448201527131b2b4bb32b91034b6b83632b6b2b73a32b960711b6064820152608401610f55565b805181602001fd5b6001600160e01b03198116630a85bd0160e11b14611d4f5760405162461bcd60e51b815260206004820152602660248201527f4552433732313a2045524337323152656365697665722072656a656374656420604482015265746f6b656e7360d01b6064820152608401610f55565b505b50505050565b6000546001600160a01b03163314611d6e57600080fd5b6000908152601560205260409020805460ff19169055565b611dc4600060405180604001604052806000600f0b8152602001600081525060405180604001604052806000600f0b815260200160008152506126b5565b565b604080518082018252600b81526a109151521255914813919560aa1b6020918201528151808301835260058152640312e302e360dc1b9082015281517f8cad95687ba82c2ce50e74f7b754645e5117c3a5bec8151c0726d5857980a866818301527f47394e47466c445cc474bf81869fa8f731cb4ca3bd9dc93bb1193ea40a83c49b818401527f06c015bd22b4c69690933c1058878ebdfef31f9aaae40bbe86d8a09fe1b2972c60608201524660808201523060a0808301919091528351808303909101815260c0820184528051908301207fe48329057bfd03d55e49b547132e39cffd9c1820ad7b9d4c5307691425d15adf60e08301526001600160a01b038a1661010083015261012082018990526101408083018990528451808403909101815261016083019094528351939092019290922061190160f01b61018084015261018283018290526101a2830181905290916000906101c20160408051601f198184030181528282528051602091820120600080855291840180845281905260ff8a169284019290925260608301889052608083018790529092509060019060a0016020604051602081039080840390855afa158015611f8b573d6000803e3d6000fd5b5050604051601f1901519150506001600160a01b0381166120065760405162461bcd60e51b815260206004820152602f60248201527f42656568697665457363726f773a3a64656c656761746542795369673a20696e60448201526e76616c6964207369676e617475726560881b6064820152608401610f55565b6001600160a01b038116600090815260196020526040812080549161202a83614697565b9190505589146120905760405162461bcd60e51b815260206004820152602b60248201527f42656568697665457363726f773a3a64656c656761746542795369673a20696e60448201526a76616c6964206e6f6e636560a81b6064820152608401610f55565b874211156120f85760405162461bcd60e51b815260206004820152602f60248201527f42656568697665457363726f773a3a64656c656761746542795369673a20736960448201526e19db985d1d5c9948195e1c1a5c9959608a1b6064820152608401610f55565b612102818b612e78565b505050505b505050505050565b6000818152600760205260409020546060906001600160a01b03166121765760405162461bcd60e51b815260206004820152601b60248201527f517565727920666f72206e6f6e6578697374656e7420746f6b656e00000000006044820152606401610f55565b60008281526010602090815260409182902082518084019093528054600f0b835260010154908201526002546001600160a01b031663dd9ec149846121bb8142612da4565b6020850151855160405160e086901b6001600160e01b0319168152600481019490945260248401929092526044830152600f0b6064820152608401600060405180830381865afa158015612213573d6000803e3d6000fd5b505050506040513d6000823e601f3d908101601f191682016040526113b69190810190614763565b600082815260146020526040902054158015612266575060008281526015602052604090205460ff16155b6122825760405162461bcd60e51b8152600401610f5590614615565b80820361228e57600080fd5b612298338361264f565b6122a157600080fd5b6122ab338261264f565b6122b457600080fd5b6000828152601060208181526040808420815180830183528154600f90810b825260019283015482860190815288885295855283872084518086019095528054820b855290920154938301849052805194519095929490910b92111561231e578260200151612324565b83602001515b604080518082018252600080825260208083018281528b835260108252848320935184546001600160801b0319166001600160801b039091161784555160019093019290925582518084019093528083529082015290915061238990879086906126b5565b61239286612cd1565b6121078583838660046134a2565b600654600090600160a01b900460ff166001146123bc57600080fd5b6006805460ff60a01b1916600160a11b1790556123da848484612eeb565b90506006805460ff60a01b1916600160a01b1790559392505050565b60006113b68383612da4565b6000818152600b602052604081205443900361242057506000919050565b610d0b8242612da4565b600654600160a01b900460ff1660011461244357600080fd5b6006805460ff60a01b1916600160a11b17905560008281526010602090815260409182902082518084019093528054600f0b835260010154908201528161248957600080fd5b60008160000151600f0b136124d95760405162461bcd60e51b8152602060048201526016602482015275139bc8195e1a5cdd1a5b99c81b1bd8dac8199bdd5b9960521b6044820152606401610f55565b428160200151116124fc5760405162461bcd60e51b8152600401610f55906146cf565b611924838360008460006134a2565b6000546001600160a01b0316331461252257600080fd5b60008181526014602052604090205461174590600161467f565b6000546001600160a01b0316331461255357600080fd5b6000908152601560205260409020805460ff19166001179055565b600082815260146020526040902054158015612599575060008281526015602052604090205460ff16155b6125b55760405162461bcd60e51b8152600401610f5590614615565b6125bf818361264f565b6125c857600080fd5b6125d284836136a7565b6125dc848361373a565b6125f76125e885611439565b6125f185611439565b846137e7565b6126018383613b49565b6000828152600b60205260408082204390555183916001600160a01b0380871692908816917fddf252ad1be2c89b69c2b068fc378daa952ba7f163c4a11628f55a4df523b3ef91a450505050565b60008181526007602090815260408083205460098352818420546001600160a01b03918216808652600a855283862088841680885295529285205492938085149392909116149060ff1682806126a25750815b806126aa5750805b979650505050505050565b6040805160808101825260008082526020820181905291810182905260608101919091526040805160808101825260008082526020820181905291810182905260608101919091526011546000908190871561282057428760200151118015612725575060008760000151600f0b135b1561276a57865161273b9063168e6a00906147d1565b600f0b60208087019190915287015161275590429061464b565b8560200151612764919061480f565b600f0b85525b428660200151118015612784575060008660000151600f0b135b156127c957855161279a9063168e6a00906147d1565b600f0b6020808601919091528601516127b490429061464b565b84602001516127c3919061480f565b600f0b84525b602080880151600090815260128252604090205490870151600f9190910b93501561282057866020015186602001510361280557829150612820565b602080870151600090815260129091526040902054600f0b91505b604080516080810182526000808252602082015242918101919091524360608201528115612895575060008181526003602090815260409182902082516080810184528154600f81810b8352600160801b909104900b9281019290925260018101549282019290925260029091015460608201525b6040810151816000428310156128e25760408401516128b4904261464b565b60608501516128c3904361464b565b6128d590670de0b6b3a76400006146b0565b6128df9190614637565b90505b600062093a806128f28186614637565b6128fc91906146b0565b905060005b60ff811015612a765761291762093a808361467f565b915060004283111561292b5742925061293f565b50600082815260126020526040902054600f0b5b612949868461464b565b8760200151612958919061480f565b875188906129679083906148a4565b600f0b9052506020870180518291906129819083906148f4565b600f90810b90915288516000910b1215905061299c57600087525b60008760200151600f0b12156129b457600060208801525b60408088018490528501519295508592670de0b6b3a7640000906129d8908561464b565b6129e290866146b0565b6129ec9190614637565b85606001516129fb919061467f565b6060880152612a0b60018961467f565b9750428303612a205750436060870152612a76565b6000888152600360209081526040918290208951918a01516001600160801b03908116600160801b029216919091178155908801516001820155606088015160029091015550612a6f81614697565b9050612901565b505060118590558b15612b015788602001518860200151612a9791906148a4565b84602001818151612aa891906148f4565b600f0b90525088518851612abc91906148a4565b84518590612acb9083906148f4565b600f90810b90915260208601516000910b12159050612aec57600060208501525b60008460000151600f0b1215612b0157600084525b6000858152600360209081526040918290208651918701516001600160801b03908116600160801b02921691909117815590850151600182015560608501516002909101558b15612cc357428b602001511115612bb8576020890151612b6790886148f4565b96508a602001518a6020015103612b8a576020880151612b8790886148a4565b96505b60208b810151600090815260129091526040902080546001600160801b0319166001600160801b0389161790555b428a602001511115612c13578a602001518a602001511115612c13576020880151612be390876148a4565b60208b810151600090815260129091526040902080546001600160801b0319166001600160801b03831617905595505b60008c8152600e6020526040812054612c2d90600161467f565b905080600e60008f815260200190815260200160002081905550428960400181815250504389606001818152505088600f60008f815260200190815260200160002082633b9aca008110612c8357612c836145e9565b825160208401516001600160801b03908116600160801b029116176003919091029190910190815560408201516001820155606090910151600290910155505b505050505050505050505050565b612cdb338261264f565b612d275760405162461bcd60e51b815260206004820181905260248201527f63616c6c6572206973206e6f74206f776e6572206e6f7220617070726f7665646044820152606401610f55565b6000818152600760205260408120546001600160a01b031690612d4a9083610d4a565b612d5e612d5682611439565b6000846137e7565b612d68338361373a565b60405182906000906001600160a01b038416907fddf252ad1be2c89b69c2b068fc378daa952ba7f163c4a11628f55a4df523b3ef908390a45050565b6000828152600e6020526040812054808203612dc4576000915050610d0b565b6000848152600f6020526040812082633b9aca008110612de657612de66145e9565b60408051608081018252600392909202929092018054600f81810b8452600160801b909104900b602083015260018101549282018390526002015460608201529150612e329085614943565b8160200151612e41919061480f565b81518290612e509083906148a4565b600f90810b90915282516000910b12159050612e6b57600081525b51600f0b9150610d0b9050565b6000612e8383611439565b6001600160a01b0384811660008181526016602052604080822080546001600160a01b031916888616908117909155905194955093928516927f3134e8a2e6d97e929a7e54011ea5485d7d196dd5f0ba4d4ef95803e8e3fc257f9190a4610ec7838284613c0f565b60008062093a8080612efd864261467f565b612f079190614637565b612f1191906146b0565b905060008511612f2057600080fd5b428111612f7e5760405162461bcd60e51b815260206004820152602660248201527f43616e206f6e6c79206c6f636b20756e74696c2074696d6520696e207468652060448201526566757475726560d01b6064820152608401610f55565b612f8c63168e6a004261467f565b811115612fdb5760405162461bcd60e51b815260206004820152601e60248201527f566f74696e67206c6f636b2063616e2062652034207965617273206d617800006044820152606401610f55565b600560008154612fea90614697565b90915550600554612ffb8482613fcb565b5060008181526010602090815260409182902082518084019093528054600f0b835260019081015491830191909152613039918391899186916134a2565b95945050505050565b600080839050600062093a8080836040015161305e9190614637565b61306891906146b0565b905060005b60ff81101561311b5761308362093a808361467f565b9150600085831115613097578592506130ab565b50600082815260126020526040902054600f0b5b60408401516130ba908461464b565b84602001516130c9919061480f565b845185906130d89083906148a4565b600f0b9052508583036130eb575061311b565b80846020018181516130fd91906148f4565b600f0b905250506040830182905261311481614697565b905061306d565b5060008260000151600f0b121561313157600082525b50516001600160801b03169392505050565b600043821115613155576131556145ff565b6000838152600e6020526040812054815b60808110156131f557818310156131f55760006002613185848661467f565b61319090600161467f565b61319a9190614637565b6000888152600f60205260409020909150869082633b9aca0081106131c1576131c16145e9565b6003020160020154116131d6578093506131e4565b6131e160018261464b565b92505b506131ee81614697565b9050613166565b506000858152600f6020526040812083633b9aca008110613218576132186145e9565b60408051608081018252600392909202929092018054600f81810b8452600160801b909104900b60208301526001810154928201929092526002909101546060820152601154909150600061326d878361341c565b600081815260036020908152604080832081516080810183528154600f81810b8352600160801b909104900b93810193909352600181015491830191909152600201546060820152919250808484101561334c5760006003816132d187600161467f565b8152602080820192909252604090810160002081516080810183528154600f81810b8352600160801b909104900b9381019390935260018101549183019190915260020154606080830182905286015191925061332e919061464b565b925083604001518160400151613344919061464b565b915050613370565b606083015161335b904361464b565b915082604001514261336d919061464b565b90505b604083015182156133ad578284606001518c61338c919061464b565b61339690846146b0565b6133a09190614637565b6133aa908261467f565b90505b60408701516133bc908261464b565b87602001516133cb919061480f565b875188906133da9083906148a4565b600f90810b90915288516000910b12905061340a57505093516001600160801b03169650610d0b95505050505050565b60009950505050505050505050610d0b565b60008082815b608081101561349857818310156134985760006002613441848661467f565b61344c90600161467f565b6134569190614637565b600081815260036020526040902060020154909150871061347957809350613487565b61348460018261464b565b92505b5061349181614697565b9050613422565b5090949350505050565b60135482906134b1868261467f565b6013556040805180820190915260008082526020820152825160208085015190830152600f0b81528251879084906134ea9083906148f4565b600f0b90525085156134fe57602083018690525b6000888152601060209081526040909120845181546001600160801b0319166001600160801b03909116178155908401516001909101556135408882856126b5565b3387158015906135625750600485600481111561355f5761355f614982565b14155b1561360c576040516323b872dd60e01b81526001600160a01b038281166004830152306024830152604482018a90527f000000000000000000000000000000000000000000000000000000000000000016906323b872dd906064016020604051808303816000875af11580156135dc573d6000803e3d6000fd5b505050506040513d601f19601f820116820180604052508101906136009190614662565b61360c5761360c6145ff565b8360200151816001600160a01b03167fff04ccafc360e16b67d682d17bd9503c4c6b9a131f6be6325762dc9ffc7de6248b8b89426040516136509493929190614998565b60405180910390a37f5e2aa66efd74cce82b21852e317e5490d9ecc9e6bb953ae24d90851258cc2f5c836136848a8261467f565b6040805192835260208301919091520160405180910390a1505050505050505050565b6000818152600760205260409020546001600160a01b038381169116146136fc5760405162461bcd60e51b81526020600482015260096024820152683737ba1037bbb732b960b91b6044820152606401610f55565b6000818152600960205260409020546001600160a01b03161561373657600081815260096020526040902080546001600160a01b03191690555b5050565b6000818152600760205260409020546001600160a01b0383811691161461378f5760405162461bcd60e51b81526020600482015260096024820152683737ba1037bbb732b960b91b6044820152606401610f55565b600081815260076020526040902080546001600160a01b03191690556137b5828261406b565b6001600160a01b03821660009081526008602052604081208054600192906137de90849061464b565b90915550505050565b816001600160a01b0316836001600160a01b0316141580156138095750600081115b15610ec7576001600160a01b0383161561398a576001600160a01b03831660009081526018602052604081205463ffffffff16908161386d576001600160a01b038516600090815260176020908152604080832083805290915290206001016138af565b6001600160a01b03851660009081526017602052604081209061389160018561458b565b63ffffffff1663ffffffff1681526020019081526020016000206001015b905060006138bc8661412a565b6001600160a01b038716600090815260176020908152604080832063ffffffff8516845290915281209192506001909101905b835481101561394957600084828154811061390c5761390c6145e9565b90600052602060002001549050868114613936578254600181018455600084815260209020018190555b508061394181614697565b9150506138ef565b506139558460016149d6565b6001600160a01b0388166000908152601860205260409020805463ffffffff191663ffffffff92909216919091179055505050505b6001600160a01b03821615610ec7576001600160a01b03821660009081526018602052604081205463ffffffff1690816139e9576001600160a01b03841660009081526017602090815260408083208380529091529020600101613a2b565b6001600160a01b038416600090815260176020526040812090613a0d60018561458b565b63ffffffff1663ffffffff1681526020019081526020016000206001015b90506000613a388561412a565b6001600160a01b038616600090815260176020908152604080832063ffffffff851684529091529020835491925060019081019161040091613a7a919061467f565b1115613a985760405162461bcd60e51b8152600401610f55906149fe565b60005b8354811015613aea576000848281548110613ab857613ab86145e9565b600091825260208083209091015485546001810187558684529190922001555080613ae281614697565b915050613a9b565b50805460018181018355600083815260209020909101869055613b0e9085906149d6565b6001600160a01b0387166000908152601860205260409020805463ffffffff9290921663ffffffff1990921691909117905550505050505050565b6000818152600760205260409020546001600160a01b031615613b9e5760405162461bcd60e51b815260206004820152600d60248201526c185b1c9958591e481bdddb9959609a1b6044820152606401610f55565b600081815260076020908152604080832080546001600160a01b0319166001600160a01b03871690811790915580845260088084528285208054600c86528487208188528652848720889055878752600d8652938620939093559084529091528054600192906137de90849061467f565b806001600160a01b0316826001600160a01b031614610ec7576001600160a01b03821615613dc2576001600160a01b03821660009081526018602052604081205463ffffffff169081613c87576001600160a01b03841660009081526017602090815260408083208380529091529020600101613cc9565b6001600160a01b038416600090815260176020526040812090613cab60018561458b565b63ffffffff1663ffffffff1681526020019081526020016000206001015b90506000613cd68561412a565b6001600160a01b038616600090815260176020908152604080832063ffffffff8516845290915281209192506001909101905b8354811015613d81576000848281548110613d2657613d266145e9565b600091825260208083209091015480835260079091526040909120549091506001600160a01b03908116908a1614613d6e578254600181018455600084815260209020018190555b5080613d7981614697565b915050613d09565b50613d8d8460016149d6565b6001600160a01b0387166000908152601860205260409020805463ffffffff191663ffffffff92909216919091179055505050505b6001600160a01b03811615610ec7576001600160a01b03811660009081526018602052604081205463ffffffff169081613e21576001600160a01b03831660009081526017602090815260408083208380529091529020600101613e63565b6001600160a01b038316600090815260176020526040812090613e4560018561458b565b63ffffffff1663ffffffff1681526020019081526020016000206001015b90506000613e708461412a565b6001600160a01b03808616600090815260176020908152604080832063ffffffff861684528252808320938b1683526008909152902054845492935060019091019161040090613ec190839061467f565b1115613edf5760405162461bcd60e51b8152600401610f55906149fe565b60005b8454811015613f31576000858281548110613eff57613eff6145e9565b600091825260208083209091015486546001810188558784529190922001555080613f2981614697565b915050613ee2565b5060005b81811015613f83576001600160a01b0389166000908152600c602090815260408083208484528252822054855460018101875586845291909220015580613f7b81614697565b915050613f35565b50613f8f8560016149d6565b6001600160a01b0387166000908152601860205260409020805463ffffffff9290921663ffffffff199092169190911790555050505050505050565b60006001600160a01b0383166140125760405162461bcd60e51b815260206004820152600c60248201526b7a65726f206164647265737360a01b6044820152606401610f55565b61402060006125f185611439565b61402a8383613b49565b60405182906001600160a01b038516906000907fddf252ad1be2c89b69c2b068fc378daa952ba7f163c4a11628f55a4df523b3ef908290a450600192915050565b6001600160a01b0382166000908152600860205260408120546140909060019061464b565b6000838152600d60205260409020549091508082036140df576001600160a01b0384166000908152600c602090815260408083208584528252808320839055858352600d909152812055611d51565b6001600160a01b03939093166000908152600c6020908152604080832093835292815282822080548684528484208190558352600d9091528282209490945592839055908252812055565b6001600160a01b038116600090815260186020526040812054429063ffffffff16801580159061419357506001600160a01b0384166000908152601760205260408120839161417a60018561458b565b63ffffffff168152602081019190915260400160002054145b156113b65761155260018261458b565b6001600160e01b03198116811461148457600080fd5b6000602082840312156141cb57600080fd5b81356113b6816141a3565b60005b838110156141f15781810151838201526020016141d9565b83811115611d515750506000910152565b6000815180845261421a8160208601602086016141d6565b601f01601f19169290920160200192915050565b6020815260006113b66020830184614202565b80356001600160a01b038116811461425857600080fd5b919050565b6000806040838503121561427057600080fd5b61427983614241565b946020939093013593505050565b60006020828403121561429957600080fd5b5035919050565b6000602082840312156142b257600080fd5b6113b682614241565b600080604083850312156142ce57600080fd5b50508035926020909101359150565b6000806000606084860312156142f257600080fd5b6142fb84614241565b925061430960208501614241565b9150604084013590509250925092565b801515811461148457600080fd5b6000806040838503121561433a57600080fd5b61434383614241565b9150602083013561435381614319565b809150509250929050565b634e487b7160e01b600052604160045260246000fd5b604051601f8201601f1916810167ffffffffffffffff8111828210171561439d5761439d61435e565b604052919050565b600067ffffffffffffffff8211156143bf576143bf61435e565b50601f01601f191660200190565b600080600080608085870312156143e357600080fd5b6143ec85614241565b93506143fa60208601614241565b925060408501359150606085013567ffffffffffffffff81111561441d57600080fd5b8501601f8101871361442e57600080fd5b803561444161443c826143a5565b614374565b81815288602083850101111561445657600080fd5b8160208401602083013760006020838301015280935050505092959194509250565b60008060008060008060c0878903121561449157600080fd5b61449a87614241565b95506020870135945060408701359350606087013560ff811681146144be57600080fd5b9598949750929560808101359460a0909101359350915050565b6000806000606084860312156144ed57600080fd5b833592506020840135915061450460408501614241565b90509250925092565b6000806040838503121561452057600080fd5b61452983614241565b915061453760208401614241565b90509250929050565b6000806040838503121561455357600080fd5b61455c83614241565b9150602083013563ffffffff8116811461435357600080fd5b634e487b7160e01b600052601160045260246000fd5b600063ffffffff838116908316818110156145a8576145a8614575565b039392505050565b634e487b7160e01b600052601260045260246000fd5b600063ffffffff808416806145dd576145dd6145b0565b92169190910492915050565b634e487b7160e01b600052603260045260246000fd5b634e487b7160e01b600052600160045260246000fd5b602080825260089082015267185d1d1858da195960c21b604082015260600190565b600082614646576146466145b0565b500490565b60008282101561465d5761465d614575565b500390565b60006020828403121561467457600080fd5b81516113b681614319565b6000821982111561469257614692614575565b500190565b6000600182016146a9576146a9614575565b5060010190565b60008160001904831182151516156146ca576146ca614575565b500290565b60208082526024908201527f43616e6e6f742061646420746f2065787069726564206c6f636b2e20576974686040820152636472617760e01b606082015260800190565b6001600160a01b038581168252841660208201526040810183905260806060820181905260009061170990830184614202565b60006020828403121561475857600080fd5b81516113b6816141a3565b60006020828403121561477557600080fd5b815167ffffffffffffffff81111561478c57600080fd5b8201601f8101841361479d57600080fd5b80516147ab61443c826143a5565b8181528560208385010111156147c057600080fd5b6130398260208301602086016141d6565b600081600f0b83600f0b806147e8576147e86145b0565b60016001607f1b031982146000198214161561480657614806614575565b90059392505050565b600081600f0b83600f0b60016001607f1b0360008213600084138383048511828216161561483f5761483f614575565b60016001607f1b0319600085128281168783058712161561486257614862614575565b6000871292508582058712848416161561487e5761487e614575565b8585058712818416161561489457614894614575565b5050509290910295945050505050565b600081600f0b83600f0b600081128160016001607f1b0319018312811516156148cf576148cf614575565b8160016001607f1b030183138116156148ea576148ea614575565b5090039392505050565b600081600f0b83600f0b600082128260016001607f1b030382138115161561491e5761491e614575565b8260016001607f1b031903821281161561493a5761493a614575565b50019392505050565b60008083128015600160ff1b85018412161561496157614961614575565b6001600160ff1b038401831381161561497c5761497c614575565b50500390565b634e487b7160e01b600052602160045260246000fd5b8481526020810184905260808101600584106149c457634e487b7160e01b600052602160045260246000fd5b60408201939093526060015292915050565b600063ffffffff8083168185168083038211156149f5576149f5614575565b01949350505050565b60208082526023908201527f64737452657020776f756c64206861766520746f6f206d616e7920746f6b656e60408201526249647360e81b60608201526080019056fea2646970667358221220439716241fc632f598fdd6eec705cd95fca7d63ffd0fc613fa607442ab87fa2a64736f6c634300080d0033ddf252ad1be2c89b69c2b068fc378daa952ba7f163c4a11628f55a4df523b3ef","linkReferences":{}},"methodIdentifiers":{"DELEGATION_TYPEHASH()":"e7a324dc","DOMAIN_TYPEHASH()":"20606b70","MAX_DELEGATES()":"5f5b0c32","abstain(uint256)":"c1f0fb9f","approve(address,uint256)":"095ea7b3","artProxy()":"5594a045","attach(uint256)":"fbd3a29d","attachments(uint256)":"0d6a2033","balanceOf(address)":"70a08231","balanceOfAtNFT(uint256,uint256)":"8c2c9baf","balanceOfNFT(uint256)":"e7e242d4","balanceOfNFTAt(uint256,uint256)":"e0514aba","beehive()":"3395df25","block_number()":"25a58b56","checkpoint()":"c2c4c5c1","checkpoints(address,uint32)":"f1127ed8","create_lock(uint256,uint256)":"65fc3873","create_lock_for(uint256,uint256,address)":"d4e54c3b","decimals()":"313ce567","delegate(address)":"5c19a95c","delegateBySig(address,uint256,uint256,uint8,bytes32,bytes32)":"c3cda520","delegates(address)":"587cde1e","deposit_for(uint256,uint256)":"ee99fe28","detach(uint256)":"986b7d8a","epoch()":"900cf0cf","getApproved(uint256)":"081812fc","getPastTotalSupply(uint256)":"8e539e8c","getPastVotes(address,uint256)":"3a46b1a8","getPastVotesIndex(address,uint256)":"0758c7d8","getVotes(address)":"9ab24eb0","get_last_user_slope(uint256)":"461f711c","increase_amount(uint256,uint256)":"a183af52","increase_unlock_time(uint256,uint256)":"a4d855df","isApprovedForAll(address,address)":"e985e9c5","isApprovedOrOwner(address,uint256)":"430c2081","locked(uint256)":"b45a3c0e","locked__end(uint256)":"f8a05763","merge(uint256,uint256)":"d1c2babb","name()":"06fdde03","nonces(address)":"7ecebe00","numCheckpoints(address)":"6fcfff45","ownerOf(uint256)":"6352211e","ownership_change(uint256)":"6f548837","point_history(uint256)":"d1febfb9","safeTransferFrom(address,address,uint256)":"42842e0e","safeTransferFrom(address,address,uint256,bytes)":"b88d4fde","setApprovalForAll(address,bool)":"a22cb465","setArtProxy(address)":"2e720f7d","setTeam(address)":"095cf5c6","setVoter(address)":"4bc2a657","slope_changes(uint256)":"71197484","supply()":"047fc9aa","supportsInterface(bytes4)":"01ffc9a7","symbol()":"95d89b41","team()":"85f2aef2","token()":"fc0c546a","tokenOfOwnerByIndex(address,uint256)":"2f745c59","tokenURI(uint256)":"c87b56dd","totalSupply()":"18160ddd","totalSupplyAt(uint256)":"981b24d0","totalSupplyAtT(uint256)":"7116c60c","transferFrom(address,address,uint256)":"23b872dd","user_point_epoch(uint256)":"e441135c","user_point_history(uint256,uint256)":"1376f3da","user_point_history__ts(uint256,uint256)":"1c984bc3","version()":"54fd4d50","voted(uint256)":"8fbb38ff","voter()":"46c96aac","voting(uint256)":"fd4a77f1","withdraw(uint256)":"2e1a7d4d"},"id":1}