{"abi":[{"type":"constructor","inputs":[{"name":"token_addr","type":"address","internalType":"address"},{"name":"art_proxy","type":"address","internalType":"address"}],"stateMutability":"nonpayable"},{"type":"function","name":"DELEGATION_TYPEHASH","inputs":[],"outputs":[{"name":"","type":"bytes32","internalType":"bytes32"}],"stateMutability":"view"},{"type":"function","name":"DOMAIN_TYPEHASH","inputs":[],"outputs":[{"name":"","type":"bytes32","internalType":"bytes32"}],"stateMutability":"view"},{"type":"function","name":"MAX_DELEGATES","inputs":[],"outputs":[{"name":"","type":"uint256","internalType":"uint256"}],"stateMutability":"view"},{"type":"function","name":"abstain","inputs":[{"name":"_tokenId","type":"uint256","internalType":"uint256"}],"outputs":[],"stateMutability":"nonpayable"},{"type":"function","name":"approve","inputs":[{"name":"_approved","type":"address","internalType":"address"},{"name":"_tokenId","type":"uint256","internalType":"uint256"}],"outputs":[],"stateMutability":"nonpayable"},{"type":"function","name":"artProxy","inputs":[],"outputs":[{"name":"","type":"address","internalType":"address"}],"stateMutability":"view"},{"type":"function","name":"attach","inputs":[{"name":"_tokenId","type":"uint256","internalType":"uint256"}],"outputs":[],"stateMutability":"nonpayable"},{"type":"function","name":"attachments","inputs":[{"name":"","type":"uint256","internalType":"uint256"}],"outputs":[{"name":"","type":"uint256","internalType":"uint256"}],"stateMutability":"view"},{"type":"function","name":"balanceOf","inputs":[{"name":"_owner","type":"address","internalType":"address"}],"outputs":[{"name":"","type":"uint256","internalType":"uint256"}],"stateMutability":"view"},{"type":"function","name":"balanceOfAtNFT","inputs":[{"name":"_tokenId","type":"uint256","internalType":"uint256"},{"name":"_block","type":"uint256","internalType":"uint256"}],"outputs":[{"name":"","type":"uint256","internalType":"uint256"}],"stateMutability":"view"},{"type":"function","name":"balanceOfNFT","inputs":[{"name":"_tokenId","type":"uint256","internalType":"uint256"}],"outputs":[{"name":"","type":"uint256","internalType":"uint256"}],"stateMutability":"view"},{"type":"function","name":"balanceOfNFTAt","inputs":[{"name":"_tokenId","type":"uint256","internalType":"uint256"},{"name":"_t","type":"uint256","internalType":"uint256"}],"outputs":[{"name":"","type":"uint256","internalType":"uint256"}],"stateMutability":"view"},{"type":"function","name":"beehive","inputs":[],"outputs":[{"name":"","type":"address","internalType":"address"}],"stateMutability":"view"},{"type":"function","name":"block_number","inputs":[],"outputs":[{"name":"","type":"uint256","internalType":"uint256"}],"stateMutability":"view"},{"type":"function","name":"checkpoint","inputs":[],"outputs":[],"stateMutability":"nonpayable"},{"type":"function","name":"checkpoints","inputs":[{"name":"","type":"address","internalType":"address"},{"name":"","type":"uint32","internalType":"uint32"}],"outputs":[{"name":"timestamp","type":"uint256","internalType":"uint256"}],"stateMutability":"view"},{"type":"function","name":"create_lock","inputs":[{"name":"_value","type":"uint256","internalType":"uint256"},{"name":"_lock_duration","type":"uint256","internalType":"uint256"}],"outputs":[{"name":"","type":"uint256","internalType":"uint256"}],"stateMutability":"nonpayable"},{"type":"function","name":"create_lock_for","inputs":[{"name":"_value","type":"uint256","internalType":"uint256"},{"name":"_lock_duration","type":"uint256","internalType":"uint256"},{"name":"_to","type":"address","internalType":"address"}],"outputs":[{"name":"","type":"uint256","internalType":"uint256"}],"stateMutability":"nonpayable"},{"type":"function","name":"decimals","inputs":[],"outputs":[{"name":"","type":"uint8","internalType":"uint8"}],"stateMutability":"view"},{"type":"function","name":"delegate","inputs":[{"name":"delegatee","type":"address","internalType":"address"}],"outputs":[],"stateMutability":"nonpayable"},{"type":"function","name":"delegateBySig","inputs":[{"name":"delegatee","type":"address","internalType":"address"},{"name":"nonce","type":"uint256","internalType":"uint256"},{"name":"expiry","type":"uint256","internalType":"uint256"},{"name":"v","type":"uint8","internalType":"uint8"},{"name":"r","type":"bytes32","internalType":"bytes32"},{"name":"s","type":"bytes32","internalType":"bytes32"}],"outputs":[],"stateMutability":"nonpayable"},{"type":"function","name":"delegates","inputs":[{"name":"delegator","type":"address","internalType":"address"}],"outputs":[{"name":"","type":"address","internalType":"address"}],"stateMutability":"view"},{"type":"function","name":"deposit_for","inputs":[{"name":"_tokenId","type":"uint256","internalType":"uint256"},{"name":"_value","type":"uint256","internalType":"uint256"}],"outputs":[],"stateMutability":"nonpayable"},{"type":"function","name":"detach","inputs":[{"name":"_tokenId","type":"uint256","internalType":"uint256"}],"outputs":[],"stateMutability":"nonpayable"},{"type":"function","name":"epoch","inputs":[],"outputs":[{"name":"","type":"uint256","internalType":"uint256"}],"stateMutability":"view"},{"type":"function","name":"getApproved","inputs":[{"name":"_tokenId","type":"uint256","internalType":"uint256"}],"outputs":[{"name":"","type":"address","internalType":"address"}],"stateMutability":"view"},{"type":"function","name":"getPastTotalSupply","inputs":[{"name":"timestamp","type":"uint256","internalType":"uint256"}],"outputs":[{"name":"","type":"uint256","internalType":"uint256"}],"stateMutability":"view"},{"type":"function","name":"getPastVotes","inputs":[{"name":"account","type":"address","internalType":"address"},{"name":"timestamp","type":"uint256","internalType":"uint256"}],"outputs":[{"name":"","type":"uint256","internalType":"uint256"}],"stateMutability":"view"},{"type":"function","name":"getPastVotesIndex","inputs":[{"name":"account","type":"address","internalType":"address"},{"name":"timestamp","type":"uint256","internalType":"uint256"}],"outputs":[{"name":"","type":"uint32","internalType":"uint32"}],"stateMutability":"view"},{"type":"function","name":"getVotes","inputs":[{"name":"account","type":"address","internalType":"address"}],"outputs":[{"name":"","type":"uint256","internalType":"uint256"}],"stateMutability":"view"},{"type":"function","name":"get_last_user_slope","inputs":[{"name":"_tokenId","type":"uint256","internalType":"uint256"}],"outputs":[{"name":"","type":"int128","internalType":"int128"}],"stateMutability":"view"},{"type":"function","name":"increase_amount","inputs":[{"name":"_tokenId","type":"uint256","internalType":"uint256"},{"name":"_value","type":"uint256","internalType":"uint256"}],"outputs":[],"stateMutability":"nonpayable"},{"type":"function","name":"increase_unlock_time","inputs":[{"name":"_tokenId","type":"uint256","internalType":"uint256"},{"name":"_lock_duration","type":"uint256","internalType":"uint256"}],"outputs":[],"stateMutability":"nonpayable"},{"type":"function","name":"isApprovedForAll","inputs":[{"name":"_owner","type":"address","internalType":"address"},{"name":"_operator","type":"address","internalType":"address"}],"outputs":[{"name":"","type":"bool","internalType":"bool"}],"stateMutability":"view"},{"type":"function","name":"isApprovedOrOwner","inputs":[{"name":"_spender","type":"address","internalType":"address"},{"name":"_tokenId","type":"uint256","internalType":"uint256"}],"outputs":[{"name":"","type":"bool","internalType":"bool"}],"stateMutability":"view"},{"type":"function","name":"locked","inputs":[{"name":"","type":"uint256","internalType":"uint256"}],"outputs":[{"name":"amount","type":"int128","internalType":"int128"},{"name":"end","type":"uint256","internalType":"uint256"}],"stateMutability":"view"},{"type":"function","name":"locked__end","inputs":[{"name":"_tokenId","type":"uint256","internalType":"uint256"}],"outputs":[{"name":"","type":"uint256","internalType":"uint256"}],"stateMutability":"view"},{"type":"function","name":"merge","inputs":[{"name":"_from","type":"uint256","internalType":"uint256"},{"name":"_to","type":"uint256","internalType":"uint256"}],"outputs":[],"stateMutability":"nonpayable"},{"type":"function","name":"name","inputs":[],"outputs":[{"name":"","type":"string","internalType":"string"}],"stateMutability":"view"},{"type":"function","name":"nonces","inputs":[{"name":"","type":"address","internalType":"address"}],"outputs":[{"name":"","type":"uint256","internalType":"uint256"}],"stateMutability":"view"},{"type":"function","name":"numCheckpoints","inputs":[{"name":"","type":"address","internalType":"address"}],"outputs":[{"name":"","type":"uint32","internalType":"uint32"}],"stateMutability":"view"},{"type":"function","name":"ownerOf","inputs":[{"name":"_tokenId","type":"uint256","internalType":"uint256"}],"outputs":[{"name":"","type":"address","internalType":"address"}],"stateMutability":"view"},{"type":"function","name":"ownership_change","inputs":[{"name":"","type":"uint256","internalType":"uint256"}],"outputs":[{"name":"","type":"uint256","internalType":"uint256"}],"stateMutability":"view"},{"type":"function","name":"point_history","inputs":[{"name":"","type":"uint256","internalType":"uint256"}],"outputs":[{"name":"bias","type":"int128","internalType":"int128"},{"name":"slope","type":"int128","internalType":"int128"},{"name":"ts","type":"uint256","internalType":"uint256"},{"name":"blk","type":"uint256","internalType":"uint256"}],"stateMutability":"view"},{"type":"function","name":"safeTransferFrom","inputs":[{"name":"_from","type":"address","internalType":"address"},{"name":"_to","type":"address","internalType":"address"},{"name":"_tokenId","type":"uint256","internalType":"uint256"}],"outputs":[],"stateMutability":"nonpayable"},{"type":"function","name":"safeTransferFrom","inputs":[{"name":"_from","type":"address","internalType":"address"},{"name":"_to","type":"address","internalType":"address"},{"name":"_tokenId","type":"uint256","internalType":"uint256"},{"name":"_data","type":"bytes","internalType":"bytes"}],"outputs":[],"stateMutability":"nonpayable"},{"type":"function","name":"setApprovalForAll","inputs":[{"name":"_operator","type":"address","internalType":"address"},{"name":"_approved","type":"bool","internalType":"bool"}],"outputs":[],"stateMutability":"nonpayable"},{"type":"function","name":"setArtProxy","inputs":[{"name":"_proxy","type":"address","internalType":"address"}],"outputs":[],"stateMutability":"nonpayable"},{"type":"function","name":"setTeam","inputs":[{"name":"_team","type":"address","internalType":"address"}],"outputs":[],"stateMutability":"nonpayable"},{"type":"function","name":"setVoter","inputs":[{"name":"_voter","type":"address","internalType":"address"}],"outputs":[],"stateMutability":"nonpayable"},{"type":"function","name":"slope_changes","inputs":[{"name":"","type":"uint256","internalType":"uint256"}],"outputs":[{"name":"","type":"int128","internalType":"int128"}],"stateMutability":"view"},{"type":"function","name":"supply","inputs":[],"outputs":[{"name":"","type":"uint256","internalType":"uint256"}],"stateMutability":"view"},{"type":"function","name":"supportsInterface","inputs":[{"name":"_interfaceID","type":"bytes4","internalType":"bytes4"}],"outputs":[{"name":"","type":"bool","internalType":"bool"}],"stateMutability":"view"},{"type":"function","name":"symbol","inputs":[],"outputs":[{"name":"","type":"string","internalType":"string"}],"stateMutability":"view"},{"type":"function","name":"team","inputs":[],"outputs":[{"name":"","type":"address","internalType":"address"}],"stateMutability":"view"},{"type":"function","name":"token","inputs":[],"outputs":[{"name":"","type":"address","internalType":"address"}],"stateMutability":"view"},{"type":"function","name":"tokenOfOwnerByIndex","inputs":[{"name":"_owner","type":"address","internalType":"address"},{"name":"_tokenIndex","type":"uint256","internalType":"uint256"}],"outputs":[{"name":"","type":"uint256","internalType":"uint256"}],"stateMutability":"view"},{"type":"function","name":"tokenURI","inputs":[{"name":"_tokenId","type":"uint256","internalType":"uint256"}],"outputs":[{"name":"","type":"string","internalType":"string"}],"stateMutability":"view"},{"type":"function","name":"totalSupply","inputs":[],"outputs":[{"name":"","type":"uint256","internalType":"uint256"}],"stateMutability":"view"},{"type":"function","name":"totalSupplyAt","inputs":[{"name":"_block","type":"uint256","internalType":"uint256"}],"outputs":[{"name":"","type":"uint256","internalType":"uint256"}],"stateMutability":"view"},{"type":"function","name":"totalSupplyAtT","inputs":[{"name":"t","type":"uint256","internalType":"uint256"}],"outputs":[{"name":"","type":"uint256","internalType":"uint256"}],"stateMutability":"view"},{"type":"function","name":"transferFrom","inputs":[{"name":"_from","type":"address","internalType":"address"},{"name":"_to","type":"address","internalType":"address"},{"name":"_tokenId","type":"uint256","internalType":"uint256"}],"outputs":[],"stateMutability":"nonpayable"},{"type":"function","name":"user_point_epoch","inputs":[{"name":"","type":"uint256","internalType":"uint256"}],"outputs":[{"name":"","type":"uint256","internalType":"uint256"}],"stateMutability":"view"},{"type":"function","name":"user_point_history","inputs":[{"name":"","type":"uint256","internalType":"uint256"},{"name":"","type":"uint256","internalType":"uint256"}],"outputs":[{"name":"bias","type":"int128","internalType":"int128"},{"name":"slope","type":"int128","internalType":"int128"},{"name":"ts","type":"uint256","internalType":"uint256"},{"name":"blk","type":"uint256","internalType":"uint256"}],"stateMutability":"view"},{"type":"function","name":"user_point_history__ts","inputs":[{"name":"_tokenId","type":"uint256","internalType":"uint256"},{"name":"_idx","type":"uint256","internalType":"uint256"}],"outputs":[{"name":"","type":"uint256","internalType":"uint256"}],"stateMutability":"view"},{"type":"function","name":"version","inputs":[],"outputs":[{"name":"","type":"string","internalType":"string"}],"stateMutability":"view"},{"type":"function","name":"voted","inputs":[{"name":"","type":"uint256","internalType":"uint256"}],"outputs":[{"name":"","type":"bool","internalType":"bool"}],"stateMutability":"view"},{"type":"function","name":"voter","inputs":[],"outputs":[{"name":"","type":"address","internalType":"address"}],"stateMutability":"view"},{"type":"function","name":"voting","inputs":[{"name":"_tokenId","type":"uint256","internalType":"uint256"}],"outputs":[],"stateMutability":"nonpayable"},{"type":"function","name":"withdraw","inputs":[{"name":"_tokenId","type":"uint256","internalType":"uint256"}],"outputs":[],"stateMutability":"nonpayable"},{"type":"event","name":"Approval","inputs":[{"name":"owner","type":"address","indexed":true,"internalType":"address"},{"name":"approved","type":"address","indexed":true,"internalType":"address"},{"name":"tokenId","type":"uint256","indexed":true,"internalType":"uint256"}],"anonymous":false},{"type":"event","name":"ApprovalForAll","inputs":[{"name":"owner","type":"address","indexed":true,"internalType":"address"},{"name":"operator","type":"address","indexed":true,"internalType":"address"},{"name":"approved","type":"bool","indexed":false,"internalType":"bool"}],"anonymous":false},{"type":"event","name":"DelegateChanged","inputs":[{"name":"delegator","type":"address","indexed":true,"internalType":"address"},{"name":"fromDelegate","type":"address","indexed":true,"internalType":"address"},{"name":"toDelegate","type":"address","indexed":true,"internalType":"address"}],"anonymous":false},{"type":"event","name":"Deposit","inputs":[{"name":"provider","type":"address","indexed":true,"internalType":"address"},{"name":"tokenId","type":"uint256","indexed":false,"internalType":"uint256"},{"name":"value","type":"uint256","indexed":false,"internalType":"uint256"},{"name":"locktime","type":"uint256","indexed":true,"internalType":"uint256"},{"name":"deposit_type","type":"uint8","indexed":false,"internalType":"enum BeehiveEscrow.DepositType"},{"name":"ts","type":"uint256","indexed":false,"internalType":"uint256"}],"anonymous":false},{"type":"event","name":"Supply","inputs":[{"name":"prevSupply","type":"uint256","indexed":false,"internalType":"uint256"},{"name":"supply","type":"uint256","indexed":false,"internalType":"uint256"}],"anonymous":false},{"type":"event","name":"Transfer","inputs":[{"name":"from","type":"address","indexed":true,"internalType":"address"},{"name":"to","type":"address","indexed":true,"internalType":"address"},{"name":"tokenId","type":"uint256","indexed":true,"internalType":"uint256"}],"anonymous":false},{"type":"event","name":"Withdraw","inputs":[{"name":"provider","type":"address","indexed":true,"internalType":"address"},{"name":"tokenId","type":"uint256","indexed":false,"internalType":"uint256"},{"name":"value","type":"uint256","indexed":false,"internalType":"uint256"},{"name":"ts","type":"uint256","indexed":false,"internalType":"uint256"}],"anonymous":false}],"bytecode":{"object":"0x60a06040526006805460ff60a01b1916600160a01b1790553480156200002457600080fd5b5060405162004d5838038062004d588339810160408190526200004791620001be565b6001600160a01b0382811660805260008054336001600160a01b031991821681178355600180548316909117815560028054909216938516939093179055437f3617319a054d772f909f7c479a2cebe5066e836a939412e32403c99029b92f0155427f3617319a054d772f909f7c479a2cebe5066e836a939412e32403c99029b92f005560046020527f9fe05126d2d9ecf60592e254dead906a4b2e492f36cca727682c38e9008c6ac1805460ff1990811684179091557f4267c0a6fd96b7a87f183ee8744f24d011423cd0e0142b3f563f183d8d9a456b8054821684179055635b5e139f60e01b82527e24030bcf4927897dffe721c2d8dda4bfd8910861687c42b03a463b43b0414780549091169092179091556005546040519091309160008051602062004d38833981519152908290a4600554604051600090309060008051602062004d38833981519152908390a45050620001f6565b80516001600160a01b0381168114620001b957600080fd5b919050565b60008060408385031215620001d257600080fd5b620001dd83620001a1565b9150620001ed60208401620001a1565b90509250929050565b608051614b116200022760003960008181610b69015281816110ce015281816111d201526136140152614b116000f3fe608060405234801561001057600080fd5b50600436106104125760003560e01c80637116c60c11610220578063c1f0fb9f11610130578063e7a324dc116100b8578063f1127ed811610087578063f1127ed814610b03578063f8a0576314610b2e578063fbd3a29d14610b51578063fc0c546a14610b64578063fd4a77f114610b8b57600080fd5b8063e7a324dc14610a7a578063e7e242d414610aa1578063e985e9c514610ab4578063ee99fe2814610af057600080fd5b8063d1c2babb116100ff578063d1c2babb146109e3578063d1febfb9146109f6578063d4e54c3b14610a34578063e0514aba14610a47578063e441135c14610a5a57600080fd5b8063c1f0fb9f146109a2578063c2c4c5c1146109b5578063c3cda520146109bd578063c87b56dd146109d057600080fd5b806395d89b41116101b3578063a183af5211610182578063a183af521461090e578063a22cb46514610921578063a4d855df14610934578063b45a3c0e14610947578063b88d4fde1461098f57600080fd5b806395d89b41146108b2578063981b24d0146108d5578063986b7d8a146108e85780639ab24eb0146108fb57600080fd5b80638c2c9baf116101ef5780638c2c9baf146108605780638e539e8c146108735780638fbb38ff14610886578063900cf0cf146108a957600080fd5b80637116c60c146107f7578063711974841461080a5780637ecebe001461082d57806385f2aef21461084d57600080fd5b8063313ce567116103265780635594a045116102ae5780636352211e1161027d5780636352211e1461076257806365fc38731461078b5780636f5488371461079e5780636fcfff45146107be57806370a08231146107e457600080fd5b80635594a04514610720578063587cde1e146107335780635c19a95c146107465780635f5b0c321461075957600080fd5b8063430c2081116102f5578063430c20811461069d578063461f711c146106b057806346c96aac146106d65780634bc2a657146106e957806354fd4d50146106fc57600080fd5b8063313ce5671461064a5780633395df25146106645780633a46b1a81461067757806342842e0e1461068a57600080fd5b80631376f3da116103a957806323b872dd1161037857806323b872dd146105d557806325a58b56146105e85780632e1a7d4d146105ee5780632e720f7d146106015780632f745c591461061457600080fd5b80631376f3da1461055857806318160ddd146105935780631c984bc31461059b57806320606b70146105ae57600080fd5b8063081812fc116103e5578063081812fc146104cf578063095cf5c614610510578063095ea7b3146105255780630d6a20331461053857600080fd5b806301ffc9a714610417578063047fc9aa1461045957806306fdde03146104705780630758c7d8146104a7575b600080fd5b61044461042536600461423a565b6001600160e01b03191660009081526004602052604090205460ff1690565b60405190151581526020015b60405180910390f35b61046260135481565b604051908152602001610450565b61049a6040518060400160405280600b81526020016a109151521255914813919560aa1b81525081565b60405161045091906142af565b6104ba6104b53660046142de565b610b9e565b60405163ffffffff9091168152602001610450565b6104f86104dd366004614308565b6000908152600960205260409020546001600160a01b031690565b6040516001600160a01b039091168152602001610450565b61052361051e366004614321565b610d11565b005b6105236105333660046142de565b610d4a565b610462610546366004614308565b60146020526000908152604090205481565b61056b61056636600461433c565b610e32565b60408051600f95860b81529390940b6020840152928201526060810191909152608001610450565b610462610e79565b6104626105a936600461433c565b610e89565b6104627f8cad95687ba82c2ce50e74f7b754645e5117c3a5bec8151c0726d5857980a86681565b6105236105e336600461435e565b610ebb565b43610462565b6105236105fc366004614308565b610ecc565b61052361060f366004614321565b611338565b6104626106223660046142de565b6001600160a01b03919091166000908152600c60209081526040808320938352929052205490565b610652601281565b60405160ff9091168152602001610450565b6006546104f8906001600160a01b031681565b6104626106853660046142de565b611371565b61052361069836600461435e565b611410565b6104446106ab3660046142de565b61142b565b6106c36106be366004614308565b61143e565b604051600f9190910b8152602001610450565b6000546104f8906001600160a01b031681565b6105236106f7366004614321565b611481565b61049a604051806040016040528060058152602001640312e302e360dc1b81525081565b6002546104f8906001600160a01b031681565b6104f8610741366004614321565b6114ba565b610523610754366004614321565b6114ea565b61046261040081565b6104f8610770366004614308565b6000908152600760205260409020546001600160a01b031690565b61046261079936600461433c565b611508565b6104626107ac366004614308565b600b6020526000908152604090205481565b6104ba6107cc366004614321565b60186020526000908152604090205463ffffffff1681565b6104626107f2366004614321565b61155d565b610462610805366004614308565b61157b565b6106c3610818366004614308565b601260205260009081526040902054600f0b81565b61046261083b366004614321565b60196020526000908152604090205481565b6001546104f8906001600160a01b031681565b61046261086e36600461433c565b6115db565b610462610881366004614308565b6115e7565b610444610894366004614308565b60156020526000908152604090205460ff1681565b61046260115481565b61049a604051806040016040528060048152602001631893919560e21b81525081565b6104626108e3366004614308565b6115f2565b6105236108f6366004614308565b611794565b610462610909366004614321565b6117d8565b61052361091c36600461433c565b6118ab565b61052361092f3660046143a8565b6119bd565b61052361094236600461433c565b611a41565b610975610955366004614308565b60106020526000908152604090208054600190910154600f9190910b9082565b60408051600f9390930b8352602083019190915201610450565b61052361099d36600461444e565b611c39565b6105236109b0366004614308565b611dd8565b610523611e07565b6105236109cb3660046144f9565b611e47565b61049a6109de366004614308565b612190565b6105236109f136600461433c565b6122bc565b61056b610a04366004614308565b600360205260009081526040902080546001820154600290920154600f82810b93600160801b909304900b919084565b610462610a42366004614559565b612421565b610462610a5536600461433c565b612477565b610462610a68366004614308565b600e6020526000908152604090205481565b6104627fe48329057bfd03d55e49b547132e39cffd9c1820ad7b9d4c5307691425d15adf81565b610462610aaf366004614308565b612483565b610444610ac236600461458e565b6001600160a01b039182166000908152600a6020908152604080832093909416825291909152205460ff1690565b610523610afe36600461433c565b6124ab565b610462610b113660046145c1565b601760209081526000928352604080842090915290825290205481565b610462610b3c366004614308565b60009081526010602052604090206001015490565b610523610b5f366004614308565b61258c565b6104f87f000000000000000000000000000000000000000000000000000000000000000081565b610523610b99366004614308565b6125bd565b6001600160a01b03821660009081526018602052604081205463ffffffff16808203610bce576000915050610d0b565b6001600160a01b03841660009081526017602052604081208491610bf360018561460c565b63ffffffff16815260208101919091526040016000205411610c2257610c1a60018261460c565b915050610d0b565b6001600160a01b0384166000908152601760209081526040808320838052909152902054831015610c57576000915050610d0b565b600080610c6560018461460c565b90505b8163ffffffff168163ffffffff161115610d065760006002610c8a848461460c565b610c949190614647565b610c9e908361460c565b6001600160a01b038816600090815260176020908152604080832063ffffffff851684529091529020805491925090879003610ce057509350610d0b92505050565b8054871115610cf157819350610cff565b610cfc60018361460c565b92505b5050610c68565b509150505b92915050565b6001546001600160a01b03163314610d2857600080fd5b600180546001600160a01b0319166001600160a01b0392909216919091179055565b6000818152600760205260409020546001600160a01b031680610d6c57600080fd5b806001600160a01b0316836001600160a01b031603610d8a57600080fd5b6000828152600760209081526040808320546001600160a01b038581168552600a845282852033808752945291909320549216149060ff168180610dcb5750805b610dd457600080fd5b60008481526009602052604080822080546001600160a01b0319166001600160a01b0389811691821790925591518793918716917f8c5be1e5ebec7d5bd14f71427d1e84f3dd0314c0f7b2291e5b200ac8c7c3b92591a45050505050565b600f60205281600052604060002081633b9aca008110610e5157600080fd5b6003020180546001820154600290920154600f82810b9550600160801b90920490910b925084565b6000610e844261157b565b905090565b6000828152600f6020526040812082633b9aca008110610eab57610eab61466a565b6003020160010154905092915050565b610ec7838383336125ef565b505050565b600654600160a01b900460ff16600114610ee557600080fd5b6006805460ff60a01b1916600160a11b179055610f0233826126d0565b610f0e57610f0e614680565b600081815260146020526040902054158015610f39575060008181526015602052604090205460ff16155b610f5e5760405162461bcd60e51b8152600401610f5590614696565b60405180910390fd5b600081815260106020908152604080832081518083019092528054600f0b80835260019091015492820183905290929091819042108015610fb757610fa46002856146b8565b9150610fb082856146cc565b925061103c565b6006548493506001600160a01b03161561103c5760065460405163379607f560e01b8152600481018890526001600160a01b039091169063379607f5906024016020604051808303816000875af1158015611016573d6000803e3d6000fd5b505050506040513d601f19601f8201168201806040525081019061103a91906146e3565b505b604080518082018252600080825260208083018281528a83526010909152929020905181546001600160801b0319166001600160801b03909116178155905160019091015560135461108e85826146cc565b60135560408051808201909152600080825260208201526110b29088908890612736565b60405163a9059cbb60e01b8152336004820152602481018590527f00000000000000000000000000000000000000000000000000000000000000006001600160a01b03169063a9059cbb906044016020604051808303816000875af115801561111f573d6000803e3d6000fd5b505050506040513d601f19601f8201168201806040525081019061114391906146fc565b6111815760405162461bcd60e51b815260206004820152600f60248201526e1d1c985b9cd9995c8819985a5b1959608a1b6044820152606401610f55565b81801561118e5750600083115b80156111a457506001546001600160a01b031615155b1561128d5760015460405163a9059cbb60e01b81526001600160a01b039182166004820152602481018590527f00000000000000000000000000000000000000000000000000000000000000009091169063a9059cbb906044016020604051808303816000875af115801561121d573d6000803e3d6000fd5b505050506040513d601f19601f8201168201806040525081019061124191906146fc565b61128d5760405162461bcd60e51b815260206004820152601760248201527f70656e616c7479207472616e73666572206661696c65640000000000000000006044820152606401610f55565b61129687612d52565b60408051888152602081018690524281830152905133917f02f25270a4d87bea75db541cdfe559334a275b4a233520ed6c0a2429667cca94919081900360600190a27f5e2aa66efd74cce82b21852e317e5490d9ecc9e6bb953ae24d90851258cc2f5c8161130487826146cc565b6040805192835260208301919091520160405180910390a150506006805460ff60a01b1916600160a01b1790555050505050565b6001546001600160a01b0316331461134f57600080fd5b600280546001600160a01b0319166001600160a01b0392909216919091179055565b60008061137e8484610b9e565b6001600160a01b038516600090815260176020908152604080832063ffffffff851684529091528120919250600190910190805b82548110156114065760008382815481106113cf576113cf61466a565b906000526020600020015490506113e68188612e25565b6113f09084614719565b92505080806113fe90614731565b9150506113b2565b5095945050505050565b610ec783838360405180602001604052806000815250611c39565b600061143783836126d0565b9392505050565b6000818152600e6020908152604080832054600f909252822081633b9aca00811061146b5761146b61466a565b6003020154600160801b9004600f0b9392505050565b6000546001600160a01b0316331461149857600080fd5b600080546001600160a01b0319166001600160a01b0392909216919091179055565b6001600160a01b0380821660009081526016602052604081205490911680156114e35780611437565b5090919050565b6001600160a01b0381166114fb5750335b6115053382612ef9565b50565b600654600090600160a01b900460ff1660011461152457600080fd5b6006805460ff60a01b1916600160a11b179055611542838333612f6c565b90506006805460ff60a01b1916600160a01b17905592915050565b6001600160a01b038116600090815260086020526040812054610d0b565b601154600081815260036020908152604080832081516080810183528154600f81810b8352600160801b909104900b938101939093526001810154918301919091526002015460608201529091906115d381856130c3565b949350505050565b600061143783836131c4565b6000610d0b8261157b565b60004382111561160457611604614680565b6011546000611613848361349d565b600081815260036020908152604080832081516080810183528154600f81810b8352600160801b909104900b9381019390935260018101549183019190915260020154606082015291925083831015611722576000600381611676866001614719565b8152602080820192909252604090810160002081516080810183528154600f81810b8352600160801b909104900b938101939093526001810154918301919091526002015460608083018290528501519192501461171c57826060015181606001516116e291906146cc565b836040015182604001516116f691906146cc565b6060850151611705908a6146cc565b61170f919061474a565b61171991906146b8565b91505b50611771565b4382606001511461177157606082015161173c90436146cc565b604083015161174b90426146cc565b606084015161175a90896146cc565b611764919061474a565b61176e91906146b8565b90505b61178a828284604001516117859190614719565b6130c3565b9695505050505050565b6000546001600160a01b031633146117ab57600080fd5b6000818152601460205260409020546117c6906001906146cc565b60009182526014602052604090912055565b6001600160a01b03811660009081526018602052604081205463ffffffff168082036118075750600092915050565b6001600160a01b03831660009081526017602052604081208161182b60018561460c565b63ffffffff1663ffffffff16815260200190815260200160002060010190506000805b82548110156118a257600083828154811061186b5761186b61466a565b906000526020600020015490506118828142612e25565b61188c9084614719565b925050808061189a90614731565b91505061184e565b50949350505050565b600654600160a01b900460ff166001146118c457600080fd5b6006805460ff60a01b1916600160a11b1790556118e133836126d0565b6118ed576118ed614680565b60008281526010602090815260409182902082518084019093528054600f0b835260010154908201528161192357611923614680565b60008160000151600f0b136119735760405162461bcd60e51b8152602060048201526016602482015275139bc8195e1a5cdd1a5b99c81b1bd8dac8199bdd5b9960521b6044820152606401610f55565b428160200151116119965760405162461bcd60e51b8152600401610f5590614769565b6119a583836000846002613523565b50506006805460ff60a01b1916600160a01b17905550565b336001600160a01b038316036119d5576119d5614680565b336000818152600a602090815260408083206001600160a01b03871680855290835292819020805460ff191686151590811790915590519081529192917f17307eab39ab6107e8899845ad3d59bd9653f200f220920489ca2b5937696c31910160405180910390a35050565b600654600160a01b900460ff16600114611a5a57600080fd5b6006805460ff60a01b1916600160a11b179055611a7733836126d0565b611a8357611a83614680565b600082815260106020908152604080832081518083019092528054600f0b825260010154918101919091529062093a8080611abe8542614719565b611ac891906146b8565b611ad2919061474a565b905042826020015111611b165760405162461bcd60e51b815260206004820152600c60248201526b131bd8dac8195e1c1a5c995960a21b6044820152606401610f55565b60008260000151600f0b13611b615760405162461bcd60e51b8152602060048201526011602482015270139bdd1a1a5b99c81a5cc81b1bd8dad959607a1b6044820152606401610f55565b81602001518111611bb45760405162461bcd60e51b815260206004820152601f60248201527f43616e206f6e6c7920696e637265617365206c6f636b206475726174696f6e006044820152606401610f55565b611bc263168e6a0042614719565b811115611c115760405162461bcd60e51b815260206004820152601e60248201527f566f74696e67206c6f636b2063616e2062652034207965617273206d617800006044820152606401610f55565b611c2084600083856003613523565b50506006805460ff60a01b1916600160a01b1790555050565b611c45848484336125ef565b823b15611dd257604051630a85bd0160e11b81526001600160a01b0384169063150b7a0290611c7e9033908890879087906004016147ad565b6020604051808303816000875af1925050508015611cb9575060408051601f3d908101601f19168201909252611cb6918101906147e0565b60015b611d61573d808015611ce7576040519150601f19603f3d011682016040523d82523d6000602084013e611cec565b606091505b508051600003611d595760405162461bcd60e51b815260206004820152603260248201527f4552433732313a207472616e7366657220746f206e6f6e20455243373231526560448201527131b2b4bb32b91034b6b83632b6b2b73a32b960711b6064820152608401610f55565b805181602001fd5b6001600160e01b03198116630a85bd0160e11b14611dd05760405162461bcd60e51b815260206004820152602660248201527f4552433732313a2045524337323152656365697665722072656a656374656420604482015265746f6b656e7360d01b6064820152608401610f55565b505b50505050565b6000546001600160a01b03163314611def57600080fd5b6000908152601560205260409020805460ff19169055565b611e45600060405180604001604052806000600f0b8152602001600081525060405180604001604052806000600f0b81526020016000815250612736565b565b604080518082018252600b81526a109151521255914813919560aa1b6020918201528151808301835260058152640312e302e360dc1b9082015281517f8cad95687ba82c2ce50e74f7b754645e5117c3a5bec8151c0726d5857980a866818301527f47394e47466c445cc474bf81869fa8f731cb4ca3bd9dc93bb1193ea40a83c49b818401527f06c015bd22b4c69690933c1058878ebdfef31f9aaae40bbe86d8a09fe1b2972c60608201524660808201523060a0808301919091528351808303909101815260c0820184528051908301207fe48329057bfd03d55e49b547132e39cffd9c1820ad7b9d4c5307691425d15adf60e08301526001600160a01b038a1661010083015261012082018990526101408083018990528451808403909101815261016083019094528351939092019290922061190160f01b61018084015261018283018290526101a2830181905290916000906101c20160408051601f198184030181528282528051602091820120600080855291840180845281905260ff8a169284019290925260608301889052608083018790529092509060019060a0016020604051602081039080840390855afa15801561200c573d6000803e3d6000fd5b5050604051601f1901519150506001600160a01b0381166120875760405162461bcd60e51b815260206004820152602f60248201527f42656568697665457363726f773a3a64656c656761746542795369673a20696e60448201526e76616c6964207369676e617475726560881b6064820152608401610f55565b6001600160a01b03811660009081526019602052604081208054916120ab83614731565b9190505589146121115760405162461bcd60e51b815260206004820152602b60248201527f42656568697665457363726f773a3a64656c656761746542795369673a20696e60448201526a76616c6964206e6f6e636560a81b6064820152608401610f55565b874211156121795760405162461bcd60e51b815260206004820152602f60248201527f42656568697665457363726f773a3a64656c656761746542795369673a20736960448201526e19db985d1d5c9948195e1c1a5c9959608a1b6064820152608401610f55565b612183818b612ef9565b505050505b505050505050565b6000818152600760205260409020546060906001600160a01b03166121f75760405162461bcd60e51b815260206004820152601b60248201527f517565727920666f72206e6f6e6578697374656e7420746f6b656e00000000006044820152606401610f55565b60008281526010602090815260409182902082518084019093528054600f0b835260010154908201526002546001600160a01b031663dd9ec1498461223c8142612e25565b6020850151855160405160e086901b6001600160e01b0319168152600481019490945260248401929092526044830152600f0b6064820152608401600060405180830381865afa158015612294573d6000803e3d6000fd5b505050506040513d6000823e601f3d908101601f1916820160405261143791908101906147fd565b6000828152601460205260409020541580156122e7575060008281526015602052604090205460ff16155b6123035760405162461bcd60e51b8152600401610f5590614696565b80820361230f57600080fd5b61231933836126d0565b61232257600080fd5b61232c33826126d0565b61233557600080fd5b6000828152601060208181526040808420815180830183528154600f90810b825260019283015482860190815288885295855283872084518086019095528054820b855290920154938301849052805194519095929490910b92111561239f5782602001516123a5565b83602001515b604080518082018252600080825260208083018281528b835260108252848320935184546001600160801b0319166001600160801b039091161784555160019093019290925582518084019093528083529082015290915061240a9087908690612736565b61241386612d52565b612188858383866004613523565b600654600090600160a01b900460ff1660011461243d57600080fd5b6006805460ff60a01b1916600160a11b17905561245b848484612f6c565b90506006805460ff60a01b1916600160a01b1790559392505050565b60006114378383612e25565b6000818152600b60205260408120544390036124a157506000919050565b610d0b8242612e25565b600654600160a01b900460ff166001146124c457600080fd5b6006805460ff60a01b1916600160a11b17905560008281526010602090815260409182902082518084019093528054600f0b835260010154908201528161250a57600080fd5b60008160000151600f0b1361255a5760405162461bcd60e51b8152602060048201526016602482015275139bc8195e1a5cdd1a5b99c81b1bd8dac8199bdd5b9960521b6044820152606401610f55565b4281602001511161257d5760405162461bcd60e51b8152600401610f5590614769565b6119a583836000846000613523565b6000546001600160a01b031633146125a357600080fd5b6000818152601460205260409020546117c6906001614719565b6000546001600160a01b031633146125d457600080fd5b6000908152601560205260409020805460ff19166001179055565b60008281526014602052604090205415801561261a575060008281526015602052604090205460ff16155b6126365760405162461bcd60e51b8152600401610f5590614696565b61264081836126d0565b61264957600080fd5b6126538483613728565b61265d84836137bb565b612678612669856114ba565b612672856114ba565b84613868565b6126828383613bca565b6000828152600b60205260408082204390555183916001600160a01b0380871692908816917fddf252ad1be2c89b69c2b068fc378daa952ba7f163c4a11628f55a4df523b3ef91a450505050565b60008181526007602090815260408083205460098352818420546001600160a01b03918216808652600a855283862088841680885295529285205492938085149392909116149060ff1682806127235750815b8061272b5750805b979650505050505050565b604080516080810182526000808252602082018190529181018290526060810191909152604080516080810182526000808252602082018190529181018290526060810191909152601154600090819087156128a1574287602001511180156127a6575060008760000151600f0b135b156127eb5786516127bc9063168e6a009061486b565b600f0b6020808701919091528701516127d69042906146cc565b85602001516127e591906148a9565b600f0b85525b428660200151118015612805575060008660000151600f0b135b1561284a57855161281b9063168e6a009061486b565b600f0b6020808601919091528601516128359042906146cc565b846020015161284491906148a9565b600f0b84525b602080880151600090815260128252604090205490870151600f9190910b9350156128a1578660200151866020015103612886578291506128a1565b602080870151600090815260129091526040902054600f0b91505b604080516080810182526000808252602082015242918101919091524360608201528115612916575060008181526003602090815260409182902082516080810184528154600f81810b8352600160801b909104900b9281019290925260018101549282019290925260029091015460608201525b60408101518160004283101561296357604084015161293590426146cc565b606085015161294490436146cc565b61295690670de0b6b3a764000061474a565b61296091906146b8565b90505b600062093a8061297381866146b8565b61297d919061474a565b905060005b60ff811015612af75761299862093a8083614719565b91506000428311156129ac574292506129c0565b50600082815260126020526040902054600f0b5b6129ca86846146cc565b87602001516129d991906148a9565b875188906129e890839061493e565b600f0b905250602087018051829190612a0290839061498e565b600f90810b90915288516000910b12159050612a1d57600087525b60008760200151600f0b1215612a3557600060208801525b60408088018490528501519295508592670de0b6b3a764000090612a5990856146cc565b612a63908661474a565b612a6d91906146b8565b8560600151612a7c9190614719565b6060880152612a8c600189614719565b9750428303612aa15750436060870152612af7565b6000888152600360209081526040918290208951918a01516001600160801b03908116600160801b029216919091178155908801516001820155606088015160029091015550612af081614731565b9050612982565b505060118590558b15612b825788602001518860200151612b18919061493e565b84602001818151612b29919061498e565b600f0b90525088518851612b3d919061493e565b84518590612b4c90839061498e565b600f90810b90915260208601516000910b12159050612b6d57600060208501525b60008460000151600f0b1215612b8257600084525b6000858152600360209081526040918290208651918701516001600160801b03908116600160801b02921691909117815590850151600182015560608501516002909101558b15612d4457428b602001511115612c39576020890151612be8908861498e565b96508a602001518a6020015103612c0b576020880151612c08908861493e565b96505b60208b810151600090815260129091526040902080546001600160801b0319166001600160801b0389161790555b428a602001511115612c94578a602001518a602001511115612c94576020880151612c64908761493e565b60208b810151600090815260129091526040902080546001600160801b0319166001600160801b03831617905595505b60008c8152600e6020526040812054612cae906001614719565b905080600e60008f815260200190815260200160002081905550428960400181815250504389606001818152505088600f60008f815260200190815260200160002082633b9aca008110612d0457612d0461466a565b825160208401516001600160801b03908116600160801b029116176003919091029190910190815560408201516001820155606090910151600290910155505b505050505050505050505050565b612d5c33826126d0565b612da85760405162461bcd60e51b815260206004820181905260248201527f63616c6c6572206973206e6f74206f776e6572206e6f7220617070726f7665646044820152606401610f55565b6000818152600760205260408120546001600160a01b031690612dcb9083610d4a565b612ddf612dd7826114ba565b600084613868565b612de933836137bb565b60405182906000906001600160a01b038416907fddf252ad1be2c89b69c2b068fc378daa952ba7f163c4a11628f55a4df523b3ef908390a45050565b6000828152600e6020526040812054808203612e45576000915050610d0b565b6000848152600f6020526040812082633b9aca008110612e6757612e6761466a565b60408051608081018252600392909202929092018054600f81810b8452600160801b909104900b602083015260018101549282018390526002015460608201529150612eb390856149dd565b8160200151612ec291906148a9565b81518290612ed190839061493e565b600f90810b90915282516000910b12159050612eec57600081525b51600f0b9150610d0b9050565b6000612f04836114ba565b6001600160a01b0384811660008181526016602052604080822080546001600160a01b031916888616908117909155905194955093928516927f3134e8a2e6d97e929a7e54011ea5485d7d196dd5f0ba4d4ef95803e8e3fc257f9190a4610ec7838284613c90565b60008062093a8080612f7e8642614719565b612f8891906146b8565b612f92919061474a565b905060008511612fa157600080fd5b428111612fff5760405162461bcd60e51b815260206004820152602660248201527f43616e206f6e6c79206c6f636b20756e74696c2074696d6520696e207468652060448201526566757475726560d01b6064820152608401610f55565b61300d63168e6a0042614719565b81111561305c5760405162461bcd60e51b815260206004820152601e60248201527f566f74696e67206c6f636b2063616e2062652034207965617273206d617800006044820152606401610f55565b60056000815461306b90614731565b9091555060055461307c848261404c565b5060008181526010602090815260409182902082518084019093528054600f0b8352600190810154918301919091526130ba91839189918691613523565b95945050505050565b600080839050600062093a808083604001516130df91906146b8565b6130e9919061474a565b905060005b60ff81101561319c5761310462093a8083614719565b91506000858311156131185785925061312c565b50600082815260126020526040902054600f0b5b604084015161313b90846146cc565b846020015161314a91906148a9565b8451859061315990839061493e565b600f0b90525085830361316c575061319c565b808460200181815161317e919061498e565b600f0b905250506040830182905261319581614731565b90506130ee565b5060008260000151600f0b12156131b257600082525b50516001600160801b03169392505050565b6000438211156131d6576131d6614680565b6000838152600e6020526040812054815b6080811015613276578183101561327657600060026132068486614719565b613211906001614719565b61321b91906146b8565b6000888152600f60205260409020909150869082633b9aca0081106132425761324261466a565b60030201600201541161325757809350613265565b6132626001826146cc565b92505b5061326f81614731565b90506131e7565b506000858152600f6020526040812083633b9aca0081106132995761329961466a565b60408051608081018252600392909202929092018054600f81810b8452600160801b909104900b6020830152600181015492820192909252600290910154606082015260115490915060006132ee878361349d565b600081815260036020908152604080832081516080810183528154600f81810b8352600160801b909104900b9381019390935260018101549183019190915260020154606082015291925080848410156133cd576000600381613352876001614719565b8152602080820192909252604090810160002081516080810183528154600f81810b8352600160801b909104900b938101939093526001810154918301919091526002015460608083018290528601519192506133af91906146cc565b9250836040015181604001516133c591906146cc565b9150506133f1565b60608301516133dc90436146cc565b91508260400151426133ee91906146cc565b90505b6040830151821561342e578284606001518c61340d91906146cc565b613417908461474a565b61342191906146b8565b61342b9082614719565b90505b604087015161343d90826146cc565b876020015161344c91906148a9565b8751889061345b90839061493e565b600f90810b90915288516000910b12905061348b57505093516001600160801b03169650610d0b95505050505050565b60009950505050505050505050610d0b565b60008082815b6080811015613519578183101561351957600060026134c28486614719565b6134cd906001614719565b6134d791906146b8565b60008181526003602052604090206002015490915087106134fa57809350613508565b6135056001826146cc565b92505b5061351281614731565b90506134a3565b5090949350505050565b60135482906135328682614719565b6013556040805180820190915260008082526020820152825160208085015190830152600f0b815282518790849061356b90839061498e565b600f0b905250851561357f57602083018690525b6000888152601060209081526040909120845181546001600160801b0319166001600160801b03909116178155908401516001909101556135c1888285612736565b3387158015906135e3575060048560048111156135e0576135e0614a1c565b14155b1561368d576040516323b872dd60e01b81526001600160a01b038281166004830152306024830152604482018a90527f000000000000000000000000000000000000000000000000000000000000000016906323b872dd906064016020604051808303816000875af115801561365d573d6000803e3d6000fd5b505050506040513d601f19601f8201168201806040525081019061368191906146fc565b61368d5761368d614680565b8360200151816001600160a01b03167fff04ccafc360e16b67d682d17bd9503c4c6b9a131f6be6325762dc9ffc7de6248b8b89426040516136d19493929190614a32565b60405180910390a37f5e2aa66efd74cce82b21852e317e5490d9ecc9e6bb953ae24d90851258cc2f5c836137058a82614719565b6040805192835260208301919091520160405180910390a1505050505050505050565b6000818152600760205260409020546001600160a01b0383811691161461377d5760405162461bcd60e51b81526020600482015260096024820152683737ba1037bbb732b960b91b6044820152606401610f55565b6000818152600960205260409020546001600160a01b0316156137b757600081815260096020526040902080546001600160a01b03191690555b5050565b6000818152600760205260409020546001600160a01b038381169116146138105760405162461bcd60e51b81526020600482015260096024820152683737ba1037bbb732b960b91b6044820152606401610f55565b600081815260076020526040902080546001600160a01b031916905561383682826140ec565b6001600160a01b038216600090815260086020526040812080546001929061385f9084906146cc565b90915550505050565b816001600160a01b0316836001600160a01b03161415801561388a5750600081115b15610ec7576001600160a01b03831615613a0b576001600160a01b03831660009081526018602052604081205463ffffffff1690816138ee576001600160a01b03851660009081526017602090815260408083208380529091529020600101613930565b6001600160a01b03851660009081526017602052604081209061391260018561460c565b63ffffffff1663ffffffff1681526020019081526020016000206001015b9050600061393d866141ab565b6001600160a01b038716600090815260176020908152604080832063ffffffff8516845290915281209192506001909101905b83548110156139ca57600084828154811061398d5761398d61466a565b906000526020600020015490508681146139b7578254600181018455600084815260209020018190555b50806139c281614731565b915050613970565b506139d6846001614a70565b6001600160a01b0388166000908152601860205260409020805463ffffffff191663ffffffff92909216919091179055505050505b6001600160a01b03821615610ec7576001600160a01b03821660009081526018602052604081205463ffffffff169081613a6a576001600160a01b03841660009081526017602090815260408083208380529091529020600101613aac565b6001600160a01b038416600090815260176020526040812090613a8e60018561460c565b63ffffffff1663ffffffff1681526020019081526020016000206001015b90506000613ab9856141ab565b6001600160a01b038616600090815260176020908152604080832063ffffffff851684529091529020835491925060019081019161040091613afb9190614719565b1115613b195760405162461bcd60e51b8152600401610f5590614a98565b60005b8354811015613b6b576000848281548110613b3957613b3961466a565b600091825260208083209091015485546001810187558684529190922001555080613b6381614731565b915050613b1c565b50805460018181018355600083815260209020909101869055613b8f908590614a70565b6001600160a01b0387166000908152601860205260409020805463ffffffff9290921663ffffffff1990921691909117905550505050505050565b6000818152600760205260409020546001600160a01b031615613c1f5760405162461bcd60e51b815260206004820152600d60248201526c185b1c9958591e481bdddb9959609a1b6044820152606401610f55565b600081815260076020908152604080832080546001600160a01b0319166001600160a01b03871690811790915580845260088084528285208054600c86528487208188528652848720889055878752600d86529386209390935590845290915280546001929061385f908490614719565b806001600160a01b0316826001600160a01b031614610ec7576001600160a01b03821615613e43576001600160a01b03821660009081526018602052604081205463ffffffff169081613d08576001600160a01b03841660009081526017602090815260408083208380529091529020600101613d4a565b6001600160a01b038416600090815260176020526040812090613d2c60018561460c565b63ffffffff1663ffffffff1681526020019081526020016000206001015b90506000613d57856141ab565b6001600160a01b038616600090815260176020908152604080832063ffffffff8516845290915281209192506001909101905b8354811015613e02576000848281548110613da757613da761466a565b600091825260208083209091015480835260079091526040909120549091506001600160a01b03908116908a1614613def578254600181018455600084815260209020018190555b5080613dfa81614731565b915050613d8a565b50613e0e846001614a70565b6001600160a01b0387166000908152601860205260409020805463ffffffff191663ffffffff92909216919091179055505050505b6001600160a01b03811615610ec7576001600160a01b03811660009081526018602052604081205463ffffffff169081613ea2576001600160a01b03831660009081526017602090815260408083208380529091529020600101613ee4565b6001600160a01b038316600090815260176020526040812090613ec660018561460c565b63ffffffff1663ffffffff1681526020019081526020016000206001015b90506000613ef1846141ab565b6001600160a01b03808616600090815260176020908152604080832063ffffffff861684528252808320938b1683526008909152902054845492935060019091019161040090613f42908390614719565b1115613f605760405162461bcd60e51b8152600401610f5590614a98565b60005b8454811015613fb2576000858281548110613f8057613f8061466a565b600091825260208083209091015486546001810188558784529190922001555080613faa81614731565b915050613f63565b5060005b81811015614004576001600160a01b0389166000908152600c602090815260408083208484528252822054855460018101875586845291909220015580613ffc81614731565b915050613fb6565b50614010856001614a70565b6001600160a01b0387166000908152601860205260409020805463ffffffff9290921663ffffffff199092169190911790555050505050505050565b60006001600160a01b0383166140935760405162461bcd60e51b815260206004820152600c60248201526b7a65726f206164647265737360a01b6044820152606401610f55565b6140a16000612672856114ba565b6140ab8383613bca565b60405182906001600160a01b038516906000907fddf252ad1be2c89b69c2b068fc378daa952ba7f163c4a11628f55a4df523b3ef908290a450600192915050565b6001600160a01b038216600090815260086020526040812054614111906001906146cc565b6000838152600d6020526040902054909150808203614160576001600160a01b0384166000908152600c602090815260408083208584528252808320839055858352600d909152812055611dd2565b6001600160a01b03939093166000908152600c6020908152604080832093835292815282822080548684528484208190558352600d9091528282209490945592839055908252812055565b6001600160a01b038116600090815260186020526040812054429063ffffffff16801580159061421457506001600160a01b038416600090815260176020526040812083916141fb60018561460c565b63ffffffff168152602081019190915260400160002054145b15611437576115d360018261460c565b6001600160e01b03198116811461150557600080fd5b60006020828403121561424c57600080fd5b813561143781614224565b60005b8381101561427257818101518382015260200161425a565b83811115611dd25750506000910152565b6000815180845261429b816020860160208601614257565b601f01601f19169290920160200192915050565b6020815260006114376020830184614283565b80356001600160a01b03811681146142d957600080fd5b919050565b600080604083850312156142f157600080fd5b6142fa836142c2565b946020939093013593505050565b60006020828403121561431a57600080fd5b5035919050565b60006020828403121561433357600080fd5b611437826142c2565b6000806040838503121561434f57600080fd5b50508035926020909101359150565b60008060006060848603121561437357600080fd5b61437c846142c2565b925061438a602085016142c2565b9150604084013590509250925092565b801515811461150557600080fd5b600080604083850312156143bb57600080fd5b6143c4836142c2565b915060208301356143d48161439a565b809150509250929050565b634e487b7160e01b600052604160045260246000fd5b604051601f8201601f1916810167ffffffffffffffff8111828210171561441e5761441e6143df565b604052919050565b600067ffffffffffffffff821115614440576144406143df565b50601f01601f191660200190565b6000806000806080858703121561446457600080fd5b61446d856142c2565b935061447b602086016142c2565b925060408501359150606085013567ffffffffffffffff81111561449e57600080fd5b8501601f810187136144af57600080fd5b80356144c26144bd82614426565b6143f5565b8181528860208385010111156144d757600080fd5b8160208401602083013760006020838301015280935050505092959194509250565b60008060008060008060c0878903121561451257600080fd5b61451b876142c2565b95506020870135945060408701359350606087013560ff8116811461453f57600080fd5b9598949750929560808101359460a0909101359350915050565b60008060006060848603121561456e57600080fd5b8335925060208401359150614585604085016142c2565b90509250925092565b600080604083850312156145a157600080fd5b6145aa836142c2565b91506145b8602084016142c2565b90509250929050565b600080604083850312156145d457600080fd5b6145dd836142c2565b9150602083013563ffffffff811681146143d457600080fd5b634e487b7160e01b600052601160045260246000fd5b600063ffffffff83811690831681811015614629576146296145f6565b039392505050565b634e487b7160e01b600052601260045260246000fd5b600063ffffffff8084168061465e5761465e614631565b92169190910492915050565b634e487b7160e01b600052603260045260246000fd5b634e487b7160e01b600052600160045260246000fd5b602080825260089082015267185d1d1858da195960c21b604082015260600190565b6000826146c7576146c7614631565b500490565b6000828210156146de576146de6145f6565b500390565b6000602082840312156146f557600080fd5b5051919050565b60006020828403121561470e57600080fd5b81516114378161439a565b6000821982111561472c5761472c6145f6565b500190565b600060018201614743576147436145f6565b5060010190565b6000816000190483118215151615614764576147646145f6565b500290565b60208082526024908201527f43616e6e6f742061646420746f2065787069726564206c6f636b2e20576974686040820152636472617760e01b606082015260800190565b6001600160a01b038581168252841660208201526040810183905260806060820181905260009061178a90830184614283565b6000602082840312156147f257600080fd5b815161143781614224565b60006020828403121561480f57600080fd5b815167ffffffffffffffff81111561482657600080fd5b8201601f8101841361483757600080fd5b80516148456144bd82614426565b81815285602083850101111561485a57600080fd5b6130ba826020830160208601614257565b600081600f0b83600f0b8061488257614882614631565b60016001607f1b03198214600019821416156148a0576148a06145f6565b90059392505050565b600081600f0b83600f0b60016001607f1b036000821360008413838304851182821616156148d9576148d96145f6565b60016001607f1b031960008512828116878305871216156148fc576148fc6145f6565b60008712925085820587128484161615614918576149186145f6565b8585058712818416161561492e5761492e6145f6565b5050509290910295945050505050565b600081600f0b83600f0b600081128160016001607f1b031901831281151615614969576149696145f6565b8160016001607f1b03018313811615614984576149846145f6565b5090039392505050565b600081600f0b83600f0b600082128260016001607f1b03038213811516156149b8576149b86145f6565b8260016001607f1b03190382128116156149d4576149d46145f6565b50019392505050565b60008083128015600160ff1b8501841216156149fb576149fb6145f6565b6001600160ff1b0384018313811615614a1657614a166145f6565b50500390565b634e487b7160e01b600052602160045260246000fd5b848152602081018490526080810160058410614a5e57634e487b7160e01b600052602160045260246000fd5b60408201939093526060015292915050565b600063ffffffff808316818516808303821115614a8f57614a8f6145f6565b01949350505050565b60208082526023908201527f64737452657020776f756c64206861766520746f6f206d616e7920746f6b656e60408201526249647360e81b60608201526080019056fea2646970667358221220ab051665511b186d55688643d367f5b9e1fdc33531be72d5976a04444576849c64736f6c634300080d0033ddf252ad1be2c89b69c2b068fc378daa952ba7f163c4a11628f55a4df523b3ef","linkReferences":{}},"methodIdentifiers":{"DELEGATION_TYPEHASH()":"e7a324dc","DOMAIN_TYPEHASH()":"20606b70","MAX_DELEGATES()":"5f5b0c32","abstain(uint256)":"c1f0fb9f","approve(address,uint256)":"095ea7b3","artProxy()":"5594a045","attach(uint256)":"fbd3a29d","attachments(uint256)":"0d6a2033","balanceOf(address)":"70a08231","balanceOfAtNFT(uint256,uint256)":"8c2c9baf","balanceOfNFT(uint256)":"e7e242d4","balanceOfNFTAt(uint256,uint256)":"e0514aba","beehive()":"3395df25","block_number()":"25a58b56","checkpoint()":"c2c4c5c1","checkpoints(address,uint32)":"f1127ed8","create_lock(uint256,uint256)":"65fc3873","create_lock_for(uint256,uint256,address)":"d4e54c3b","decimals()":"313ce567","delegate(address)":"5c19a95c","delegateBySig(address,uint256,uint256,uint8,bytes32,bytes32)":"c3cda520","delegates(address)":"587cde1e","deposit_for(uint256,uint256)":"ee99fe28","detach(uint256)":"986b7d8a","epoch()":"900cf0cf","getApproved(uint256)":"081812fc","getPastTotalSupply(uint256)":"8e539e8c","getPastVotes(address,uint256)":"3a46b1a8","getPastVotesIndex(address,uint256)":"0758c7d8","getVotes(address)":"9ab24eb0","get_last_user_slope(uint256)":"461f711c","increase_amount(uint256,uint256)":"a183af52","increase_unlock_time(uint256,uint256)":"a4d855df","isApprovedForAll(address,address)":"e985e9c5","isApprovedOrOwner(address,uint256)":"430c2081","locked(uint256)":"b45a3c0e","locked__end(uint256)":"f8a05763","merge(uint256,uint256)":"d1c2babb","name()":"06fdde03","nonces(address)":"7ecebe00","numCheckpoints(address)":"6fcfff45","ownerOf(uint256)":"6352211e","ownership_change(uint256)":"6f548837","point_history(uint256)":"d1febfb9","safeTransferFrom(address,address,uint256)":"42842e0e","safeTransferFrom(address,address,uint256,bytes)":"b88d4fde","setApprovalForAll(address,bool)":"a22cb465","setArtProxy(address)":"2e720f7d","setTeam(address)":"095cf5c6","setVoter(address)":"4bc2a657","slope_changes(uint256)":"71197484","supply()":"047fc9aa","supportsInterface(bytes4)":"01ffc9a7","symbol()":"95d89b41","team()":"85f2aef2","token()":"fc0c546a","tokenOfOwnerByIndex(address,uint256)":"2f745c59","tokenURI(uint256)":"c87b56dd","totalSupply()":"18160ddd","totalSupplyAt(uint256)":"981b24d0","totalSupplyAtT(uint256)":"7116c60c","transferFrom(address,address,uint256)":"23b872dd","user_point_epoch(uint256)":"e441135c","user_point_history(uint256,uint256)":"1376f3da","user_point_history__ts(uint256,uint256)":"1c984bc3","version()":"54fd4d50","voted(uint256)":"8fbb38ff","voter()":"46c96aac","voting(uint256)":"fd4a77f1","withdraw(uint256)":"2e1a7d4d"},"id":0}