{"abi":[{"type":"constructor","inputs":[{"name":"token_addr","type":"address","internalType":"address"},{"name":"art_proxy","type":"address","internalType":"address"}],"stateMutability":"nonpayable"},{"type":"function","name":"DELEGATION_TYPEHASH","inputs":[],"outputs":[{"name":"","type":"bytes32","internalType":"bytes32"}],"stateMutability":"view"},{"type":"function","name":"DOMAIN_TYPEHASH","inputs":[],"outputs":[{"name":"","type":"bytes32","internalType":"bytes32"}],"stateMutability":"view"},{"type":"function","name":"MAX_DELEGATES","inputs":[],"outputs":[{"name":"","type":"uint256","internalType":"uint256"}],"stateMutability":"view"},{"type":"function","name":"abstain","inputs":[{"name":"_tokenId","type":"uint256","internalType":"uint256"}],"outputs":[],"stateMutability":"nonpayable"},{"type":"function","name":"approve","inputs":[{"name":"_approved","type":"address","internalType":"address"},{"name":"_tokenId","type":"uint256","internalType":"uint256"}],"outputs":[],"stateMutability":"nonpayable"},{"type":"function","name":"artProxy","inputs":[],"outputs":[{"name":"","type":"address","internalType":"address"}],"stateMutability":"view"},{"type":"function","name":"attach","inputs":[{"name":"_tokenId","type":"uint256","internalType":"uint256"}],"outputs":[],"stateMutability":"nonpayable"},{"type":"function","name":"attachments","inputs":[{"name":"","type":"uint256","internalType":"uint256"}],"outputs":[{"name":"","type":"uint256","internalType":"uint256"}],"stateMutability":"view"},{"type":"function","name":"balanceOf","inputs":[{"name":"_owner","type":"address","internalType":"address"}],"outputs":[{"name":"","type":"uint256","internalType":"uint256"}],"stateMutability":"view"},{"type":"function","name":"balanceOfAtNFT","inputs":[{"name":"_tokenId","type":"uint256","internalType":"uint256"},{"name":"_block","type":"uint256","internalType":"uint256"}],"outputs":[{"name":"","type":"uint256","internalType":"uint256"}],"stateMutability":"view"},{"type":"function","name":"balanceOfNFT","inputs":[{"name":"_tokenId","type":"uint256","internalType":"uint256"}],"outputs":[{"name":"","type":"uint256","internalType":"uint256"}],"stateMutability":"view"},{"type":"function","name":"balanceOfNFTAt","inputs":[{"name":"_tokenId","type":"uint256","internalType":"uint256"},{"name":"_t","type":"uint256","internalType":"uint256"}],"outputs":[{"name":"","type":"uint256","internalType":"uint256"}],"stateMutability":"view"},{"type":"function","name":"beehive","inputs":[],"outputs":[{"name":"","type":"address","internalType":"address"}],"stateMutability":"view"},{"type":"function","name":"block_number","inputs":[],"outputs":[{"name":"","type":"uint256","internalType":"uint256"}],"stateMutability":"view"},{"type":"function","name":"checkpoint","inputs":[],"outputs":[],"stateMutability":"nonpayable"},{"type":"function","name":"checkpoints","inputs":[{"name":"","type":"address","internalType":"address"},{"name":"","type":"uint32","internalType":"uint32"}],"outputs":[{"name":"timestamp","type":"uint256","internalType":"uint256"}],"stateMutability":"view"},{"type":"function","name":"create_lock","inputs":[{"name":"_value","type":"uint256","internalType":"uint256"},{"name":"_lock_duration","type":"uint256","internalType":"uint256"}],"outputs":[{"name":"","type":"uint256","internalType":"uint256"}],"stateMutability":"nonpayable"},{"type":"function","name":"create_lock_for","inputs":[{"name":"_value","type":"uint256","internalType":"uint256"},{"name":"_lock_duration","type":"uint256","internalType":"uint256"},{"name":"_to","type":"address","internalType":"address"}],"outputs":[{"name":"","type":"uint256","internalType":"uint256"}],"stateMutability":"nonpayable"},{"type":"function","name":"decimals","inputs":[],"outputs":[{"name":"","type":"uint8","internalType":"uint8"}],"stateMutability":"view"},{"type":"function","name":"delegate","inputs":[{"name":"delegatee","type":"address","internalType":"address"}],"outputs":[],"stateMutability":"nonpayable"},{"type":"function","name":"delegateBySig","inputs":[{"name":"delegatee","type":"address","internalType":"address"},{"name":"nonce","type":"uint256","internalType":"uint256"},{"name":"expiry","type":"uint256","internalType":"uint256"},{"name":"v","type":"uint8","internalType":"uint8"},{"name":"r","type":"bytes32","internalType":"bytes32"},{"name":"s","type":"bytes32","internalType":"bytes32"}],"outputs":[],"stateMutability":"nonpayable"},{"type":"function","name":"delegates","inputs":[{"name":"delegator","type":"address","internalType":"address"}],"outputs":[{"name":"","type":"address","internalType":"address"}],"stateMutability":"view"},{"type":"function","name":"deposit_for","inputs":[{"name":"_tokenId","type":"uint256","internalType":"uint256"},{"name":"_value","type":"uint256","internalType":"uint256"}],"outputs":[],"stateMutability":"nonpayable"},{"type":"function","name":"detach","inputs":[{"name":"_tokenId","type":"uint256","internalType":"uint256"}],"outputs":[],"stateMutability":"nonpayable"},{"type":"function","name":"epoch","inputs":[],"outputs":[{"name":"","type":"uint256","internalType":"uint256"}],"stateMutability":"view"},{"type":"function","name":"getApproved","inputs":[{"name":"_tokenId","type":"uint256","internalType":"uint256"}],"outputs":[{"name":"","type":"address","internalType":"address"}],"stateMutability":"view"},{"type":"function","name":"getPastTotalSupply","inputs":[{"name":"timestamp","type":"uint256","internalType":"uint256"}],"outputs":[{"name":"","type":"uint256","internalType":"uint256"}],"stateMutability":"view"},{"type":"function","name":"getPastVotes","inputs":[{"name":"account","type":"address","internalType":"address"},{"name":"timestamp","type":"uint256","internalType":"uint256"}],"outputs":[{"name":"","type":"uint256","internalType":"uint256"}],"stateMutability":"view"},{"type":"function","name":"getPastVotesIndex","inputs":[{"name":"account","type":"address","internalType":"address"},{"name":"timestamp","type":"uint256","internalType":"uint256"}],"outputs":[{"name":"","type":"uint32","internalType":"uint32"}],"stateMutability":"view"},{"type":"function","name":"getVotes","inputs":[{"name":"account","type":"address","internalType":"address"}],"outputs":[{"name":"","type":"uint256","internalType":"uint256"}],"stateMutability":"view"},{"type":"function","name":"get_last_user_slope","inputs":[{"name":"_tokenId","type":"uint256","internalType":"uint256"}],"outputs":[{"name":"","type":"int128","internalType":"int128"}],"stateMutability":"view"},{"type":"function","name":"increase_amount","inputs":[{"name":"_tokenId","type":"uint256","internalType":"uint256"},{"name":"_value","type":"uint256","internalType":"uint256"}],"outputs":[],"stateMutability":"nonpayable"},{"type":"function","name":"increase_unlock_time","inputs":[{"name":"_tokenId","type":"uint256","internalType":"uint256"},{"name":"_lock_duration","type":"uint256","internalType":"uint256"}],"outputs":[],"stateMutability":"nonpayable"},{"type":"function","name":"isApprovedForAll","inputs":[{"name":"_owner","type":"address","internalType":"address"},{"name":"_operator","type":"address","internalType":"address"}],"outputs":[{"name":"","type":"bool","internalType":"bool"}],"stateMutability":"view"},{"type":"function","name":"isApprovedOrOwner","inputs":[{"name":"_spender","type":"address","internalType":"address"},{"name":"_tokenId","type":"uint256","internalType":"uint256"}],"outputs":[{"name":"","type":"bool","internalType":"bool"}],"stateMutability":"view"},{"type":"function","name":"locked","inputs":[{"name":"","type":"uint256","internalType":"uint256"}],"outputs":[{"name":"amount","type":"int128","internalType":"int128"},{"name":"end","type":"uint256","internalType":"uint256"}],"stateMutability":"view"},{"type":"function","name":"locked__end","inputs":[{"name":"_tokenId","type":"uint256","internalType":"uint256"}],"outputs":[{"name":"","type":"uint256","internalType":"uint256"}],"stateMutability":"view"},{"type":"function","name":"merge","inputs":[{"name":"_from","type":"uint256","internalType":"uint256"},{"name":"_to","type":"uint256","internalType":"uint256"}],"outputs":[],"stateMutability":"nonpayable"},{"type":"function","name":"name","inputs":[],"outputs":[{"name":"","type":"string","internalType":"string"}],"stateMutability":"view"},{"type":"function","name":"nonces","inputs":[{"name":"","type":"address","internalType":"address"}],"outputs":[{"name":"","type":"uint256","internalType":"uint256"}],"stateMutability":"view"},{"type":"function","name":"numCheckpoints","inputs":[{"name":"","type":"address","internalType":"address"}],"outputs":[{"name":"","type":"uint32","internalType":"uint32"}],"stateMutability":"view"},{"type":"function","name":"ownerOf","inputs":[{"name":"_tokenId","type":"uint256","internalType":"uint256"}],"outputs":[{"name":"","type":"address","internalType":"address"}],"stateMutability":"view"},{"type":"function","name":"ownership_change","inputs":[{"name":"","type":"uint256","internalType":"uint256"}],"outputs":[{"name":"","type":"uint256","internalType":"uint256"}],"stateMutability":"view"},{"type":"function","name":"point_history","inputs":[{"name":"","type":"uint256","internalType":"uint256"}],"outputs":[{"name":"bias","type":"int128","internalType":"int128"},{"name":"slope","type":"int128","internalType":"int128"},{"name":"ts","type":"uint256","internalType":"uint256"},{"name":"blk","type":"uint256","internalType":"uint256"}],"stateMutability":"view"},{"type":"function","name":"safeTransferFrom","inputs":[{"name":"_from","type":"address","internalType":"address"},{"name":"_to","type":"address","internalType":"address"},{"name":"_tokenId","type":"uint256","internalType":"uint256"}],"outputs":[],"stateMutability":"nonpayable"},{"type":"function","name":"safeTransferFrom","inputs":[{"name":"_from","type":"address","internalType":"address"},{"name":"_to","type":"address","internalType":"address"},{"name":"_tokenId","type":"uint256","internalType":"uint256"},{"name":"_data","type":"bytes","internalType":"bytes"}],"outputs":[],"stateMutability":"nonpayable"},{"type":"function","name":"setApprovalForAll","inputs":[{"name":"_operator","type":"address","internalType":"address"},{"name":"_approved","type":"bool","internalType":"bool"}],"outputs":[],"stateMutability":"nonpayable"},{"type":"function","name":"setArtProxy","inputs":[{"name":"_proxy","type":"address","internalType":"address"}],"outputs":[],"stateMutability":"nonpayable"},{"type":"function","name":"setBeehive","inputs":[{"name":"_beehive","type":"address","internalType":"address"}],"outputs":[],"stateMutability":"nonpayable"},{"type":"function","name":"setTeam","inputs":[{"name":"_team","type":"address","internalType":"address"}],"outputs":[],"stateMutability":"nonpayable"},{"type":"function","name":"setVoter","inputs":[{"name":"_voter","type":"address","internalType":"address"}],"outputs":[],"stateMutability":"nonpayable"},{"type":"function","name":"slope_changes","inputs":[{"name":"","type":"uint256","internalType":"uint256"}],"outputs":[{"name":"","type":"int128","internalType":"int128"}],"stateMutability":"view"},{"type":"function","name":"supply","inputs":[],"outputs":[{"name":"","type":"uint256","internalType":"uint256"}],"stateMutability":"view"},{"type":"function","name":"supportsInterface","inputs":[{"name":"_interfaceID","type":"bytes4","internalType":"bytes4"}],"outputs":[{"name":"","type":"bool","internalType":"bool"}],"stateMutability":"view"},{"type":"function","name":"symbol","inputs":[],"outputs":[{"name":"","type":"string","internalType":"string"}],"stateMutability":"view"},{"type":"function","name":"team","inputs":[],"outputs":[{"name":"","type":"address","internalType":"address"}],"stateMutability":"view"},{"type":"function","name":"token","inputs":[],"outputs":[{"name":"","type":"address","internalType":"address"}],"stateMutability":"view"},{"type":"function","name":"tokenOfOwnerByIndex","inputs":[{"name":"_owner","type":"address","internalType":"address"},{"name":"_tokenIndex","type":"uint256","internalType":"uint256"}],"outputs":[{"name":"","type":"uint256","internalType":"uint256"}],"stateMutability":"view"},{"type":"function","name":"tokenURI","inputs":[{"name":"_tokenId","type":"uint256","internalType":"uint256"}],"outputs":[{"name":"","type":"string","internalType":"string"}],"stateMutability":"view"},{"type":"function","name":"totalSupply","inputs":[],"outputs":[{"name":"","type":"uint256","internalType":"uint256"}],"stateMutability":"view"},{"type":"function","name":"totalSupplyAt","inputs":[{"name":"_block","type":"uint256","internalType":"uint256"}],"outputs":[{"name":"","type":"uint256","internalType":"uint256"}],"stateMutability":"view"},{"type":"function","name":"totalSupplyAtT","inputs":[{"name":"t","type":"uint256","internalType":"uint256"}],"outputs":[{"name":"","type":"uint256","internalType":"uint256"}],"stateMutability":"view"},{"type":"function","name":"transferFrom","inputs":[{"name":"_from","type":"address","internalType":"address"},{"name":"_to","type":"address","internalType":"address"},{"name":"_tokenId","type":"uint256","internalType":"uint256"}],"outputs":[],"stateMutability":"nonpayable"},{"type":"function","name":"user_point_epoch","inputs":[{"name":"","type":"uint256","internalType":"uint256"}],"outputs":[{"name":"","type":"uint256","internalType":"uint256"}],"stateMutability":"view"},{"type":"function","name":"user_point_history","inputs":[{"name":"","type":"uint256","internalType":"uint256"},{"name":"","type":"uint256","internalType":"uint256"}],"outputs":[{"name":"bias","type":"int128","internalType":"int128"},{"name":"slope","type":"int128","internalType":"int128"},{"name":"ts","type":"uint256","internalType":"uint256"},{"name":"blk","type":"uint256","internalType":"uint256"}],"stateMutability":"view"},{"type":"function","name":"user_point_history__ts","inputs":[{"name":"_tokenId","type":"uint256","internalType":"uint256"},{"name":"_idx","type":"uint256","internalType":"uint256"}],"outputs":[{"name":"","type":"uint256","internalType":"uint256"}],"stateMutability":"view"},{"type":"function","name":"version","inputs":[],"outputs":[{"name":"","type":"string","internalType":"string"}],"stateMutability":"view"},{"type":"function","name":"voted","inputs":[{"name":"","type":"uint256","internalType":"uint256"}],"outputs":[{"name":"","type":"bool","internalType":"bool"}],"stateMutability":"view"},{"type":"function","name":"voter","inputs":[],"outputs":[{"name":"","type":"address","internalType":"address"}],"stateMutability":"view"},{"type":"function","name":"voting","inputs":[{"name":"_tokenId","type":"uint256","internalType":"uint256"}],"outputs":[],"stateMutability":"nonpayable"},{"type":"function","name":"withdraw","inputs":[{"name":"_tokenId","type":"uint256","internalType":"uint256"}],"outputs":[],"stateMutability":"nonpayable"},{"type":"event","name":"Approval","inputs":[{"name":"owner","type":"address","indexed":true,"internalType":"address"},{"name":"approved","type":"address","indexed":true,"internalType":"address"},{"name":"tokenId","type":"uint256","indexed":true,"internalType":"uint256"}],"anonymous":false},{"type":"event","name":"ApprovalForAll","inputs":[{"name":"owner","type":"address","indexed":true,"internalType":"address"},{"name":"operator","type":"address","indexed":true,"internalType":"address"},{"name":"approved","type":"bool","indexed":false,"internalType":"bool"}],"anonymous":false},{"type":"event","name":"DelegateChanged","inputs":[{"name":"delegator","type":"address","indexed":true,"internalType":"address"},{"name":"fromDelegate","type":"address","indexed":true,"internalType":"address"},{"name":"toDelegate","type":"address","indexed":true,"internalType":"address"}],"anonymous":false},{"type":"event","name":"Deposit","inputs":[{"name":"provider","type":"address","indexed":true,"internalType":"address"},{"name":"tokenId","type":"uint256","indexed":false,"internalType":"uint256"},{"name":"value","type":"uint256","indexed":false,"internalType":"uint256"},{"name":"locktime","type":"uint256","indexed":true,"internalType":"uint256"},{"name":"deposit_type","type":"uint8","indexed":false,"internalType":"enum BeehiveEscrow.DepositType"},{"name":"ts","type":"uint256","indexed":false,"internalType":"uint256"}],"anonymous":false},{"type":"event","name":"Supply","inputs":[{"name":"prevSupply","type":"uint256","indexed":false,"internalType":"uint256"},{"name":"supply","type":"uint256","indexed":false,"internalType":"uint256"}],"anonymous":false},{"type":"event","name":"Transfer","inputs":[{"name":"from","type":"address","indexed":true,"internalType":"address"},{"name":"to","type":"address","indexed":true,"internalType":"address"},{"name":"tokenId","type":"uint256","indexed":true,"internalType":"uint256"}],"anonymous":false},{"type":"event","name":"Withdraw","inputs":[{"name":"provider","type":"address","indexed":true,"internalType":"address"},{"name":"tokenId","type":"uint256","indexed":false,"internalType":"uint256"},{"name":"value","type":"uint256","indexed":false,"internalType":"uint256"},{"name":"ts","type":"uint256","indexed":false,"internalType":"uint256"}],"anonymous":false}],"bytecode":{"object":"0x60a06040526006805460ff60a01b1916600160a01b1790553480156200002457600080fd5b5060405162004e4b38038062004e4b8339810160408190526200004791620001be565b6001600160a01b0382811660805260008054336001600160a01b031991821681178355600180548316909117815560028054909216938516939093179055437f3617319a054d772f909f7c479a2cebe5066e836a939412e32403c99029b92f0155427f3617319a054d772f909f7c479a2cebe5066e836a939412e32403c99029b92f005560046020527f9fe05126d2d9ecf60592e254dead906a4b2e492f36cca727682c38e9008c6ac1805460ff1990811684179091557f4267c0a6fd96b7a87f183ee8744f24d011423cd0e0142b3f563f183d8d9a456b8054821684179055635b5e139f60e01b82527e24030bcf4927897dffe721c2d8dda4bfd8910861687c42b03a463b43b0414780549091169092179091556005546040519091309160008051602062004e2b833981519152908290a4600554604051600090309060008051602062004e2b833981519152908390a45050620001f6565b80516001600160a01b0381168114620001b957600080fd5b919050565b60008060408385031215620001d257600080fd5b620001dd83620001a1565b9150620001ed60208401620001a1565b90509250929050565b608051614c046200022760003960008181610b87015281816110ec0152818161122301526137070152614c046000f3fe608060405234801561001057600080fd5b506004361061041d5760003560e01c80637116c60c1161022b578063c1f0fb9f11610130578063e7a324dc116100b8578063f1127ed811610087578063f1127ed814610b21578063f8a0576314610b4c578063fbd3a29d14610b6f578063fc0c546a14610b82578063fd4a77f114610ba957600080fd5b8063e7a324dc14610a98578063e7e242d414610abf578063e985e9c514610ad2578063ee99fe2814610b0e57600080fd5b8063d1c2babb116100ff578063d1c2babb14610a01578063d1febfb914610a14578063d4e54c3b14610a52578063e0514aba14610a65578063e441135c14610a7857600080fd5b8063c1f0fb9f146109c0578063c2c4c5c1146109d3578063c3cda520146109db578063c87b56dd146109ee57600080fd5b806395d89b41116101b3578063a183af5211610182578063a183af521461092c578063a22cb4651461093f578063a4d855df14610952578063b45a3c0e14610965578063b88d4fde146109ad57600080fd5b806395d89b41146108d0578063981b24d0146108f3578063986b7d8a146109065780639ab24eb01461091957600080fd5b806385f2aef2116101fa57806385f2aef21461086b5780638c2c9baf1461087e5780638e539e8c146108915780638fbb38ff146108a4578063900cf0cf146108c757600080fd5b80637116c60c14610802578063711974841461081557806372626a08146108385780637ecebe001461084b57600080fd5b8063313ce567116103315780635594a045116102b95780636352211e116102885780636352211e1461076d57806365fc3873146107965780636f548837146107a95780636fcfff45146107c957806370a08231146107ef57600080fd5b80635594a0451461072b578063587cde1e1461073e5780635c19a95c146107515780635f5b0c321461076457600080fd5b8063430c208111610300578063430c2081146106a8578063461f711c146106bb57806346c96aac146106e15780634bc2a657146106f457806354fd4d501461070757600080fd5b8063313ce567146106555780633395df251461066f5780633a46b1a81461068257806342842e0e1461069557600080fd5b80631376f3da116103b457806323b872dd1161038357806323b872dd146105e057806325a58b56146105f35780632e1a7d4d146105f95780632e720f7d1461060c5780632f745c591461061f57600080fd5b80631376f3da1461056357806318160ddd1461059e5780631c984bc3146105a657806320606b70146105b957600080fd5b8063081812fc116103f0578063081812fc146104da578063095cf5c61461051b578063095ea7b3146105305780630d6a20331461054357600080fd5b806301ffc9a714610422578063047fc9aa1461046457806306fdde031461047b5780630758c7d8146104b2575b600080fd5b61044f61043036600461432d565b6001600160e01b03191660009081526004602052604090205460ff1690565b60405190151581526020015b60405180910390f35b61046d60135481565b60405190815260200161045b565b6104a56040518060400160405280600b81526020016a109151521255914813919560aa1b81525081565b60405161045b91906143a2565b6104c56104c03660046143d1565b610bbc565b60405163ffffffff909116815260200161045b565b6105036104e83660046143fb565b6000908152600960205260409020546001600160a01b031690565b6040516001600160a01b03909116815260200161045b565b61052e610529366004614414565b610d2f565b005b61052e61053e3660046143d1565b610d68565b61046d6105513660046143fb565b60146020526000908152604090205481565b61057661057136600461442f565b610e50565b60408051600f95860b81529390940b602084015292820152606081019190915260800161045b565b61046d610e97565b61046d6105b436600461442f565b610ea7565b61046d7f8cad95687ba82c2ce50e74f7b754645e5117c3a5bec8151c0726d5857980a86681565b61052e6105ee366004614451565b610ed9565b4361046d565b61052e6106073660046143fb565b610eea565b61052e61061a366004614414565b6113f2565b61046d61062d3660046143d1565b6001600160a01b03919091166000908152600c60209081526040808320938352929052205490565b61065d601281565b60405160ff909116815260200161045b565b600654610503906001600160a01b031681565b61046d6106903660046143d1565b61142b565b61052e6106a3366004614451565b6114ca565b61044f6106b63660046143d1565b6114e5565b6106ce6106c93660046143fb565b6114f8565b604051600f9190910b815260200161045b565b600054610503906001600160a01b031681565b61052e610702366004614414565b61153b565b6104a5604051806040016040528060058152602001640312e302e360dc1b81525081565b600254610503906001600160a01b031681565b61050361074c366004614414565b611574565b61052e61075f366004614414565b6115a4565b61046d61040081565b61050361077b3660046143fb565b6000908152600760205260409020546001600160a01b031690565b61046d6107a436600461442f565b6115c2565b61046d6107b73660046143fb565b600b6020526000908152604090205481565b6104c56107d7366004614414565b60186020526000908152604090205463ffffffff1681565b61046d6107fd366004614414565b611617565b61046d6108103660046143fb565b611635565b6106ce6108233660046143fb565b601260205260009081526040902054600f0b81565b61052e610846366004614414565b611695565b61046d610859366004614414565b60196020526000908152604090205481565b600154610503906001600160a01b031681565b61046d61088c36600461442f565b6116ce565b61046d61089f3660046143fb565b6116da565b61044f6108b23660046143fb565b60156020526000908152604090205460ff1681565b61046d60115481565b6104a5604051806040016040528060048152602001631893919560e21b81525081565b61046d6109013660046143fb565b6116e5565b61052e6109143660046143fb565b611887565b61046d610927366004614414565b6118cb565b61052e61093a36600461442f565b61199e565b61052e61094d36600461449b565b611ab0565b61052e61096036600461442f565b611b34565b6109936109733660046143fb565b60106020526000908152604090208054600190910154600f9190910b9082565b60408051600f9390930b835260208301919091520161045b565b61052e6109bb366004614541565b611d2c565b61052e6109ce3660046143fb565b611ecb565b61052e611efa565b61052e6109e93660046145ec565b611f3a565b6104a56109fc3660046143fb565b612283565b61052e610a0f36600461442f565b6123af565b610576610a223660046143fb565b600360205260009081526040902080546001820154600290920154600f82810b93600160801b909304900b919084565b61046d610a6036600461464c565b612514565b61046d610a7336600461442f565b61256a565b61046d610a863660046143fb565b600e6020526000908152604090205481565b61046d7fe48329057bfd03d55e49b547132e39cffd9c1820ad7b9d4c5307691425d15adf81565b61046d610acd3660046143fb565b612576565b61044f610ae0366004614681565b6001600160a01b039182166000908152600a6020908152604080832093909416825291909152205460ff1690565b61052e610b1c36600461442f565b61259e565b61046d610b2f3660046146b4565b601760209081526000928352604080842090915290825290205481565b61046d610b5a3660046143fb565b60009081526010602052604090206001015490565b61052e610b7d3660046143fb565b61267f565b6105037f000000000000000000000000000000000000000000000000000000000000000081565b61052e610bb73660046143fb565b6126b0565b6001600160a01b03821660009081526018602052604081205463ffffffff16808203610bec576000915050610d29565b6001600160a01b03841660009081526017602052604081208491610c116001856146ff565b63ffffffff16815260208101919091526040016000205411610c4057610c386001826146ff565b915050610d29565b6001600160a01b0384166000908152601760209081526040808320838052909152902054831015610c75576000915050610d29565b600080610c836001846146ff565b90505b8163ffffffff168163ffffffff161115610d245760006002610ca884846146ff565b610cb2919061473a565b610cbc90836146ff565b6001600160a01b038816600090815260176020908152604080832063ffffffff851684529091529020805491925090879003610cfe57509350610d2992505050565b8054871115610d0f57819350610d1d565b610d1a6001836146ff565b92505b5050610c86565b509150505b92915050565b6001546001600160a01b03163314610d4657600080fd5b600180546001600160a01b0319166001600160a01b0392909216919091179055565b6000818152600760205260409020546001600160a01b031680610d8a57600080fd5b806001600160a01b0316836001600160a01b031603610da857600080fd5b6000828152600760209081526040808320546001600160a01b038581168552600a845282852033808752945291909320549216149060ff168180610de95750805b610df257600080fd5b60008481526009602052604080822080546001600160a01b0319166001600160a01b0389811691821790925591518793918716917f8c5be1e5ebec7d5bd14f71427d1e84f3dd0314c0f7b2291e5b200ac8c7c3b92591a45050505050565b600f60205281600052604060002081633b9aca008110610e6f57600080fd5b6003020180546001820154600290920154600f82810b9550600160801b90920490910b925084565b6000610ea242611635565b905090565b6000828152600f6020526040812082633b9aca008110610ec957610ec961475d565b6003020160010154905092915050565b610ee5838383336126e2565b505050565b600654600160a01b900460ff16600114610f0357600080fd5b6006805460ff60a01b1916600160a11b179055610f2033826127c3565b610f2c57610f2c614773565b600081815260146020526040902054158015610f57575060008181526015602052604090205460ff16155b610f7c5760405162461bcd60e51b8152600401610f7390614789565b60405180910390fd5b600081815260106020908152604080832081518083019092528054600f0b80835260019091015492820183905290929091819042108015610fd557610fc26002856147ab565b9150610fce82856147bf565b925061105a565b6006548493506001600160a01b03161561105a5760065460405163379607f560e01b8152600481018890526001600160a01b039091169063379607f5906024016020604051808303816000875af1158015611034573d6000803e3d6000fd5b505050506040513d601f19601f8201168201806040525081019061105891906147d6565b505b604080518082018252600080825260208083018281528a83526010909152929020905181546001600160801b0319166001600160801b0390911617815590516001909101556013546110ac85826147bf565b60135560408051808201909152600080825260208201526110d09088908890612829565b60405163a9059cbb60e01b8152336004820152602481018590527f00000000000000000000000000000000000000000000000000000000000000006001600160a01b03169063a9059cbb906044016020604051808303816000875af115801561113d573d6000803e3d6000fd5b505050506040513d601f19601f8201168201806040525081019061116191906147ef565b61119f5760405162461bcd60e51b815260206004820152600f60248201526e1d1c985b9cd9995c8819985a5b1959608a1b6044820152606401610f73565b8180156111ac5750600083115b15611347576006546001600160a01b03166111fa5760405162461bcd60e51b815260206004820152600e60248201526d3737903234b9ba3934b13aba37b960911b6044820152606401610f73565b60065460405163a9059cbb60e01b81526001600160a01b039182166004820152602481018590527f00000000000000000000000000000000000000000000000000000000000000009091169063a9059cbb906044016020604051808303816000875af115801561126e573d6000803e3d6000fd5b505050506040513d601f19601f8201168201806040525081019061129291906147ef565b6112de5760405162461bcd60e51b815260206004820152601760248201527f70656e616c7479207472616e73666572206661696c65640000000000000000006044820152606401610f73565b600660009054906101000a90046001600160a01b03166001600160a01b031663bcc3dd346040518163ffffffff1660e01b8152600401600060405180830381600087803b15801561132e57600080fd5b505af1158015611342573d6000803e3d6000fd5b505050505b61135087612e45565b60408051888152602081018690524281830152905133917f02f25270a4d87bea75db541cdfe559334a275b4a233520ed6c0a2429667cca94919081900360600190a27f5e2aa66efd74cce82b21852e317e5490d9ecc9e6bb953ae24d90851258cc2f5c816113be87826147bf565b6040805192835260208301919091520160405180910390a150506006805460ff60a01b1916600160a01b1790555050505050565b6001546001600160a01b0316331461140957600080fd5b600280546001600160a01b0319166001600160a01b0392909216919091179055565b6000806114388484610bbc565b6001600160a01b038516600090815260176020908152604080832063ffffffff851684529091528120919250600190910190805b82548110156114c05760008382815481106114895761148961475d565b906000526020600020015490506114a08188612f18565b6114aa908461480c565b92505080806114b890614824565b91505061146c565b5095945050505050565b610ee583838360405180602001604052806000815250611d2c565b60006114f183836127c3565b9392505050565b6000818152600e6020908152604080832054600f909252822081633b9aca0081106115255761152561475d565b6003020154600160801b9004600f0b9392505050565b6000546001600160a01b0316331461155257600080fd5b600080546001600160a01b0319166001600160a01b0392909216919091179055565b6001600160a01b03808216600090815260166020526040812054909116801561159d57806114f1565b5090919050565b6001600160a01b0381166115b55750335b6115bf3382612fec565b50565b600654600090600160a01b900460ff166001146115de57600080fd5b6006805460ff60a01b1916600160a11b1790556115fc83833361305f565b90506006805460ff60a01b1916600160a01b17905592915050565b6001600160a01b038116600090815260086020526040812054610d29565b601154600081815260036020908152604080832081516080810183528154600f81810b8352600160801b909104900b9381019390935260018101549183019190915260020154606082015290919061168d81856131b6565b949350505050565b6001546001600160a01b031633146116ac57600080fd5b600680546001600160a01b0319166001600160a01b0392909216919091179055565b60006114f183836132b7565b6000610d2982611635565b6000438211156116f7576116f7614773565b60115460006117068483613590565b600081815260036020908152604080832081516080810183528154600f81810b8352600160801b909104900b938101939093526001810154918301919091526002015460608201529192508383101561181557600060038161176986600161480c565b8152602080820192909252604090810160002081516080810183528154600f81810b8352600160801b909104900b938101939093526001810154918301919091526002015460608083018290528501519192501461180f57826060015181606001516117d591906147bf565b836040015182604001516117e991906147bf565b60608501516117f8908a6147bf565b611802919061483d565b61180c91906147ab565b91505b50611864565b4382606001511461186457606082015161182f90436147bf565b604083015161183e90426147bf565b606084015161184d90896147bf565b611857919061483d565b61186191906147ab565b90505b61187d82828460400151611878919061480c565b6131b6565b9695505050505050565b6000546001600160a01b0316331461189e57600080fd5b6000818152601460205260409020546118b9906001906147bf565b60009182526014602052604090912055565b6001600160a01b03811660009081526018602052604081205463ffffffff168082036118fa5750600092915050565b6001600160a01b03831660009081526017602052604081208161191e6001856146ff565b63ffffffff1663ffffffff16815260200190815260200160002060010190506000805b825481101561199557600083828154811061195e5761195e61475d565b906000526020600020015490506119758142612f18565b61197f908461480c565b925050808061198d90614824565b915050611941565b50949350505050565b600654600160a01b900460ff166001146119b757600080fd5b6006805460ff60a01b1916600160a11b1790556119d433836127c3565b6119e0576119e0614773565b60008281526010602090815260409182902082518084019093528054600f0b8352600101549082015281611a1657611a16614773565b60008160000151600f0b13611a665760405162461bcd60e51b8152602060048201526016602482015275139bc8195e1a5cdd1a5b99c81b1bd8dac8199bdd5b9960521b6044820152606401610f73565b42816020015111611a895760405162461bcd60e51b8152600401610f739061485c565b611a9883836000846002613616565b50506006805460ff60a01b1916600160a01b17905550565b336001600160a01b03831603611ac857611ac8614773565b336000818152600a602090815260408083206001600160a01b03871680855290835292819020805460ff191686151590811790915590519081529192917f17307eab39ab6107e8899845ad3d59bd9653f200f220920489ca2b5937696c31910160405180910390a35050565b600654600160a01b900460ff16600114611b4d57600080fd5b6006805460ff60a01b1916600160a11b179055611b6a33836127c3565b611b7657611b76614773565b600082815260106020908152604080832081518083019092528054600f0b825260010154918101919091529062093a8080611bb1854261480c565b611bbb91906147ab565b611bc5919061483d565b905042826020015111611c095760405162461bcd60e51b815260206004820152600c60248201526b131bd8dac8195e1c1a5c995960a21b6044820152606401610f73565b60008260000151600f0b13611c545760405162461bcd60e51b8152602060048201526011602482015270139bdd1a1a5b99c81a5cc81b1bd8dad959607a1b6044820152606401610f73565b81602001518111611ca75760405162461bcd60e51b815260206004820152601f60248201527f43616e206f6e6c7920696e637265617365206c6f636b206475726174696f6e006044820152606401610f73565b611cb56305a39a804261480c565b811115611d045760405162461bcd60e51b815260206004820152601e60248201527f566f74696e67206c6f636b2063616e2062652034207965617273206d617800006044820152606401610f73565b611d1384600083856003613616565b50506006805460ff60a01b1916600160a01b1790555050565b611d38848484336126e2565b823b15611ec557604051630a85bd0160e11b81526001600160a01b0384169063150b7a0290611d719033908890879087906004016148a0565b6020604051808303816000875af1925050508015611dac575060408051601f3d908101601f19168201909252611da9918101906148d3565b60015b611e54573d808015611dda576040519150601f19603f3d011682016040523d82523d6000602084013e611ddf565b606091505b508051600003611e4c5760405162461bcd60e51b815260206004820152603260248201527f4552433732313a207472616e7366657220746f206e6f6e20455243373231526560448201527131b2b4bb32b91034b6b83632b6b2b73a32b960711b6064820152608401610f73565b805181602001fd5b6001600160e01b03198116630a85bd0160e11b14611ec35760405162461bcd60e51b815260206004820152602660248201527f4552433732313a2045524337323152656365697665722072656a656374656420604482015265746f6b656e7360d01b6064820152608401610f73565b505b50505050565b6000546001600160a01b03163314611ee257600080fd5b6000908152601560205260409020805460ff19169055565b611f38600060405180604001604052806000600f0b8152602001600081525060405180604001604052806000600f0b81526020016000815250612829565b565b604080518082018252600b81526a109151521255914813919560aa1b6020918201528151808301835260058152640312e302e360dc1b9082015281517f8cad95687ba82c2ce50e74f7b754645e5117c3a5bec8151c0726d5857980a866818301527f47394e47466c445cc474bf81869fa8f731cb4ca3bd9dc93bb1193ea40a83c49b818401527f06c015bd22b4c69690933c1058878ebdfef31f9aaae40bbe86d8a09fe1b2972c60608201524660808201523060a0808301919091528351808303909101815260c0820184528051908301207fe48329057bfd03d55e49b547132e39cffd9c1820ad7b9d4c5307691425d15adf60e08301526001600160a01b038a1661010083015261012082018990526101408083018990528451808403909101815261016083019094528351939092019290922061190160f01b61018084015261018283018290526101a2830181905290916000906101c20160408051601f198184030181528282528051602091820120600080855291840180845281905260ff8a169284019290925260608301889052608083018790529092509060019060a0016020604051602081039080840390855afa1580156120ff573d6000803e3d6000fd5b5050604051601f1901519150506001600160a01b03811661217a5760405162461bcd60e51b815260206004820152602f60248201527f42656568697665457363726f773a3a64656c656761746542795369673a20696e60448201526e76616c6964207369676e617475726560881b6064820152608401610f73565b6001600160a01b038116600090815260196020526040812080549161219e83614824565b9190505589146122045760405162461bcd60e51b815260206004820152602b60248201527f42656568697665457363726f773a3a64656c656761746542795369673a20696e60448201526a76616c6964206e6f6e636560a81b6064820152608401610f73565b8742111561226c5760405162461bcd60e51b815260206004820152602f60248201527f42656568697665457363726f773a3a64656c656761746542795369673a20736960448201526e19db985d1d5c9948195e1c1a5c9959608a1b6064820152608401610f73565b612276818b612fec565b505050505b505050505050565b6000818152600760205260409020546060906001600160a01b03166122ea5760405162461bcd60e51b815260206004820152601b60248201527f517565727920666f72206e6f6e6578697374656e7420746f6b656e00000000006044820152606401610f73565b60008281526010602090815260409182902082518084019093528054600f0b835260010154908201526002546001600160a01b031663dd9ec1498461232f8142612f18565b6020850151855160405160e086901b6001600160e01b0319168152600481019490945260248401929092526044830152600f0b6064820152608401600060405180830381865afa158015612387573d6000803e3d6000fd5b505050506040513d6000823e601f3d908101601f191682016040526114f191908101906148f0565b6000828152601460205260409020541580156123da575060008281526015602052604090205460ff16155b6123f65760405162461bcd60e51b8152600401610f7390614789565b80820361240257600080fd5b61240c33836127c3565b61241557600080fd5b61241f33826127c3565b61242857600080fd5b6000828152601060208181526040808420815180830183528154600f90810b825260019283015482860190815288885295855283872084518086019095528054820b855290920154938301849052805194519095929490910b921115612492578260200151612498565b83602001515b604080518082018252600080825260208083018281528b835260108252848320935184546001600160801b0319166001600160801b03909116178455516001909301929092558251808401909352808352908201529091506124fd9087908690612829565b61250686612e45565b61227b858383866004613616565b600654600090600160a01b900460ff1660011461253057600080fd5b6006805460ff60a01b1916600160a11b17905561254e84848461305f565b90506006805460ff60a01b1916600160a01b1790559392505050565b60006114f18383612f18565b6000818152600b602052604081205443900361259457506000919050565b610d298242612f18565b600654600160a01b900460ff166001146125b757600080fd5b6006805460ff60a01b1916600160a11b17905560008281526010602090815260409182902082518084019093528054600f0b83526001015490820152816125fd57600080fd5b60008160000151600f0b1361264d5760405162461bcd60e51b8152602060048201526016602482015275139bc8195e1a5cdd1a5b99c81b1bd8dac8199bdd5b9960521b6044820152606401610f73565b428160200151116126705760405162461bcd60e51b8152600401610f739061485c565b611a9883836000846000613616565b6000546001600160a01b0316331461269657600080fd5b6000818152601460205260409020546118b990600161480c565b6000546001600160a01b031633146126c757600080fd5b6000908152601560205260409020805460ff19166001179055565b60008281526014602052604090205415801561270d575060008281526015602052604090205460ff16155b6127295760405162461bcd60e51b8152600401610f7390614789565b61273381836127c3565b61273c57600080fd5b612746848361381b565b61275084836138ae565b61276b61275c85611574565b61276585611574565b8461395b565b6127758383613cbd565b6000828152600b60205260408082204390555183916001600160a01b0380871692908816917fddf252ad1be2c89b69c2b068fc378daa952ba7f163c4a11628f55a4df523b3ef91a450505050565b60008181526007602090815260408083205460098352818420546001600160a01b03918216808652600a855283862088841680885295529285205492938085149392909116149060ff1682806128165750815b8061281e5750805b979650505050505050565b6040805160808101825260008082526020820181905291810182905260608101919091526040805160808101825260008082526020820181905291810182905260608101919091526011546000908190871561299457428760200151118015612899575060008760000151600f0b135b156128de5786516128af906305a39a809061495e565b600f0b6020808701919091528701516128c99042906147bf565b85602001516128d8919061499c565b600f0b85525b4286602001511180156128f8575060008660000151600f0b135b1561293d57855161290e906305a39a809061495e565b600f0b6020808601919091528601516129289042906147bf565b8460200151612937919061499c565b600f0b84525b602080880151600090815260128252604090205490870151600f9190910b93501561299457866020015186602001510361297957829150612994565b602080870151600090815260129091526040902054600f0b91505b604080516080810182526000808252602082015242918101919091524360608201528115612a09575060008181526003602090815260409182902082516080810184528154600f81810b8352600160801b909104900b9281019290925260018101549282019290925260029091015460608201525b604081015181600042831015612a56576040840151612a2890426147bf565b6060850151612a3790436147bf565b612a4990670de0b6b3a764000061483d565b612a5391906147ab565b90505b600062093a80612a6681866147ab565b612a70919061483d565b905060005b60ff811015612bea57612a8b62093a808361480c565b9150600042831115612a9f57429250612ab3565b50600082815260126020526040902054600f0b5b612abd86846147bf565b8760200151612acc919061499c565b87518890612adb908390614a31565b600f0b905250602087018051829190612af5908390614a81565b600f90810b90915288516000910b12159050612b1057600087525b60008760200151600f0b1215612b2857600060208801525b60408088018490528501519295508592670de0b6b3a764000090612b4c90856147bf565b612b56908661483d565b612b6091906147ab565b8560600151612b6f919061480c565b6060880152612b7f60018961480c565b9750428303612b945750436060870152612bea565b6000888152600360209081526040918290208951918a01516001600160801b03908116600160801b029216919091178155908801516001820155606088015160029091015550612be381614824565b9050612a75565b505060118590558b15612c755788602001518860200151612c0b9190614a31565b84602001818151612c1c9190614a81565b600f0b90525088518851612c309190614a31565b84518590612c3f908390614a81565b600f90810b90915260208601516000910b12159050612c6057600060208501525b60008460000151600f0b1215612c7557600084525b6000858152600360209081526040918290208651918701516001600160801b03908116600160801b02921691909117815590850151600182015560608501516002909101558b15612e3757428b602001511115612d2c576020890151612cdb9088614a81565b96508a602001518a6020015103612cfe576020880151612cfb9088614a31565b96505b60208b810151600090815260129091526040902080546001600160801b0319166001600160801b0389161790555b428a602001511115612d87578a602001518a602001511115612d87576020880151612d579087614a31565b60208b810151600090815260129091526040902080546001600160801b0319166001600160801b03831617905595505b60008c8152600e6020526040812054612da190600161480c565b905080600e60008f815260200190815260200160002081905550428960400181815250504389606001818152505088600f60008f815260200190815260200160002082633b9aca008110612df757612df761475d565b825160208401516001600160801b03908116600160801b029116176003919091029190910190815560408201516001820155606090910151600290910155505b505050505050505050505050565b612e4f33826127c3565b612e9b5760405162461bcd60e51b815260206004820181905260248201527f63616c6c6572206973206e6f74206f776e6572206e6f7220617070726f7665646044820152606401610f73565b6000818152600760205260408120546001600160a01b031690612ebe9083610d68565b612ed2612eca82611574565b60008461395b565b612edc33836138ae565b60405182906000906001600160a01b038416907fddf252ad1be2c89b69c2b068fc378daa952ba7f163c4a11628f55a4df523b3ef908390a45050565b6000828152600e6020526040812054808203612f38576000915050610d29565b6000848152600f6020526040812082633b9aca008110612f5a57612f5a61475d565b60408051608081018252600392909202929092018054600f81810b8452600160801b909104900b602083015260018101549282018390526002015460608201529150612fa69085614ad0565b8160200151612fb5919061499c565b81518290612fc4908390614a31565b600f90810b90915282516000910b12159050612fdf57600081525b51600f0b9150610d299050565b6000612ff783611574565b6001600160a01b0384811660008181526016602052604080822080546001600160a01b031916888616908117909155905194955093928516927f3134e8a2e6d97e929a7e54011ea5485d7d196dd5f0ba4d4ef95803e8e3fc257f9190a4610ee5838284613d83565b60008062093a8080613071864261480c565b61307b91906147ab565b613085919061483d565b90506000851161309457600080fd5b4281116130f25760405162461bcd60e51b815260206004820152602660248201527f43616e206f6e6c79206c6f636b20756e74696c2074696d6520696e207468652060448201526566757475726560d01b6064820152608401610f73565b6131006305a39a804261480c565b81111561314f5760405162461bcd60e51b815260206004820152601e60248201527f566f74696e67206c6f636b2063616e2062652034207965617273206d617800006044820152606401610f73565b60056000815461315e90614824565b9091555060055461316f848261413f565b5060008181526010602090815260409182902082518084019093528054600f0b8352600190810154918301919091526131ad91839189918691613616565b95945050505050565b600080839050600062093a808083604001516131d291906147ab565b6131dc919061483d565b905060005b60ff81101561328f576131f762093a808361480c565b915060008583111561320b5785925061321f565b50600082815260126020526040902054600f0b5b604084015161322e90846147bf565b846020015161323d919061499c565b8451859061324c908390614a31565b600f0b90525085830361325f575061328f565b80846020018181516132719190614a81565b600f0b905250506040830182905261328881614824565b90506131e1565b5060008260000151600f0b12156132a557600082525b50516001600160801b03169392505050565b6000438211156132c9576132c9614773565b6000838152600e6020526040812054815b6080811015613369578183101561336957600060026132f9848661480c565b61330490600161480c565b61330e91906147ab565b6000888152600f60205260409020909150869082633b9aca0081106133355761333561475d565b60030201600201541161334a57809350613358565b6133556001826147bf565b92505b5061336281614824565b90506132da565b506000858152600f6020526040812083633b9aca00811061338c5761338c61475d565b60408051608081018252600392909202929092018054600f81810b8452600160801b909104900b6020830152600181015492820192909252600290910154606082015260115490915060006133e18783613590565b600081815260036020908152604080832081516080810183528154600f81810b8352600160801b909104900b9381019390935260018101549183019190915260020154606082015291925080848410156134c057600060038161344587600161480c565b8152602080820192909252604090810160002081516080810183528154600f81810b8352600160801b909104900b938101939093526001810154918301919091526002015460608083018290528601519192506134a291906147bf565b9250836040015181604001516134b891906147bf565b9150506134e4565b60608301516134cf90436147bf565b91508260400151426134e191906147bf565b90505b60408301518215613521578284606001518c61350091906147bf565b61350a908461483d565b61351491906147ab565b61351e908261480c565b90505b604087015161353090826147bf565b876020015161353f919061499c565b8751889061354e908390614a31565b600f90810b90915288516000910b12905061357e57505093516001600160801b03169650610d2995505050505050565b60009950505050505050505050610d29565b60008082815b608081101561360c578183101561360c57600060026135b5848661480c565b6135c090600161480c565b6135ca91906147ab565b60008181526003602052604090206002015490915087106135ed578093506135fb565b6135f86001826147bf565b92505b5061360581614824565b9050613596565b5090949350505050565b6013548290613625868261480c565b6013556040805180820190915260008082526020820152825160208085015190830152600f0b815282518790849061365e908390614a81565b600f0b905250851561367257602083018690525b6000888152601060209081526040909120845181546001600160801b0319166001600160801b03909116178155908401516001909101556136b4888285612829565b3387158015906136d6575060048560048111156136d3576136d3614b0f565b14155b15613780576040516323b872dd60e01b81526001600160a01b038281166004830152306024830152604482018a90527f000000000000000000000000000000000000000000000000000000000000000016906323b872dd906064016020604051808303816000875af1158015613750573d6000803e3d6000fd5b505050506040513d601f19601f8201168201806040525081019061377491906147ef565b61378057613780614773565b8360200151816001600160a01b03167fff04ccafc360e16b67d682d17bd9503c4c6b9a131f6be6325762dc9ffc7de6248b8b89426040516137c49493929190614b25565b60405180910390a37f5e2aa66efd74cce82b21852e317e5490d9ecc9e6bb953ae24d90851258cc2f5c836137f88a8261480c565b6040805192835260208301919091520160405180910390a1505050505050505050565b6000818152600760205260409020546001600160a01b038381169116146138705760405162461bcd60e51b81526020600482015260096024820152683737ba1037bbb732b960b91b6044820152606401610f73565b6000818152600960205260409020546001600160a01b0316156138aa57600081815260096020526040902080546001600160a01b03191690555b5050565b6000818152600760205260409020546001600160a01b038381169116146139035760405162461bcd60e51b81526020600482015260096024820152683737ba1037bbb732b960b91b6044820152606401610f73565b600081815260076020526040902080546001600160a01b031916905561392982826141df565b6001600160a01b03821660009081526008602052604081208054600192906139529084906147bf565b90915550505050565b816001600160a01b0316836001600160a01b03161415801561397d5750600081115b15610ee5576001600160a01b03831615613afe576001600160a01b03831660009081526018602052604081205463ffffffff1690816139e1576001600160a01b03851660009081526017602090815260408083208380529091529020600101613a23565b6001600160a01b038516600090815260176020526040812090613a056001856146ff565b63ffffffff1663ffffffff1681526020019081526020016000206001015b90506000613a308661429e565b6001600160a01b038716600090815260176020908152604080832063ffffffff8516845290915281209192506001909101905b8354811015613abd576000848281548110613a8057613a8061475d565b90600052602060002001549050868114613aaa578254600181018455600084815260209020018190555b5080613ab581614824565b915050613a63565b50613ac9846001614b63565b6001600160a01b0388166000908152601860205260409020805463ffffffff191663ffffffff92909216919091179055505050505b6001600160a01b03821615610ee5576001600160a01b03821660009081526018602052604081205463ffffffff169081613b5d576001600160a01b03841660009081526017602090815260408083208380529091529020600101613b9f565b6001600160a01b038416600090815260176020526040812090613b816001856146ff565b63ffffffff1663ffffffff1681526020019081526020016000206001015b90506000613bac8561429e565b6001600160a01b038616600090815260176020908152604080832063ffffffff851684529091529020835491925060019081019161040091613bee919061480c565b1115613c0c5760405162461bcd60e51b8152600401610f7390614b8b565b60005b8354811015613c5e576000848281548110613c2c57613c2c61475d565b600091825260208083209091015485546001810187558684529190922001555080613c5681614824565b915050613c0f565b50805460018181018355600083815260209020909101869055613c82908590614b63565b6001600160a01b0387166000908152601860205260409020805463ffffffff9290921663ffffffff1990921691909117905550505050505050565b6000818152600760205260409020546001600160a01b031615613d125760405162461bcd60e51b815260206004820152600d60248201526c185b1c9958591e481bdddb9959609a1b6044820152606401610f73565b600081815260076020908152604080832080546001600160a01b0319166001600160a01b03871690811790915580845260088084528285208054600c86528487208188528652848720889055878752600d86529386209390935590845290915280546001929061395290849061480c565b806001600160a01b0316826001600160a01b031614610ee5576001600160a01b03821615613f36576001600160a01b03821660009081526018602052604081205463ffffffff169081613dfb576001600160a01b03841660009081526017602090815260408083208380529091529020600101613e3d565b6001600160a01b038416600090815260176020526040812090613e1f6001856146ff565b63ffffffff1663ffffffff1681526020019081526020016000206001015b90506000613e4a8561429e565b6001600160a01b038616600090815260176020908152604080832063ffffffff8516845290915281209192506001909101905b8354811015613ef5576000848281548110613e9a57613e9a61475d565b600091825260208083209091015480835260079091526040909120549091506001600160a01b03908116908a1614613ee2578254600181018455600084815260209020018190555b5080613eed81614824565b915050613e7d565b50613f01846001614b63565b6001600160a01b0387166000908152601860205260409020805463ffffffff191663ffffffff92909216919091179055505050505b6001600160a01b03811615610ee5576001600160a01b03811660009081526018602052604081205463ffffffff169081613f95576001600160a01b03831660009081526017602090815260408083208380529091529020600101613fd7565b6001600160a01b038316600090815260176020526040812090613fb96001856146ff565b63ffffffff1663ffffffff1681526020019081526020016000206001015b90506000613fe48461429e565b6001600160a01b03808616600090815260176020908152604080832063ffffffff861684528252808320938b168352600890915290205484549293506001909101916104009061403590839061480c565b11156140535760405162461bcd60e51b8152600401610f7390614b8b565b60005b84548110156140a55760008582815481106140735761407361475d565b60009182526020808320909101548654600181018855878452919092200155508061409d81614824565b915050614056565b5060005b818110156140f7576001600160a01b0389166000908152600c6020908152604080832084845282528220548554600181018755868452919092200155806140ef81614824565b9150506140a9565b50614103856001614b63565b6001600160a01b0387166000908152601860205260409020805463ffffffff9290921663ffffffff199092169190911790555050505050505050565b60006001600160a01b0383166141865760405162461bcd60e51b815260206004820152600c60248201526b7a65726f206164647265737360a01b6044820152606401610f73565b614194600061276585611574565b61419e8383613cbd565b60405182906001600160a01b038516906000907fddf252ad1be2c89b69c2b068fc378daa952ba7f163c4a11628f55a4df523b3ef908290a450600192915050565b6001600160a01b038216600090815260086020526040812054614204906001906147bf565b6000838152600d6020526040902054909150808203614253576001600160a01b0384166000908152600c602090815260408083208584528252808320839055858352600d909152812055611ec5565b6001600160a01b03939093166000908152600c6020908152604080832093835292815282822080548684528484208190558352600d9091528282209490945592839055908252812055565b6001600160a01b038116600090815260186020526040812054429063ffffffff16801580159061430757506001600160a01b038416600090815260176020526040812083916142ee6001856146ff565b63ffffffff168152602081019190915260400160002054145b156114f15761168d6001826146ff565b6001600160e01b0319811681146115bf57600080fd5b60006020828403121561433f57600080fd5b81356114f181614317565b60005b8381101561436557818101518382015260200161434d565b83811115611ec55750506000910152565b6000815180845261438e81602086016020860161434a565b601f01601f19169290920160200192915050565b6020815260006114f16020830184614376565b80356001600160a01b03811681146143cc57600080fd5b919050565b600080604083850312156143e457600080fd5b6143ed836143b5565b946020939093013593505050565b60006020828403121561440d57600080fd5b5035919050565b60006020828403121561442657600080fd5b6114f1826143b5565b6000806040838503121561444257600080fd5b50508035926020909101359150565b60008060006060848603121561446657600080fd5b61446f846143b5565b925061447d602085016143b5565b9150604084013590509250925092565b80151581146115bf57600080fd5b600080604083850312156144ae57600080fd5b6144b7836143b5565b915060208301356144c78161448d565b809150509250929050565b634e487b7160e01b600052604160045260246000fd5b604051601f8201601f1916810167ffffffffffffffff81118282101715614511576145116144d2565b604052919050565b600067ffffffffffffffff821115614533576145336144d2565b50601f01601f191660200190565b6000806000806080858703121561455757600080fd5b614560856143b5565b935061456e602086016143b5565b925060408501359150606085013567ffffffffffffffff81111561459157600080fd5b8501601f810187136145a257600080fd5b80356145b56145b082614519565b6144e8565b8181528860208385010111156145ca57600080fd5b8160208401602083013760006020838301015280935050505092959194509250565b60008060008060008060c0878903121561460557600080fd5b61460e876143b5565b95506020870135945060408701359350606087013560ff8116811461463257600080fd5b9598949750929560808101359460a0909101359350915050565b60008060006060848603121561466157600080fd5b8335925060208401359150614678604085016143b5565b90509250925092565b6000806040838503121561469457600080fd5b61469d836143b5565b91506146ab602084016143b5565b90509250929050565b600080604083850312156146c757600080fd5b6146d0836143b5565b9150602083013563ffffffff811681146144c757600080fd5b634e487b7160e01b600052601160045260246000fd5b600063ffffffff8381169083168181101561471c5761471c6146e9565b039392505050565b634e487b7160e01b600052601260045260246000fd5b600063ffffffff8084168061475157614751614724565b92169190910492915050565b634e487b7160e01b600052603260045260246000fd5b634e487b7160e01b600052600160045260246000fd5b602080825260089082015267185d1d1858da195960c21b604082015260600190565b6000826147ba576147ba614724565b500490565b6000828210156147d1576147d16146e9565b500390565b6000602082840312156147e857600080fd5b5051919050565b60006020828403121561480157600080fd5b81516114f18161448d565b6000821982111561481f5761481f6146e9565b500190565b600060018201614836576148366146e9565b5060010190565b6000816000190483118215151615614857576148576146e9565b500290565b60208082526024908201527f43616e6e6f742061646420746f2065787069726564206c6f636b2e20576974686040820152636472617760e01b606082015260800190565b6001600160a01b038581168252841660208201526040810183905260806060820181905260009061187d90830184614376565b6000602082840312156148e557600080fd5b81516114f181614317565b60006020828403121561490257600080fd5b815167ffffffffffffffff81111561491957600080fd5b8201601f8101841361492a57600080fd5b80516149386145b082614519565b81815285602083850101111561494d57600080fd5b6131ad82602083016020860161434a565b600081600f0b83600f0b8061497557614975614724565b60016001607f1b0319821460001982141615614993576149936146e9565b90059392505050565b600081600f0b83600f0b60016001607f1b036000821360008413838304851182821616156149cc576149cc6146e9565b60016001607f1b031960008512828116878305871216156149ef576149ef6146e9565b60008712925085820587128484161615614a0b57614a0b6146e9565b85850587128184161615614a2157614a216146e9565b5050509290910295945050505050565b600081600f0b83600f0b600081128160016001607f1b031901831281151615614a5c57614a5c6146e9565b8160016001607f1b03018313811615614a7757614a776146e9565b5090039392505050565b600081600f0b83600f0b600082128260016001607f1b0303821381151615614aab57614aab6146e9565b8260016001607f1b0319038212811615614ac757614ac76146e9565b50019392505050565b60008083128015600160ff1b850184121615614aee57614aee6146e9565b6001600160ff1b0384018313811615614b0957614b096146e9565b50500390565b634e487b7160e01b600052602160045260246000fd5b848152602081018490526080810160058410614b5157634e487b7160e01b600052602160045260246000fd5b60408201939093526060015292915050565b600063ffffffff808316818516808303821115614b8257614b826146e9565b01949350505050565b60208082526023908201527f64737452657020776f756c64206861766520746f6f206d616e7920746f6b656e60408201526249647360e81b60608201526080019056fea26469706673582212207231345149740461a95d2195dd38b343e529166391ffdc7c0cf99ae775db8c0b64736f6c634300080d0033ddf252ad1be2c89b69c2b068fc378daa952ba7f163c4a11628f55a4df523b3ef","linkReferences":{}},"methodIdentifiers":{"DELEGATION_TYPEHASH()":"e7a324dc","DOMAIN_TYPEHASH()":"20606b70","MAX_DELEGATES()":"5f5b0c32","abstain(uint256)":"c1f0fb9f","approve(address,uint256)":"095ea7b3","artProxy()":"5594a045","attach(uint256)":"fbd3a29d","attachments(uint256)":"0d6a2033","balanceOf(address)":"70a08231","balanceOfAtNFT(uint256,uint256)":"8c2c9baf","balanceOfNFT(uint256)":"e7e242d4","balanceOfNFTAt(uint256,uint256)":"e0514aba","beehive()":"3395df25","block_number()":"25a58b56","checkpoint()":"c2c4c5c1","checkpoints(address,uint32)":"f1127ed8","create_lock(uint256,uint256)":"65fc3873","create_lock_for(uint256,uint256,address)":"d4e54c3b","decimals()":"313ce567","delegate(address)":"5c19a95c","delegateBySig(address,uint256,uint256,uint8,bytes32,bytes32)":"c3cda520","delegates(address)":"587cde1e","deposit_for(uint256,uint256)":"ee99fe28","detach(uint256)":"986b7d8a","epoch()":"900cf0cf","getApproved(uint256)":"081812fc","getPastTotalSupply(uint256)":"8e539e8c","getPastVotes(address,uint256)":"3a46b1a8","getPastVotesIndex(address,uint256)":"0758c7d8","getVotes(address)":"9ab24eb0","get_last_user_slope(uint256)":"461f711c","increase_amount(uint256,uint256)":"a183af52","increase_unlock_time(uint256,uint256)":"a4d855df","isApprovedForAll(address,address)":"e985e9c5","isApprovedOrOwner(address,uint256)":"430c2081","locked(uint256)":"b45a3c0e","locked__end(uint256)":"f8a05763","merge(uint256,uint256)":"d1c2babb","name()":"06fdde03","nonces(address)":"7ecebe00","numCheckpoints(address)":"6fcfff45","ownerOf(uint256)":"6352211e","ownership_change(uint256)":"6f548837","point_history(uint256)":"d1febfb9","safeTransferFrom(address,address,uint256)":"42842e0e","safeTransferFrom(address,address,uint256,bytes)":"b88d4fde","setApprovalForAll(address,bool)":"a22cb465","setArtProxy(address)":"2e720f7d","setBeehive(address)":"72626a08","setTeam(address)":"095cf5c6","setVoter(address)":"4bc2a657","slope_changes(uint256)":"71197484","supply()":"047fc9aa","supportsInterface(bytes4)":"01ffc9a7","symbol()":"95d89b41","team()":"85f2aef2","token()":"fc0c546a","tokenOfOwnerByIndex(address,uint256)":"2f745c59","tokenURI(uint256)":"c87b56dd","totalSupply()":"18160ddd","totalSupplyAt(uint256)":"981b24d0","totalSupplyAtT(uint256)":"7116c60c","transferFrom(address,address,uint256)":"23b872dd","user_point_epoch(uint256)":"e441135c","user_point_history(uint256,uint256)":"1376f3da","user_point_history__ts(uint256,uint256)":"1c984bc3","version()":"54fd4d50","voted(uint256)":"8fbb38ff","voter()":"46c96aac","voting(uint256)":"fd4a77f1","withdraw(uint256)":"2e1a7d4d"},"id":1}