{"abi":[{"type":"constructor","inputs":[{"name":"name_","type":"string","internalType":"string"},{"name":"symbol_","type":"string","internalType":"string"}],"stateMutability":"nonpayable"},{"type":"function","name":"approve","inputs":[{"name":"to","type":"address","internalType":"address"},{"name":"tokenId","type":"uint256","internalType":"uint256"}],"outputs":[],"stateMutability":"nonpayable"},{"type":"function","name":"balanceOf","inputs":[{"name":"owner","type":"address","internalType":"address"}],"outputs":[{"name":"","type":"uint256","internalType":"uint256"}],"stateMutability":"view"},{"type":"function","name":"burn","inputs":[{"name":"tokenId","type":"uint256","internalType":"uint256"}],"outputs":[],"stateMutability":"nonpayable"},{"type":"function","name":"getApproved","inputs":[{"name":"tokenId","type":"uint256","internalType":"uint256"}],"outputs":[{"name":"","type":"address","internalType":"address"}],"stateMutability":"view"},{"type":"function","name":"isApprovedForAll","inputs":[{"name":"owner","type":"address","internalType":"address"},{"name":"operator","type":"address","internalType":"address"}],"outputs":[{"name":"","type":"bool","internalType":"bool"}],"stateMutability":"view"},{"type":"function","name":"mint","inputs":[{"name":"to","type":"address","internalType":"address"},{"name":"tokenId","type":"uint256","internalType":"uint256"}],"outputs":[],"stateMutability":"nonpayable"},{"type":"function","name":"name","inputs":[],"outputs":[{"name":"","type":"string","internalType":"string"}],"stateMutability":"view"},{"type":"function","name":"owner","inputs":[],"outputs":[{"name":"","type":"address","internalType":"address"}],"stateMutability":"view"},{"type":"function","name":"ownerOf","inputs":[{"name":"tokenId","type":"uint256","internalType":"uint256"}],"outputs":[{"name":"","type":"address","internalType":"address"}],"stateMutability":"view"},{"type":"function","name":"peers","inputs":[{"name":"","type":"uint256","internalType":"uint256"}],"outputs":[{"name":"","type":"address","internalType":"address"}],"stateMutability":"view"},{"type":"function","name":"quote","inputs":[{"name":"dstChainId","type":"uint256","internalType":"uint256"},{"name":"payload","type":"bytes","internalType":"bytes"},{"name":"options","type":"bytes","internalType":"bytes"}],"outputs":[{"name":"","type":"uint256","internalType":"uint256"}],"stateMutability":"pure"},{"type":"function","name":"renounceOwnership","inputs":[],"outputs":[],"stateMutability":"nonpayable"},{"type":"function","name":"safeTransferFrom","inputs":[{"name":"from","type":"address","internalType":"address"},{"name":"to","type":"address","internalType":"address"},{"name":"tokenId","type":"uint256","internalType":"uint256"}],"outputs":[],"stateMutability":"nonpayable"},{"type":"function","name":"safeTransferFrom","inputs":[{"name":"from","type":"address","internalType":"address"},{"name":"to","type":"address","internalType":"address"},{"name":"tokenId","type":"uint256","internalType":"uint256"},{"name":"data","type":"bytes","internalType":"bytes"}],"outputs":[],"stateMutability":"nonpayable"},{"type":"function","name":"send","inputs":[{"name":"dstChainId","type":"uint256","internalType":"uint256"},{"name":"to","type":"address","internalType":"address"},{"name":"tokenId","type":"uint256","internalType":"uint256"},{"name":"options","type":"bytes","internalType":"bytes"}],"outputs":[],"stateMutability":"payable"},{"type":"function","name":"setApprovalForAll","inputs":[{"name":"operator","type":"address","internalType":"address"},{"name":"approved","type":"bool","internalType":"bool"}],"outputs":[],"stateMutability":"nonpayable"},{"type":"function","name":"setPeer","inputs":[{"name":"chainId","type":"uint256","internalType":"uint256"},{"name":"peer","type":"address","internalType":"address"}],"outputs":[],"stateMutability":"nonpayable"},{"type":"function","name":"supportsInterface","inputs":[{"name":"interfaceId","type":"bytes4","internalType":"bytes4"}],"outputs":[{"name":"","type":"bool","internalType":"bool"}],"stateMutability":"view"},{"type":"function","name":"symbol","inputs":[],"outputs":[{"name":"","type":"string","internalType":"string"}],"stateMutability":"view"},{"type":"function","name":"tokenURI","inputs":[{"name":"tokenId","type":"uint256","internalType":"uint256"}],"outputs":[{"name":"","type":"string","internalType":"string"}],"stateMutability":"view"},{"type":"function","name":"transferFrom","inputs":[{"name":"from","type":"address","internalType":"address"},{"name":"to","type":"address","internalType":"address"},{"name":"tokenId","type":"uint256","internalType":"uint256"}],"outputs":[],"stateMutability":"nonpayable"},{"type":"function","name":"transferOwnership","inputs":[{"name":"newOwner","type":"address","internalType":"address"}],"outputs":[],"stateMutability":"nonpayable"},{"type":"event","name":"Approval","inputs":[{"name":"owner","type":"address","indexed":true,"internalType":"address"},{"name":"approved","type":"address","indexed":true,"internalType":"address"},{"name":"tokenId","type":"uint256","indexed":true,"internalType":"uint256"}],"anonymous":false},{"type":"event","name":"ApprovalForAll","inputs":[{"name":"owner","type":"address","indexed":true,"internalType":"address"},{"name":"operator","type":"address","indexed":true,"internalType":"address"},{"name":"approved","type":"bool","indexed":false,"internalType":"bool"}],"anonymous":false},{"type":"event","name":"OwnershipTransferred","inputs":[{"name":"previousOwner","type":"address","indexed":true,"internalType":"address"},{"name":"newOwner","type":"address","indexed":true,"internalType":"address"}],"anonymous":false},{"type":"event","name":"PeerSet","inputs":[{"name":"chainId","type":"uint256","indexed":false,"internalType":"uint256"},{"name":"peer","type":"address","indexed":false,"internalType":"address"}],"anonymous":false},{"type":"event","name":"Send","inputs":[{"name":"dstChainId","type":"uint256","indexed":false,"internalType":"uint256"},{"name":"to","type":"address","indexed":false,"internalType":"address"},{"name":"tokenId","type":"uint256","indexed":false,"internalType":"uint256"},{"name":"options","type":"bytes","indexed":false,"internalType":"bytes"},{"name":"fee","type":"uint256","indexed":false,"internalType":"uint256"}],"anonymous":false},{"type":"event","name":"Transfer","inputs":[{"name":"from","type":"address","indexed":true,"internalType":"address"},{"name":"to","type":"address","indexed":true,"internalType":"address"},{"name":"tokenId","type":"uint256","indexed":true,"internalType":"uint256"}],"anonymous":false},{"type":"error","name":"ERC721IncorrectOwner","inputs":[{"name":"sender","type":"address","internalType":"address"},{"name":"tokenId","type":"uint256","internalType":"uint256"},{"name":"owner","type":"address","internalType":"address"}]},{"type":"error","name":"ERC721InsufficientApproval","inputs":[{"name":"operator","type":"address","internalType":"address"},{"name":"tokenId","type":"uint256","internalType":"uint256"}]},{"type":"error","name":"ERC721InvalidApprover","inputs":[{"name":"approver","type":"address","internalType":"address"}]},{"type":"error","name":"ERC721InvalidOperator","inputs":[{"name":"operator","type":"address","internalType":"address"}]},{"type":"error","name":"ERC721InvalidOwner","inputs":[{"name":"owner","type":"address","internalType":"address"}]},{"type":"error","name":"ERC721InvalidReceiver","inputs":[{"name":"receiver","type":"address","internalType":"address"}]},{"type":"error","name":"ERC721InvalidSender","inputs":[{"name":"sender","type":"address","internalType":"address"}]},{"type":"error","name":"ERC721NonexistentToken","inputs":[{"name":"tokenId","type":"uint256","internalType":"uint256"}]},{"type":"error","name":"OwnableInvalidOwner","inputs":[{"name":"owner","type":"address","internalType":"address"}]},{"type":"error","name":"OwnableUnauthorizedAccount","inputs":[{"name":"account","type":"address","internalType":"address"}]}],"bytecode":{"object":"0x608060405234801561000f575f5ffd5b506040516117bd3803806117bd83398101604081905261002e91610178565b3382825f61003c8382610261565b5060016100498282610261565b5050506001600160a01b03811661007957604051631e4fbdf760e01b81525f600482015260240160405180910390fd5b6100828161008a565b50505061031b565b600680546001600160a01b038381166001600160a01b0319831681179093556040519116919082907f8be0079c531659141344cd1fd0a4f28419497f9722a3daafe3b4186f6b6457e0905f90a35050565b634e487b7160e01b5f52604160045260245ffd5b5f82601f8301126100fe575f5ffd5b81516001600160401b03811115610117576101176100db565b604051601f8201601f19908116603f011681016001600160401b0381118282101715610145576101456100db565b60405281815283820160200185101561015c575f5ffd5b8160208501602083015e5f918101602001919091529392505050565b5f5f60408385031215610189575f5ffd5b82516001600160401b0381111561019e575f5ffd5b6101aa858286016100ef565b602085015190935090506001600160401b038111156101c7575f5ffd5b6101d3858286016100ef565b9150509250929050565b600181811c908216806101f157607f821691505b60208210810361020f57634e487b7160e01b5f52602260045260245ffd5b50919050565b601f82111561025c57805f5260205f20601f840160051c8101602085101561023a5750805b601f840160051c820191505b81811015610259575f8155600101610246565b50505b505050565b81516001600160401b0381111561027a5761027a6100db565b61028e8161028884546101dd565b84610215565b6020601f8211600181146102c0575f83156102a95750848201515b5f19600385901b1c1916600184901b178455610259565b5f84815260208120601f198516915b828110156102ef57878501518255602094850194600190920191016102cf565b508482101561030c57868401515f19600387901b60f8161c191681555b50505050600190811b01905550565b611495806103285f395ff3fe608060405260043610610131575f3560e01c8063715018a6116100a8578063b88d4fde1161006d578063b88d4fde14610351578063be4f3e8f14610370578063c87b56dd146103a4578063d611067e146103c3578063e985e9c5146103d6578063f2fde38b146103f5575f5ffd5b8063715018a6146102ce5780638069c497146102e25780638da5cb5b1461030157806395d89b411461031e578063a22cb46514610332575f5ffd5b806336b748a1116100f957806336b748a11461020157806340c10f191461023357806342842e0e1461025257806342966c68146102715780636352211e1461029057806370a08231146102af575f5ffd5b806301ffc9a71461013557806306fdde0314610169578063081812fc1461018a578063095ea7b3146101c157806323b872dd146101e2575b5f5ffd5b348015610140575f5ffd5b5061015461014f366004610fc6565b610414565b60405190151581526020015b60405180910390f35b348015610174575f5ffd5b5061017d610465565b604051610160919061100f565b348015610195575f5ffd5b506101a96101a4366004611021565b6104f4565b6040516001600160a01b039091168152602001610160565b3480156101cc575f5ffd5b506101e06101db366004611053565b61051b565b005b3480156101ed575f5ffd5b506101e06101fc36600461107b565b61052a565b34801561020c575f5ffd5b5061022561021b3660046110fa565b5f95945050505050565b604051908152602001610160565b34801561023e575f5ffd5b506101e061024d366004611053565b6105b8565b34801561025d575f5ffd5b506101e061026c36600461107b565b6105ca565b34801561027c575f5ffd5b506101e061028b366004611021565b6105e9565b34801561029b575f5ffd5b506101a96102aa366004611021565b6105fd565b3480156102ba575f5ffd5b506102256102c9366004611173565b610607565b3480156102d9575f5ffd5b506101e061064c565b3480156102ed575f5ffd5b506101e06102fc36600461118c565b61065f565b34801561030c575f5ffd5b506006546001600160a01b03166101a9565b348015610329575f5ffd5b5061017d6106cc565b34801561033d575f5ffd5b506101e061034c3660046111b6565b6106db565b34801561035c575f5ffd5b506101e061036b366004611203565b6106e6565b34801561037b575f5ffd5b506101a961038a366004611021565b60076020525f90815260409020546001600160a01b031681565b3480156103af575f5ffd5b5061017d6103be366004611021565b6106fe565b6101e06103d13660046112e0565b61076f565b3480156103e1575f5ffd5b506101546103f0366004611326565b610803565b348015610400575f5ffd5b506101e061040f366004611173565b610830565b5f6001600160e01b031982166380ac58cd60e01b148061044457506001600160e01b03198216635b5e139f60e01b145b8061045f57506301ffc9a760e01b6001600160e01b03198316145b92915050565b60605f80546104739061134e565b80601f016020809104026020016040519081016040528092919081815260200182805461049f9061134e565b80156104ea5780601f106104c1576101008083540402835291602001916104ea565b820191905f5260205f20905b8154815290600101906020018083116104cd57829003601f168201915b5050505050905090565b5f6104fe8261086a565b505f828152600460205260409020546001600160a01b031661045f565b6105268282336108a2565b5050565b6001600160a01b03821661055857604051633250574960e11b81525f60048201526024015b60405180910390fd5b5f6105648383336108af565b9050836001600160a01b0316816001600160a01b0316146105b2576040516364283d7b60e01b81526001600160a01b038086166004830152602482018490528216604482015260640161054f565b50505050565b6105c06109a1565b61052682826109ce565b6105e483838360405180602001604052805f8152506106e6565b505050565b6105f16109a1565b6105fa81610a2f565b50565b5f61045f8261086a565b5f6001600160a01b038216610631576040516322718ad960e21b81525f600482015260240161054f565b506001600160a01b03165f9081526003602052604090205490565b6106546109a1565b61065d5f610a67565b565b6106676109a1565b5f8281526007602090815260409182902080546001600160a01b0319166001600160a01b0385169081179091558251858152918201527fcd44d3edde5f7e508840db73b2e39b71d725825fca31c7b3b5f154fe805554db910160405180910390a15050565b6060600180546104739061134e565b610526338383610ab8565b6106f184848461052a565b6105b23385858585610b56565b60606107098261086a565b505f61071f60408051602081019091525f815290565b90505f81511161073d5760405180602001604052805f815250610768565b8061074784610c7e565b60405160200161075892919061139d565b6040516020818303038152906040525b9392505050565b33610779846105fd565b6001600160a01b0316146107bb5760405162461bcd60e51b81526020600482015260096024820152683737ba1037bbb732b960b91b604482015260640161054f565b7f78ec6a8d483dc1b738f97017b8b7a7bb6c3a9509ae8bebf135b97d7353d682f98585858585346040516107f4969594939291906113b1565b60405180910390a15050505050565b6001600160a01b039182165f90815260056020908152604080832093909416825291909152205460ff1690565b6108386109a1565b6001600160a01b03811661086157604051631e4fbdf760e01b81525f600482015260240161054f565b6105fa81610a67565b5f818152600260205260408120546001600160a01b03168061045f57604051637e27328960e01b81526004810184905260240161054f565b6105e48383836001610d0e565b5f828152600260205260408120546001600160a01b03908116908316156108db576108db818486610e12565b6001600160a01b03811615610915576108f65f855f5f610d0e565b6001600160a01b0381165f90815260036020526040902080545f190190555b6001600160a01b03851615610943576001600160a01b0385165f908152600360205260409020805460010190555b5f8481526002602052604080822080546001600160a01b0319166001600160a01b0389811691821790925591518793918516917fddf252ad1be2c89b69c2b068fc378daa952ba7f163c4a11628f55a4df523b3ef91a4949350505050565b6006546001600160a01b0316331461065d5760405163118cdaa760e01b815233600482015260240161054f565b6001600160a01b0382166109f757604051633250574960e11b81525f600482015260240161054f565b5f610a0383835f6108af565b90506001600160a01b038116156105e4576040516339e3563760e11b81525f600482015260240161054f565b5f610a3b5f835f6108af565b90506001600160a01b03811661052657604051637e27328960e01b81526004810183905260240161054f565b600680546001600160a01b038381166001600160a01b0319831681179093556040519116919082907f8be0079c531659141344cd1fd0a4f28419497f9722a3daafe3b4186f6b6457e0905f90a35050565b6001600160a01b038216610aea57604051630b61174360e31b81526001600160a01b038316600482015260240161054f565b6001600160a01b038381165f81815260056020908152604080832094871680845294825291829020805460ff191686151590811790915591519182527f17307eab39ab6107e8899845ad3d59bd9653f200f220920489ca2b5937696c31910160405180910390a3505050565b6001600160a01b0383163b15610c7757604051630a85bd0160e11b81526001600160a01b0384169063150b7a0290610b98908890889087908790600401611408565b6020604051808303815f875af1925050508015610bd2575060408051601f3d908101601f19168201909252610bcf91810190611444565b60015b610c39573d808015610bff576040519150601f19603f3d011682016040523d82523d5f602084013e610c04565b606091505b5080515f03610c3157604051633250574960e11b81526001600160a01b038516600482015260240161054f565b805160208201fd5b6001600160e01b03198116630a85bd0160e11b14610c7557604051633250574960e11b81526001600160a01b038516600482015260240161054f565b505b5050505050565b60605f610c8a83610e76565b60010190505f8167ffffffffffffffff811115610ca957610ca96111ef565b6040519080825280601f01601f191660200182016040528015610cd3576020820181803683370190505b5090508181016020015b5f19016f181899199a1a9b1b9c1cb0b131b232b360811b600a86061a8153600a8504945084610cdd57509392505050565b8080610d2257506001600160a01b03821615155b15610de3575f610d318461086a565b90506001600160a01b03831615801590610d5d5750826001600160a01b0316816001600160a01b031614155b8015610d705750610d6e8184610803565b155b15610d995760405163a9fbf51f60e01b81526001600160a01b038416600482015260240161054f565b8115610de15783856001600160a01b0316826001600160a01b03167f8c5be1e5ebec7d5bd14f71427d1e84f3dd0314c0f7b2291e5b200ac8c7c3b92560405160405180910390a45b505b50505f90815260046020526040902080546001600160a01b0319166001600160a01b0392909216919091179055565b610e1d838383610f4d565b6105e4576001600160a01b038316610e4b57604051637e27328960e01b81526004810182905260240161054f565b60405163177e802f60e01b81526001600160a01b03831660048201526024810182905260440161054f565b5f8072184f03e93ff9f4daa797ed6e38ed64bf6a1f0160401b8310610eb45772184f03e93ff9f4daa797ed6e38ed64bf6a1f0160401b830492506040015b6d04ee2d6d415b85acef81000000008310610ee0576d04ee2d6d415b85acef8100000000830492506020015b662386f26fc100008310610efe57662386f26fc10000830492506010015b6305f5e1008310610f16576305f5e100830492506008015b6127108310610f2a57612710830492506004015b60648310610f3c576064830492506002015b600a831061045f5760010192915050565b5f6001600160a01b03831615801590610fa95750826001600160a01b0316846001600160a01b03161480610f865750610f868484610803565b80610fa957505f828152600460205260409020546001600160a01b038481169116145b949350505050565b6001600160e01b0319811681146105fa575f5ffd5b5f60208284031215610fd6575f5ffd5b813561076881610fb1565b5f81518084528060208401602086015e5f602082860101526020601f19601f83011685010191505092915050565b602081525f6107686020830184610fe1565b5f60208284031215611031575f5ffd5b5035919050565b80356001600160a01b038116811461104e575f5ffd5b919050565b5f5f60408385031215611064575f5ffd5b61106d83611038565b946020939093013593505050565b5f5f5f6060848603121561108d575f5ffd5b61109684611038565b92506110a460208501611038565b929592945050506040919091013590565b5f5f83601f8401126110c5575f5ffd5b50813567ffffffffffffffff8111156110dc575f5ffd5b6020830191508360208285010111156110f3575f5ffd5b9250929050565b5f5f5f5f5f6060868803121561110e575f5ffd5b85359450602086013567ffffffffffffffff81111561112b575f5ffd5b611137888289016110b5565b909550935050604086013567ffffffffffffffff811115611156575f5ffd5b611162888289016110b5565b969995985093965092949392505050565b5f60208284031215611183575f5ffd5b61076882611038565b5f5f6040838503121561119d575f5ffd5b823591506111ad60208401611038565b90509250929050565b5f5f604083850312156111c7575f5ffd5b6111d083611038565b9150602083013580151581146111e4575f5ffd5b809150509250929050565b634e487b7160e01b5f52604160045260245ffd5b5f5f5f5f60808587031215611216575f5ffd5b61121f85611038565b935061122d60208601611038565b925060408501359150606085013567ffffffffffffffff81111561124f575f5ffd5b8501601f8101871361125f575f5ffd5b803567ffffffffffffffff811115611279576112796111ef565b604051601f8201601f19908116603f0116810167ffffffffffffffff811182821017156112a8576112a86111ef565b6040528181528282016020018910156112bf575f5ffd5b816020840160208301375f6020838301015280935050505092959194509250565b5f5f5f5f5f608086880312156112f4575f5ffd5b8535945061130460208701611038565b935060408601359250606086013567ffffffffffffffff811115611156575f5ffd5b5f5f60408385031215611337575f5ffd5b61134083611038565b91506111ad60208401611038565b600181811c9082168061136257607f821691505b60208210810361138057634e487b7160e01b5f52602260045260245ffd5b50919050565b5f81518060208401855e5f93019283525090919050565b5f610fa96113ab8386611386565b84611386565b8681526001600160a01b03861660208201526040810185905260a0606082018190528101839052828460c08301375f60c084830101525f60c0601f19601f8601168301019050826080830152979650505050505050565b6001600160a01b03858116825284166020820152604081018390526080606082018190525f9061143a90830184610fe1565b9695505050505050565b5f60208284031215611454575f5ffd5b815161076881610fb156fea2646970667358221220713446e259d8bee490fb834cec284f8cc9bc5ac71f5ec61d565dff3ff72fe45e64736f6c634300081e0033","linkReferences":{}},"methodIdentifiers":{"approve(address,uint256)":"095ea7b3","balanceOf(address)":"70a08231","burn(uint256)":"42966c68","getApproved(uint256)":"081812fc","isApprovedForAll(address,address)":"e985e9c5","mint(address,uint256)":"40c10f19","name()":"06fdde03","owner()":"8da5cb5b","ownerOf(uint256)":"6352211e","peers(uint256)":"be4f3e8f","quote(uint256,bytes,bytes)":"36b748a1","renounceOwnership()":"715018a6","safeTransferFrom(address,address,uint256)":"42842e0e","safeTransferFrom(address,address,uint256,bytes)":"b88d4fde","send(uint256,address,uint256,bytes)":"d611067e","setApprovalForAll(address,bool)":"a22cb465","setPeer(uint256,address)":"8069c497","supportsInterface(bytes4)":"01ffc9a7","symbol()":"95d89b41","tokenURI(uint256)":"c87b56dd","transferFrom(address,address,uint256)":"23b872dd","transferOwnership(address)":"f2fde38b"},"id":22}