{"abi":[{"type":"constructor","inputs":[{"name":"name_","type":"string","internalType":"string"},{"name":"symbol_","type":"string","internalType":"string"}],"stateMutability":"nonpayable"},{"type":"function","name":"allowance","inputs":[{"name":"owner","type":"address","internalType":"address"},{"name":"spender","type":"address","internalType":"address"}],"outputs":[{"name":"","type":"uint256","internalType":"uint256"}],"stateMutability":"view"},{"type":"function","name":"approve","inputs":[{"name":"spender","type":"address","internalType":"address"},{"name":"value","type":"uint256","internalType":"uint256"}],"outputs":[{"name":"","type":"bool","internalType":"bool"}],"stateMutability":"nonpayable"},{"type":"function","name":"balanceOf","inputs":[{"name":"account","type":"address","internalType":"address"}],"outputs":[{"name":"","type":"uint256","internalType":"uint256"}],"stateMutability":"view"},{"type":"function","name":"decimals","inputs":[],"outputs":[{"name":"","type":"uint8","internalType":"uint8"}],"stateMutability":"view"},{"type":"function","name":"mint","inputs":[{"name":"to","type":"address","internalType":"address"},{"name":"amount","type":"uint256","internalType":"uint256"}],"outputs":[],"stateMutability":"nonpayable"},{"type":"function","name":"name","inputs":[],"outputs":[{"name":"","type":"string","internalType":"string"}],"stateMutability":"view"},{"type":"function","name":"owner","inputs":[],"outputs":[{"name":"","type":"address","internalType":"address"}],"stateMutability":"view"},{"type":"function","name":"peers","inputs":[{"name":"","type":"uint256","internalType":"uint256"}],"outputs":[{"name":"","type":"address","internalType":"address"}],"stateMutability":"view"},{"type":"function","name":"quote","inputs":[{"name":"dstChainId","type":"uint256","internalType":"uint256"},{"name":"payload","type":"bytes","internalType":"bytes"},{"name":"options","type":"bytes","internalType":"bytes"}],"outputs":[{"name":"","type":"uint256","internalType":"uint256"}],"stateMutability":"pure"},{"type":"function","name":"renounceOwnership","inputs":[],"outputs":[],"stateMutability":"nonpayable"},{"type":"function","name":"send","inputs":[{"name":"dstChainId","type":"uint256","internalType":"uint256"},{"name":"to","type":"address","internalType":"address"},{"name":"amount","type":"uint256","internalType":"uint256"},{"name":"options","type":"bytes","internalType":"bytes"}],"outputs":[],"stateMutability":"payable"},{"type":"function","name":"setPeer","inputs":[{"name":"chainId","type":"uint256","internalType":"uint256"},{"name":"peer","type":"address","internalType":"address"}],"outputs":[],"stateMutability":"nonpayable"},{"type":"function","name":"symbol","inputs":[],"outputs":[{"name":"","type":"string","internalType":"string"}],"stateMutability":"view"},{"type":"function","name":"totalSupply","inputs":[],"outputs":[{"name":"","type":"uint256","internalType":"uint256"}],"stateMutability":"view"},{"type":"function","name":"transfer","inputs":[{"name":"to","type":"address","internalType":"address"},{"name":"value","type":"uint256","internalType":"uint256"}],"outputs":[{"name":"","type":"bool","internalType":"bool"}],"stateMutability":"nonpayable"},{"type":"function","name":"transferFrom","inputs":[{"name":"from","type":"address","internalType":"address"},{"name":"to","type":"address","internalType":"address"},{"name":"value","type":"uint256","internalType":"uint256"}],"outputs":[{"name":"","type":"bool","internalType":"bool"}],"stateMutability":"nonpayable"},{"type":"function","name":"transferOwnership","inputs":[{"name":"newOwner","type":"address","internalType":"address"}],"outputs":[],"stateMutability":"nonpayable"},{"type":"event","name":"Approval","inputs":[{"name":"owner","type":"address","indexed":true,"internalType":"address"},{"name":"spender","type":"address","indexed":true,"internalType":"address"},{"name":"value","type":"uint256","indexed":false,"internalType":"uint256"}],"anonymous":false},{"type":"event","name":"OwnershipTransferred","inputs":[{"name":"previousOwner","type":"address","indexed":true,"internalType":"address"},{"name":"newOwner","type":"address","indexed":true,"internalType":"address"}],"anonymous":false},{"type":"event","name":"PeerSet","inputs":[{"name":"chainId","type":"uint256","indexed":false,"internalType":"uint256"},{"name":"peer","type":"address","indexed":false,"internalType":"address"}],"anonymous":false},{"type":"event","name":"Send","inputs":[{"name":"dstChainId","type":"uint256","indexed":false,"internalType":"uint256"},{"name":"to","type":"address","indexed":false,"internalType":"address"},{"name":"amount","type":"uint256","indexed":false,"internalType":"uint256"},{"name":"options","type":"bytes","indexed":false,"internalType":"bytes"},{"name":"fee","type":"uint256","indexed":false,"internalType":"uint256"}],"anonymous":false},{"type":"event","name":"Transfer","inputs":[{"name":"from","type":"address","indexed":true,"internalType":"address"},{"name":"to","type":"address","indexed":true,"internalType":"address"},{"name":"value","type":"uint256","indexed":false,"internalType":"uint256"}],"anonymous":false},{"type":"error","name":"ERC20InsufficientAllowance","inputs":[{"name":"spender","type":"address","internalType":"address"},{"name":"allowance","type":"uint256","internalType":"uint256"},{"name":"needed","type":"uint256","internalType":"uint256"}]},{"type":"error","name":"ERC20InsufficientBalance","inputs":[{"name":"sender","type":"address","internalType":"address"},{"name":"balance","type":"uint256","internalType":"uint256"},{"name":"needed","type":"uint256","internalType":"uint256"}]},{"type":"error","name":"ERC20InvalidApprover","inputs":[{"name":"approver","type":"address","internalType":"address"}]},{"type":"error","name":"ERC20InvalidReceiver","inputs":[{"name":"receiver","type":"address","internalType":"address"}]},{"type":"error","name":"ERC20InvalidSender","inputs":[{"name":"sender","type":"address","internalType":"address"}]},{"type":"error","name":"ERC20InvalidSpender","inputs":[{"name":"spender","type":"address","internalType":"address"}]},{"type":"error","name":"OwnableInvalidOwner","inputs":[{"name":"owner","type":"address","internalType":"address"}]},{"type":"error","name":"OwnableUnauthorizedAccount","inputs":[{"name":"account","type":"address","internalType":"address"}]}],"bytecode":{"object":"0x608060405234801561000f575f5ffd5b50604051610f90380380610f9083398101604081905261002e91610179565b338282600361003d8382610262565b50600461004a8282610262565b5050506001600160a01b03811661007a57604051631e4fbdf760e01b81525f600482015260240160405180910390fd5b6100838161008b565b50505061031c565b600580546001600160a01b038381166001600160a01b0319831681179093556040519116919082907f8be0079c531659141344cd1fd0a4f28419497f9722a3daafe3b4186f6b6457e0905f90a35050565b634e487b7160e01b5f52604160045260245ffd5b5f82601f8301126100ff575f5ffd5b81516001600160401b03811115610118576101186100dc565b604051601f8201601f19908116603f011681016001600160401b0381118282101715610146576101466100dc565b60405281815283820160200185101561015d575f5ffd5b8160208501602083015e5f918101602001919091529392505050565b5f5f6040838503121561018a575f5ffd5b82516001600160401b0381111561019f575f5ffd5b6101ab858286016100f0565b602085015190935090506001600160401b038111156101c8575f5ffd5b6101d4858286016100f0565b9150509250929050565b600181811c908216806101f257607f821691505b60208210810361021057634e487b7160e01b5f52602260045260245ffd5b50919050565b601f82111561025d57805f5260205f20601f840160051c8101602085101561023b5750805b601f840160051c820191505b8181101561025a575f8155600101610247565b50505b505050565b81516001600160401b0381111561027b5761027b6100dc565b61028f8161028984546101de565b84610216565b6020601f8211600181146102c1575f83156102aa5750848201515b5f19600385901b1c1916600184901b17845561025a565b5f84815260208120601f198516915b828110156102f057878501518255602094850194600190920191016102d0565b508482101561030d57868401515f19600387901b60f8161c191681555b50505050600190811b01905550565b610c67806103295f395ff3fe6080604052600436106100fa575f3560e01c8063715018a611610092578063a9059cbb11610062578063a9059cbb146102a0578063be4f3e8f146102bf578063d611067e146102f3578063dd62ed3e14610306578063f2fde38b1461034a575f5ffd5b8063715018a6146102285780638069c4971461023c5780638da5cb5b1461025b57806395d89b411461028c575f5ffd5b8063313ce567116100cd578063313ce5671461019457806336b748a1146101af57806340c10f19146101d357806370a08231146101f4575f5ffd5b806306fdde03146100fe578063095ea7b31461012857806318160ddd1461015757806323b872dd14610175575b5f5ffd5b348015610109575f5ffd5b50610112610369565b60405161011f9190610944565b60405180910390f35b348015610133575f5ffd5b50610147610142366004610994565b6103f9565b604051901515815260200161011f565b348015610162575f5ffd5b506002545b60405190815260200161011f565b348015610180575f5ffd5b5061014761018f3660046109bc565b610412565b34801561019f575f5ffd5b506040516012815260200161011f565b3480156101ba575f5ffd5b506101676101c9366004610a3b565b5f95945050505050565b3480156101de575f5ffd5b506101f26101ed366004610994565b610435565b005b3480156101ff575f5ffd5b5061016761020e366004610ab4565b6001600160a01b03165f9081526020819052604090205490565b348015610233575f5ffd5b506101f261044b565b348015610247575f5ffd5b506101f2610256366004610ad4565b61045e565b348015610266575f5ffd5b506005546001600160a01b03165b6040516001600160a01b03909116815260200161011f565b348015610297575f5ffd5b506101126104cb565b3480156102ab575f5ffd5b506101476102ba366004610994565b6104da565b3480156102ca575f5ffd5b506102746102d9366004610afe565b60066020525f90815260409020546001600160a01b031681565b6101f2610301366004610b15565b6104e7565b348015610311575f5ffd5b50610167610320366004610b5b565b6001600160a01b039182165f90815260016020908152604080832093909416825291909152205490565b348015610355575f5ffd5b506101f2610364366004610ab4565b610539565b60606003805461037890610b83565b80601f01602080910402602001604051908101604052809291908181526020018280546103a490610b83565b80156103ef5780601f106103c6576101008083540402835291602001916103ef565b820191905f5260205f20905b8154815290600101906020018083116103d257829003601f168201915b5050505050905090565b5f3361040681858561057b565b60019150505b92915050565b5f3361041f85828561058d565b61042a858585610609565b506001949350505050565b61043d610666565b6104478282610693565b5050565b610453610666565b61045c5f6106c7565b565b610466610666565b5f8281526006602090815260409182902080546001600160a01b0319166001600160a01b0385169081179091558251858152918201527fcd44d3edde5f7e508840db73b2e39b71d725825fca31c7b3b5f154fe805554db910160405180910390a15050565b60606004805461037890610b83565b5f33610406818585610609565b6104f13384610718565b7f78ec6a8d483dc1b738f97017b8b7a7bb6c3a9509ae8bebf135b97d7353d682f985858585853460405161052a96959493929190610bbb565b60405180910390a15050505050565b610541610666565b6001600160a01b03811661056f57604051631e4fbdf760e01b81525f60048201526024015b60405180910390fd5b610578816106c7565b50565b610588838383600161074c565b505050565b6001600160a01b038381165f908152600160209081526040808320938616835292905220545f1981101561060357818110156105f557604051637dc7a0d960e11b81526001600160a01b03841660048201526024810182905260448101839052606401610566565b61060384848484035f61074c565b50505050565b6001600160a01b03831661063257604051634b637e8f60e11b81525f6004820152602401610566565b6001600160a01b03821661065b5760405163ec442f0560e01b81525f6004820152602401610566565b61058883838361081e565b6005546001600160a01b0316331461045c5760405163118cdaa760e01b8152336004820152602401610566565b6001600160a01b0382166106bc5760405163ec442f0560e01b81525f6004820152602401610566565b6104475f838361081e565b600580546001600160a01b038381166001600160a01b0319831681179093556040519116919082907f8be0079c531659141344cd1fd0a4f28419497f9722a3daafe3b4186f6b6457e0905f90a35050565b6001600160a01b03821661074157604051634b637e8f60e11b81525f6004820152602401610566565b610447825f8361081e565b6001600160a01b0384166107755760405163e602df0560e01b81525f6004820152602401610566565b6001600160a01b03831661079e57604051634a1406b160e11b81525f6004820152602401610566565b6001600160a01b038085165f908152600160209081526040808320938716835292905220829055801561060357826001600160a01b0316846001600160a01b03167f8c5be1e5ebec7d5bd14f71427d1e84f3dd0314c0f7b2291e5b200ac8c7c3b9258460405161081091815260200190565b60405180910390a350505050565b6001600160a01b038316610848578060025f82825461083d9190610c12565b909155506108b89050565b6001600160a01b0383165f908152602081905260409020548181101561089a5760405163391434e360e21b81526001600160a01b03851660048201526024810182905260448101839052606401610566565b6001600160a01b0384165f9081526020819052604090209082900390555b6001600160a01b0382166108d4576002805482900390556108f2565b6001600160a01b0382165f9081526020819052604090208054820190555b816001600160a01b0316836001600160a01b03167fddf252ad1be2c89b69c2b068fc378daa952ba7f163c4a11628f55a4df523b3ef8360405161093791815260200190565b60405180910390a3505050565b602081525f82518060208401528060208501604085015e5f604082850101526040601f19601f83011684010191505092915050565b80356001600160a01b038116811461098f575f5ffd5b919050565b5f5f604083850312156109a5575f5ffd5b6109ae83610979565b946020939093013593505050565b5f5f5f606084860312156109ce575f5ffd5b6109d784610979565b92506109e560208501610979565b929592945050506040919091013590565b5f5f83601f840112610a06575f5ffd5b50813567ffffffffffffffff811115610a1d575f5ffd5b602083019150836020828501011115610a34575f5ffd5b9250929050565b5f5f5f5f5f60608688031215610a4f575f5ffd5b85359450602086013567ffffffffffffffff811115610a6c575f5ffd5b610a78888289016109f6565b909550935050604086013567ffffffffffffffff811115610a97575f5ffd5b610aa3888289016109f6565b969995985093965092949392505050565b5f60208284031215610ac4575f5ffd5b610acd82610979565b9392505050565b5f5f60408385031215610ae5575f5ffd5b82359150610af560208401610979565b90509250929050565b5f60208284031215610b0e575f5ffd5b5035919050565b5f5f5f5f5f60808688031215610b29575f5ffd5b85359450610b3960208701610979565b935060408601359250606086013567ffffffffffffffff811115610a97575f5ffd5b5f5f60408385031215610b6c575f5ffd5b610b7583610979565b9150610af560208401610979565b600181811c90821680610b9757607f821691505b602082108103610bb557634e487b7160e01b5f52602260045260245ffd5b50919050565b8681526001600160a01b03861660208201526040810185905260a0606082018190528101839052828460c08301375f60c084830101525f60c0601f19601f8601168301019050826080830152979650505050505050565b8082018082111561040c57634e487b7160e01b5f52601160045260245ffdfea2646970667358221220b358c8113fdc9b7a8dc4061be3c9f5fdf977399d6842c8758aabf070c3c3b9ee64736f6c634300081e0033","linkReferences":{}},"methodIdentifiers":{"allowance(address,address)":"dd62ed3e","approve(address,uint256)":"095ea7b3","balanceOf(address)":"70a08231","decimals()":"313ce567","mint(address,uint256)":"40c10f19","name()":"06fdde03","owner()":"8da5cb5b","peers(uint256)":"be4f3e8f","quote(uint256,bytes,bytes)":"36b748a1","renounceOwnership()":"715018a6","send(uint256,address,uint256,bytes)":"d611067e","setPeer(uint256,address)":"8069c497","symbol()":"95d89b41","totalSupply()":"18160ddd","transfer(address,uint256)":"a9059cbb","transferFrom(address,address,uint256)":"23b872dd","transferOwnership(address)":"f2fde38b"},"id":21}