{"abi":[{"type":"constructor","inputs":[{"name":"_admin","type":"address","internalType":"address"}],"stateMutability":"nonpayable"},{"type":"function","name":"admin","inputs":[],"outputs":[{"name":"","type":"address","internalType":"address"}],"stateMutability":"view"},{"type":"function","name":"currentBoost","inputs":[],"outputs":[{"name":"","type":"uint256","internalType":"uint256"}],"stateMutability":"view"},{"type":"function","name":"dailyBoost","inputs":[{"name":"","type":"uint256","internalType":"uint256"}],"outputs":[{"name":"","type":"uint256","internalType":"uint256"}],"stateMutability":"view"},{"type":"function","name":"setAdmin","inputs":[{"name":"_admin","type":"address","internalType":"address"}],"outputs":[],"stateMutability":"nonpayable"},{"type":"function","name":"setDailyBoost","inputs":[{"name":"dayStart","type":"uint256","internalType":"uint256"},{"name":"multiplier","type":"uint256","internalType":"uint256"}],"outputs":[],"stateMutability":"nonpayable"},{"type":"event","name":"AdminUpdated","inputs":[{"name":"admin","type":"address","indexed":false,"internalType":"address"}],"anonymous":false},{"type":"event","name":"BoostSet","inputs":[{"name":"dayStart","type":"uint256","indexed":false,"internalType":"uint256"},{"name":"multiplier","type":"uint256","indexed":false,"internalType":"uint256"}],"anonymous":false}],"bytecode":{"object":"0x608060405234801561001057600080fd5b5060405161041f38038061041f83398101604081905261002f91610086565b600080546001600160a01b0319166001600160a01b0383169081179091556040519081527f54e4612788f90384e6843298d7854436f3a585b2c3831ab66abf1de63bfa6c2d9060200160405180910390a1506100b6565b60006020828403121561009857600080fd5b81516001600160a01b03811681146100af57600080fd5b9392505050565b61035a806100c56000396000f3fe608060405234801561001057600080fd5b50600436106100575760003560e01c8063704b6c021461005c57806394ce635314610071578063e47e430b14610084578063f3dad3fe146100b7578063f851a440146100bf575b600080fd5b61006f61006a36600461026a565b6100ea565b005b61006f61007f36600461029a565b610189565b6100a46100923660046102bc565b60016020526000908152604090205481565b6040519081526020015b60405180910390f35b6100a461021e565b6000546100d2906001600160a01b031681565b6040516001600160a01b0390911681526020016100ae565b6000546001600160a01b031633146101355760405162461bcd60e51b81526020600482015260096024820152683737ba1030b236b4b760b91b60448201526064015b60405180910390fd5b600080546001600160a01b0319166001600160a01b0383169081179091556040519081527f54e4612788f90384e6843298d7854436f3a585b2c3831ab66abf1de63bfa6c2d9060200160405180910390a150565b6000546001600160a01b031633146101cf5760405162461bcd60e51b81526020600482015260096024820152683737ba1030b236b4b760b91b604482015260640161012c565b60008281526001602090815260409182902083905581518481529081018390527f38b613d971ff665897f1734b7a045f651c836948fb89493c5e8de5e20b1f6641910160405180910390a15050565b60008061022e62015180426102d5565b61023b90620151806102f7565b60008181526001602052604090205490915080156102595780610263565b670de0b6b3a76400005b9250505090565b60006020828403121561027c57600080fd5b81356001600160a01b038116811461029357600080fd5b9392505050565b600080604083850312156102ad57600080fd5b50508035926020909101359150565b6000602082840312156102ce57600080fd5b5035919050565b6000826102f257634e487b7160e01b600052601260045260246000fd5b500490565b600081600019048311821515161561031f57634e487b7160e01b600052601160045260246000fd5b50029056fea26469706673582212202eef48277e4c90c8decb5be8527dfc6e5672f625636e262367bf9457e5950bf964736f6c634300080d0033","linkReferences":{}},"methodIdentifiers":{"admin()":"f851a440","currentBoost()":"f3dad3fe","dailyBoost(uint256)":"e47e430b","setAdmin(address)":"704b6c02","setDailyBoost(uint256,uint256)":"94ce6353"},"id":3}