{"abi":[{"type":"function","name":"balanceOf","inputs":[{"name":"account","type":"address","internalType":"address"}],"outputs":[{"name":"","type":"uint256","internalType":"uint256"}],"stateMutability":"view"},{"type":"function","name":"share","inputs":[],"outputs":[{"name":"","type":"address","internalType":"contract IERC20"}],"stateMutability":"view"},{"type":"function","name":"stake","inputs":[{"name":"amount","type":"uint256","internalType":"uint256"}],"outputs":[],"stateMutability":"nonpayable"},{"type":"function","name":"totalSupply","inputs":[],"outputs":[{"name":"","type":"uint256","internalType":"uint256"}],"stateMutability":"view"},{"type":"function","name":"withdraw","inputs":[{"name":"amount","type":"uint256","internalType":"uint256"}],"outputs":[],"stateMutability":"nonpayable"}],"bytecode":{"object":"0x6080604052348015600f57600080fd5b506104f48061001f6000396000f3fe608060405234801561001057600080fd5b50600436106100575760003560e01c806318160ddd1461005c5780632e1a7d4d1461007357806370a0823114610088578063a694fc3a146100b1578063a8d5fd65146100c4575b600080fd5b6001545b6040519081526020015b60405180910390f35b610086610081366004610417565b6100ef565b005b610060610096366004610430565b6001600160a01b031660009081526002602052604090205490565b6100866100bf366004610417565b6101bc565b6000546100d7906001600160a01b031681565b6040516001600160a01b03909116815260200161006a565b33600090815260026020526040902054818110156101735760405162461bcd60e51b815260206004820152603660248201527f426f617264726f6f6d3a207769746864726177207265717565737420677265616044820152751d195c881d1a185b881cdd185ad95908185b5bdd5b9d60521b60648201526084015b60405180910390fd5b6001546101809083610215565b60015561018d8183610215565b3360008181526002602052604081209290925590546101b8916001600160a01b03909116908461027a565b5050565b6001546101c9908261033e565b600155336000908152600260205260409020546101e6908261033e565b336000818152600260205260408120929092559054610212916001600160a01b0390911690308461034a565b50565b6000828211156102675760405162461bcd60e51b815260206004820152601e60248201527f536166654d6174683a207375627472616374696f6e206f766572666c6f770000604482015260640161016a565b6102718284610476565b90505b92915050565b60405163a9059cbb60e01b81526001600160a01b0383811660048301526024820183905284169063a9059cbb906044016020604051808303816000875af11580156102c9573d6000803e3d6000fd5b505050506040513d601f19601f820116820180604052508101906102ed9190610489565b6103395760405162461bcd60e51b815260206004820152601a60248201527f5361666545524332303a207472616e73666572206661696c6564000000000000604482015260640161016a565b505050565b600061027182846104ab565b6040516323b872dd60e01b81526001600160a01b0384811660048301528381166024830152604482018390528516906323b872dd906064016020604051808303816000875af11580156103a1573d6000803e3d6000fd5b505050506040513d601f19601f820116820180604052508101906103c59190610489565b6104115760405162461bcd60e51b815260206004820152601e60248201527f5361666545524332303a207472616e7366657246726f6d206661696c65640000604482015260640161016a565b50505050565b60006020828403121561042957600080fd5b5035919050565b60006020828403121561044257600080fd5b81356001600160a01b038116811461045957600080fd5b9392505050565b634e487b7160e01b600052601160045260246000fd5b8181038181111561027457610274610460565b60006020828403121561049b57600080fd5b8151801515811461045957600080fd5b808201808211156102745761027461046056fea264697066735822122067b9b19bb56a60232130226798e8788ce8e594bb3c63406ba17c78038dec9c1d64736f6c634300081e0033","linkReferences":{}},"methodIdentifiers":{"balanceOf(address)":"70a08231","share()":"a8d5fd65","stake(uint256)":"a694fc3a","totalSupply()":"18160ddd","withdraw(uint256)":"2e1a7d4d"},"id":16}