{"abi":[{"type":"function","name":"balanceOf","inputs":[{"name":"account","type":"address","internalType":"address"}],"outputs":[{"name":"","type":"uint256","internalType":"uint256"}],"stateMutability":"view"},{"type":"function","name":"share","inputs":[],"outputs":[{"name":"","type":"address","internalType":"contract IERC20"}],"stateMutability":"view"},{"type":"function","name":"stake","inputs":[{"name":"amount","type":"uint256","internalType":"uint256"}],"outputs":[],"stateMutability":"nonpayable"},{"type":"function","name":"totalSupply","inputs":[],"outputs":[{"name":"","type":"uint256","internalType":"uint256"}],"stateMutability":"view"},{"type":"function","name":"withdraw","inputs":[{"name":"amount","type":"uint256","internalType":"uint256"}],"outputs":[],"stateMutability":"nonpayable"},{"type":"error","name":"SafeERC20FailedOperation","inputs":[{"name":"token","type":"address","internalType":"address"}]}],"bytecode":{"object":"0x6080604052348015600e575f5ffd5b5061040e8061001c5f395ff3fe608060405234801561000f575f5ffd5b5060043610610055575f3560e01c806318160ddd146100595780632e1a7d4d1461007057806370a0823114610085578063a694fc3a146100ad578063a8d5fd65146100c0575b5f5ffd5b6001545b6040519081526020015b60405180910390f35b61008361007e366004610354565b6100ea565b005b61005d61009336600461036b565b6001600160a01b03165f9081526002602052604090205490565b6100836100bb366004610354565b6101bc565b5f546100d2906001600160a01b031681565b6040516001600160a01b039091168152602001610067565b335f908152600260205260409020548181101561016d5760405162461bcd60e51b815260206004820152603660248201527f426f617264726f6f6d3a207769746864726177207265717565737420677265616044820152751d195c881d1a185b881cdd185ad95908185b5bdd5b9d60521b60648201526084015b60405180910390fd5b8160015f82825461017e91906103ac565b9091555061018e905082826103ac565b335f8181526002602052604081209290925590546101b8916001600160a01b03909116908461020f565b5050565b8060015f8282546101cd91906103c5565b9091555050335f90815260026020526040812080548392906101f09084906103c5565b90915550505f5461020c906001600160a01b0316333084610249565b50565b61021c8383836001610285565b61024457604051635274afe760e01b81526001600160a01b0384166004820152602401610164565b505050565b6102578484848460016102e7565b61027f57604051635274afe760e01b81526001600160a01b0385166004820152602401610164565b50505050565b60405163a9059cbb60e01b5f8181526001600160a01b038616600452602485905291602083604481808b5af1925060015f511483166102db5783831516156102cf573d5f823e3d81fd5b5f873b113d1516831692505b60405250949350505050565b6040516323b872dd60e01b5f8181526001600160a01b038781166004528616602452604485905291602083606481808c5af1925060015f51148316610343578383151615610337573d5f823e3d81fd5b5f883b113d1516831692505b604052505f60605295945050505050565b5f60208284031215610364575f5ffd5b5035919050565b5f6020828403121561037b575f5ffd5b81356001600160a01b0381168114610391575f5ffd5b9392505050565b634e487b7160e01b5f52601160045260245ffd5b818103818111156103bf576103bf610398565b92915050565b808201808211156103bf576103bf61039856fea26469706673582212200085c9fb7ff01016abf52fdce17ce5358ec65db42fc1bd7f6191d64956eacb9964736f6c634300081e0033","linkReferences":{}},"methodIdentifiers":{"balanceOf(address)":"70a08231","share()":"a8d5fd65","stake(uint256)":"a694fc3a","totalSupply()":"18160ddd","withdraw(uint256)":"2e1a7d4d"},"id":16}