{"abi":[{"type":"constructor","inputs":[{"name":"_voting_escrow","type":"address","internalType":"address"}],"stateMutability":"nonpayable"},{"type":"function","name":"checkpoint_token","inputs":[],"outputs":[],"stateMutability":"nonpayable"},{"type":"function","name":"checkpoint_total_supply","inputs":[],"outputs":[],"stateMutability":"nonpayable"},{"type":"function","name":"claim","inputs":[{"name":"_tokenId","type":"uint256","internalType":"uint256"}],"outputs":[{"name":"","type":"uint256","internalType":"uint256"}],"stateMutability":"nonpayable"},{"type":"function","name":"claim_many","inputs":[{"name":"_tokenIds","type":"uint256[]","internalType":"uint256[]"}],"outputs":[{"name":"","type":"bool","internalType":"bool"}],"stateMutability":"nonpayable"},{"type":"function","name":"claimable","inputs":[{"name":"_tokenId","type":"uint256","internalType":"uint256"}],"outputs":[{"name":"","type":"uint256","internalType":"uint256"}],"stateMutability":"view"},{"type":"function","name":"claimableMany","inputs":[{"name":"_tokenIds","type":"uint256[]","internalType":"uint256[]"}],"outputs":[{"name":"total","type":"uint256","internalType":"uint256"}],"stateMutability":"view"},{"type":"function","name":"depositor","inputs":[],"outputs":[{"name":"","type":"address","internalType":"address"}],"stateMutability":"view"},{"type":"function","name":"last_token_time","inputs":[],"outputs":[{"name":"","type":"uint256","internalType":"uint256"}],"stateMutability":"view"},{"type":"function","name":"notifyPenalty","inputs":[],"outputs":[],"stateMutability":"nonpayable"},{"type":"function","name":"setDepositor","inputs":[{"name":"_depositor","type":"address","internalType":"address"}],"outputs":[],"stateMutability":"nonpayable"},{"type":"function","name":"start_time","inputs":[],"outputs":[{"name":"","type":"uint256","internalType":"uint256"}],"stateMutability":"view"},{"type":"function","name":"time_cursor","inputs":[],"outputs":[{"name":"","type":"uint256","internalType":"uint256"}],"stateMutability":"view"},{"type":"function","name":"time_cursor_of","inputs":[{"name":"","type":"uint256","internalType":"uint256"}],"outputs":[{"name":"","type":"uint256","internalType":"uint256"}],"stateMutability":"view"},{"type":"function","name":"timestamp","inputs":[],"outputs":[{"name":"","type":"uint256","internalType":"uint256"}],"stateMutability":"view"},{"type":"function","name":"token","inputs":[],"outputs":[{"name":"","type":"address","internalType":"address"}],"stateMutability":"view"},{"type":"function","name":"token_last_balance","inputs":[],"outputs":[{"name":"","type":"uint256","internalType":"uint256"}],"stateMutability":"view"},{"type":"function","name":"tokens_per_week","inputs":[{"name":"","type":"uint256","internalType":"uint256"}],"outputs":[{"name":"","type":"uint256","internalType":"uint256"}],"stateMutability":"view"},{"type":"function","name":"user_epoch_of","inputs":[{"name":"","type":"uint256","internalType":"uint256"}],"outputs":[{"name":"","type":"uint256","internalType":"uint256"}],"stateMutability":"view"},{"type":"function","name":"ve_for_at","inputs":[{"name":"_tokenId","type":"uint256","internalType":"uint256"},{"name":"_timestamp","type":"uint256","internalType":"uint256"}],"outputs":[{"name":"","type":"uint256","internalType":"uint256"}],"stateMutability":"view"},{"type":"function","name":"ve_supply","inputs":[{"name":"","type":"uint256","internalType":"uint256"}],"outputs":[{"name":"","type":"uint256","internalType":"uint256"}],"stateMutability":"view"},{"type":"function","name":"voting_escrow","inputs":[],"outputs":[{"name":"","type":"address","internalType":"address"}],"stateMutability":"view"},{"type":"event","name":"CheckpointToken","inputs":[{"name":"time","type":"uint256","indexed":false,"internalType":"uint256"},{"name":"tokens","type":"uint256","indexed":false,"internalType":"uint256"}],"anonymous":false},{"type":"event","name":"Claimed","inputs":[{"name":"tokenId","type":"uint256","indexed":false,"internalType":"uint256"},{"name":"amount","type":"uint256","indexed":false,"internalType":"uint256"},{"name":"claim_epoch","type":"uint256","indexed":false,"internalType":"uint256"},{"name":"max_epoch","type":"uint256","indexed":false,"internalType":"uint256"}],"anonymous":false}],"bytecode":{"object":"0x60806040523480156200001157600080fd5b5060405162001d4038038062001d4083398101604081905262000034916200018d565b600062093a80620000468142620001bf565b620000529190620001e2565b90508060008190555080600481905550806001819055506000826001600160a01b031663fc0c546a6040518163ffffffff1660e01b8152600401602060405180830381865afa158015620000aa573d6000803e3d6000fd5b505050506040513d601f19601f82011682018060405250810190620000d091906200018d565b600780546001600160a01b038381166001600160a01b031992831681179093556006805491881691831682179055600a8054909216331790915560405163095ea7b360e01b8152600481019190915260001960248201529192509063095ea7b3906044016020604051808303816000875af115801562000154573d6000803e3d6000fd5b505050506040513d601f19601f820116820180604052508101906200017a919062000210565b6200018457600080fd5b50505062000234565b600060208284031215620001a057600080fd5b81516001600160a01b0381168114620001b857600080fd5b9392505050565b600082620001dd57634e487b7160e01b600052601260045260246000fd5b500490565b60008160001904831182151516156200020b57634e487b7160e01b600052601160045260246000fd5b500290565b6000602082840312156200022357600080fd5b81518015158114620001b857600080fd5b611afc80620002446000396000f3fe608060405234801561001057600080fd5b50600436106101375760003560e01c8063b21ed502116100b8578063d4dafba81161007c578063d4dafba81461025c578063dce44f4d1461027c578063dfe050311461028f578063edf59997146102a2578063f2c098b7146102c2578063fc0c546a146102d557600080fd5b8063b21ed50214610206578063b80777ea1461020e578063bcc3dd3414610216578063c7c4ff461461021e578063d1d58b251461024957600080fd5b8063486d25fe116100ff578063486d25fe146101b757806368809889146101d75780637f58e8f8146101ea578063811a40fe146101f3578063834ee417146101fd57600080fd5b8063127dcbd31461013c57806316aea5c0146101585780631f1db0431461017857806322b04bfc1461019b578063379607f5146101a4575b600080fd5b61014560015481565b6040519081526020015b60405180910390f35b61014561016636600461170e565b60036020526000908152604090205481565b61018b61018636600461176e565b6102e8565b604051901515815260200161014f565b61014560085481565b6101456101b236600461170e565b610435565b6101456101c536600461170e565b60026020526000908152604090205481565b6101456101e5366004611814565b610598565b61014560045481565b6101fb6106d5565b005b61014560005481565b6101fb61072d565b610145610735565b6101fb610754565b600a54610231906001600160a01b031681565b6040516001600160a01b03909116815260200161014f565b61014561025736600461170e565b61085c565b61014561026a36600461170e565b60096020526000908152604090205481565b61014561028a36600461176e565b610896565b600654610231906001600160a01b031681565b6101456102b036600461170e565b60056020526000908152604090205481565b6101fb6102d0366004611836565b61092f565b600754610231906001600160a01b031681565b600060015442106102fb576102fb610968565b60045462093a8061030c8183611875565b6103169190611897565b6006549091506001600160a01b03166000805b855181101561040b576000868281518110610346576103466118b6565b602002602001015190508060000361035e575061040b565b600061036b828688610af3565b905080156103f65760075460405163a9059cbb60e01b8152336004820152602481018390526001600160a01b039091169063a9059cbb906044016020604051808303816000875af11580156103c4573d6000803e3d6000fd5b505050506040513d601f19601f820116820180604052508101906103e891906118cc565b506103f381856118ee565b93505b5050808061040390611906565b915050610329565b50801561042a578060086000828254610424919061191f565b90915550505b506001949350505050565b60065460405163f8a0576360e01b81526004810183905260009142916001600160a01b039091169063f8a0576390602401602060405180830381865afa158015610483573d6000803e3d6000fd5b505050506040513d601f19601f820116820180604052508101906104a79190611936565b116104b157600080fd5b60015442106104c2576104c2610968565b60045462093a806104d38183611875565b6104dd9190611897565b6006549091506000906104fb9085906001600160a01b031684610af3565b905080156105915760075460405163a9059cbb60e01b8152336004820152602481018390526001600160a01b039091169063a9059cbb906044016020604051808303816000875af1158015610554573d6000803e3d6000fd5b505050506040513d601f19601f8201168201806040525081019061057891906118cc565b50806008600082825461058b919061191f565b90915550505b9392505050565b60065460405163391044d760e21b8152600481018490526000916001600160a01b0316908290829063e441135c90602401602060405180830381865afa1580156105e6573d6000803e3d6000fd5b505050506040513d601f19601f8201168201806040525081019061060a9190611936565b9050600061061a83878785610ef6565b6040516309bb79ed60e11b815260048101889052602481018290529091506000906001600160a01b03851690631376f3da90604401608060405180830381865afa15801561066c573d6000803e3d6000fd5b505050506040513d601f19601f820116820180604052508101906106909190611966565b90506106ca8160400151876106a5919061191f565b82602001516106b491906119d8565b82516106c09190611a76565b600f0b6000610fea565b979650505050505050565b600a546001600160a01b031633146107235760405162461bcd60e51b815260206004820152600d60248201526c3737ba103232b837b9b4ba37b960991b604482015260640160405180910390fd5b61072b611001565b565b61072b610968565b600062093a806107458142611875565b61074f9190611897565b905090565b6007546040516370a0823160e01b81523060048201526000916001600160a01b0316906370a0823190602401602060405180830381865afa15801561079d573d6000803e3d6000fd5b505050506040513d601f19601f820116820180604052508101906107c19190611936565b90506000600854826107d3919061191f565b60088390559050600062093a806107ea8142611875565b6107f49190611897565b90508160056000838152602001908152602001600020600082825461081991906118ee565b909155505060408051428152602081018490527fce749457b74e10f393f2c6b1ce4261b78791376db5a3f501477a809f03f500d6910160405180910390a1505050565b60008062093a80806004546108719190611875565b61087b9190611897565b6006549091506105919084906001600160a01b03168361122e565b60008062093a80806004546108ab9190611875565b6108b59190611897565b6006549091506001600160a01b031660005b84518110156109275760008582815181106108e4576108e46118b6565b60200260200101519050806000036108fc5750610927565b61090781848661122e565b61091190866118ee565b945050808061091f90611906565b9150506108c7565b505050919050565b600a546001600160a01b0316331461094657600080fd5b600a80546001600160a01b0319166001600160a01b0392909216919091179055565b6006546001546001600160a01b0390911690600062093a8061098a8142611875565b6109949190611897565b9050826001600160a01b031663c2c4c5c16040518163ffffffff1660e01b8152600401600060405180830381600087803b1580156109d157600080fd5b505af11580156109e5573d6000803e3d6000fd5b5050505060005b6014811015610aeb57818311610aeb576000610a0885856115aa565b60405163d1febfb960e01b8152600481018290529091506000906001600160a01b0387169063d1febfb990602401608060405180830381865afa158015610a53573d6000803e3d6000fd5b505050506040513d601f19601f82011682018060405250810190610a779190611966565b905060008160400151861115610a99576040820151610a96908761191f565b90505b610ab8818360200151610aac91906119d8565b83516106c09190611a76565b600087815260096020526040902055505050610ad762093a80846118ee565b925080610ae381611906565b9150506109ec565b505060015550565b60405163391044d760e21b8152600481018490526000908190819081906001600160a01b0387169063e441135c90602401602060405180830381865afa158015610b41573d6000803e3d6000fd5b505050506040513d601f19601f82011682018060405250810190610b659190611936565b60008054919250829003610b80576000945050505050610591565b60008881526002602052604081205490819003610baa57610ba3888a8486610ef6565b9450610bbc565b60008981526003602052604090205494505b84600003610bc957600194505b6040516309bb79ed60e11b8152600481018a9052602481018690526000906001600160a01b038a1690631376f3da90604401608060405180830381865afa158015610c18573d6000803e3d6000fd5b505050506040513d601f19601f82011682018060405250810190610c3c9190611966565b905081600003610c815762093a8080600162093a808460400151610c6091906118ee565b610c6a919061191f565b610c749190611875565b610c7e9190611897565b91505b6004548210610c995760009650505050505050610591565b82821015610ca5578291505b6040805160808101825260008082526020820181905291810182905260608101829052905b6032811015610e6b5789841015610e6b5782604001518410158015610cef5750858811155b15610db557610cff6001896118ee565b975082915085881115610d3e5760405180608001604052806000600f0b81526020016000600f0b81526020016000815260200160008152509250610e59565b6040516309bb79ed60e11b8152600481018d9052602481018990526001600160a01b038c1690631376f3da90604401608060405180830381865afa158015610d8a573d6000803e3d6000fd5b505050506040513d601f19601f82011682018060405250810190610dae9190611966565b9250610e59565b6000826040015185610dc7919061191f565b90506000610dea846020015183610dde91906119d8565b85516106c09190611a76565b905080158015610df95750878a115b15610e05575050610e6b565b8015610e4757600086815260096020908152604080832054600590925290912054610e309083611897565b610e3a9190611875565b610e44908a6118ee565b98505b610e5462093a80876118ee565b955050505b80610e6381611906565b915050610cca565b50610e8085610e7b60018a61191f565b6116ff565b60008c8152600360209081526040808320849055600282529182902086905581518e8152908101899052908101829052606081018790529097507fcae2990aa9af8eb1c64713b7eddb3a80bf18e49a94a13fe0d0002b5d61d58f009060800160405180910390a150939998505050505050505050565b60008082815b6080811015610fde5781831015610fde5760006002610f1b84866118ee565b610f269060026118ee565b610f309190611875565b6040516309bb79ed60e11b8152600481018a9052602481018290529091506000906001600160a01b038b1690631376f3da90604401608060405180830381865afa158015610f82573d6000803e3d6000fd5b505050506040513d601f19601f82011682018060405250810190610fa69190611966565b905087816040015111610fbb57819450610fc9565b610fc660018361191f565b93505b50508080610fd690611906565b915050610efc565b50909695505050505050565b600081831015610ffa5781610591565b5090919050565b6007546040516370a0823160e01b81523060048201526000916001600160a01b0316906370a0823190602401602060405180830381865afa15801561104a573d6000803e3d6000fd5b505050506040513d601f19601f8201168201806040525081019061106e9190611936565b9050600060085482611080919061191f565b60088390556004549091506000611097824261191f565b426004559050600062093a806110ad8185611875565b6110b79190611897565b90506000805b60148110156111ec576110d362093a80846118ee565b91508142101561115557831580156110ea57508442145b15611118576000838152600560205260408120805488929061110d9084906118ee565b909155506111ec9050565b83611123864261191f565b61112d9088611897565b6111379190611875565b6000848152600560205260408120805490919061110d9084906118ee565b8315801561116257508482145b1561119057600083815260056020526040812080548892906111859084906118ee565b909155506111d39050565b8361119b868461191f565b6111a59088611897565b6111af9190611875565b600084815260056020526040812080549091906111cd9084906118ee565b90915550505b81945081925080806111e490611906565b9150506110bd565b5060408051428152602081018790527fce749457b74e10f393f2c6b1ce4261b78791376db5a3f501477a809f03f500d6910160405180910390a1505050505050565b60405163391044d760e21b8152600481018490526000908190819081906001600160a01b0387169063e441135c90602401602060405180830381865afa15801561127c573d6000803e3d6000fd5b505050506040513d601f19601f820116820180604052508101906112a09190611936565b600080549192508290036112bb576000945050505050610591565b600088815260026020526040812054908190036112e5576112de888a8486610ef6565b94506112f7565b60008981526003602052604090205494505b8460000361130457600194505b6040516309bb79ed60e11b8152600481018a9052602481018690526000906001600160a01b038a1690631376f3da90604401608060405180830381865afa158015611353573d6000803e3d6000fd5b505050506040513d601f19601f820116820180604052508101906113779190611966565b9050816000036113bc5762093a8080600162093a80846040015161139b91906118ee565b6113a5919061191f565b6113af9190611875565b6113b99190611897565b91505b60045482106113d45760009650505050505050610591565b828210156113e0578291505b6040805160808101825260008082526020820181905291810182905260608101829052905b603281101561159a578984101561159a578260400151841015801561142a5750858811155b156114f05761143a6001896118ee565b9750829150858811156114795760405180608001604052806000600f0b81526020016000600f0b81526020016000815260200160008152509250611588565b6040516309bb79ed60e11b8152600481018d9052602481018990526001600160a01b038c1690631376f3da90604401608060405180830381865afa1580156114c5573d6000803e3d6000fd5b505050506040513d601f19601f820116820180604052508101906114e99190611966565b9250611588565b6000826040015185611502919061191f565b90506000611519846020015183610dde91906119d8565b9050801580156115285750878a115b1561153457505061159a565b80156115765760008681526009602090815260408083205460059092529091205461155f9083611897565b6115699190611875565b611573908a6118ee565b98505b61158362093a80876118ee565b955050505b8061159281611906565b915050611405565b50949a9950505050505050505050565b600080600090506000846001600160a01b031663900cf0cf6040518163ffffffff1660e01b8152600401602060405180830381865afa1580156115f1573d6000803e3d6000fd5b505050506040513d601f19601f820116820180604052508101906116159190611936565b905060005b60808110156116f557818310156116f5576000600261163984866118ee565b6116449060026118ee565b61164e9190611875565b60405163d1febfb960e01b8152600481018290529091506000906001600160a01b0389169063d1febfb990602401608060405180830381865afa158015611699573d6000803e3d6000fd5b505050506040513d601f19601f820116820180604052508101906116bd9190611966565b9050868160400151116116d2578194506116e0565b6116dd60018361191f565b93505b505080806116ed90611906565b91505061161a565b5090949350505050565b6000818310610ffa5781610591565b60006020828403121561172057600080fd5b5035919050565b634e487b7160e01b600052604160045260246000fd5b604051601f8201601f1916810167ffffffffffffffff8111828210171561176657611766611727565b604052919050565b6000602080838503121561178157600080fd5b823567ffffffffffffffff8082111561179957600080fd5b818501915085601f8301126117ad57600080fd5b8135818111156117bf576117bf611727565b8060051b91506117d084830161173d565b81815291830184019184810190888411156117ea57600080fd5b938501935b83851015611808578435825293850193908501906117ef565b98975050505050505050565b6000806040838503121561182757600080fd5b50508035926020909101359150565b60006020828403121561184857600080fd5b81356001600160a01b038116811461059157600080fd5b634e487b7160e01b600052601160045260246000fd5b60008261189257634e487b7160e01b600052601260045260246000fd5b500490565b60008160001904831182151516156118b1576118b161185f565b500290565b634e487b7160e01b600052603260045260246000fd5b6000602082840312156118de57600080fd5b8151801515811461059157600080fd5b600082198211156119015761190161185f565b500190565b6000600182016119185761191861185f565b5060010190565b6000828210156119315761193161185f565b500390565b60006020828403121561194857600080fd5b5051919050565b8051600f81900b811461196157600080fd5b919050565b60006080828403121561197857600080fd5b6040516080810181811067ffffffffffffffff8211171561199b5761199b611727565b6040526119a78361194f565b81526119b56020840161194f565b602082015260408301516040820152606083015160608201528091505092915050565b600081600f0b83600f0b60016001607f1b03600082136000841383830485118282161615611a0857611a0861185f565b6f7fffffffffffffffffffffffffffffff196000851282811687830587121615611a3457611a3461185f565b60008712925085820587128484161615611a5057611a5061185f565b85850587128184161615611a6657611a6661185f565b5050509290910295945050505050565b600081600f0b83600f0b600081128160016001607f1b031901831281151615611aa157611aa161185f565b8160016001607f1b03018313811615611abc57611abc61185f565b509003939250505056fea26469706673582212207e95f3323567531029cc25b046e338c68d0b417f5eb0cf855965267472323ed764736f6c634300080d0033","linkReferences":{}},"methodIdentifiers":{"checkpoint_token()":"811a40fe","checkpoint_total_supply()":"b21ed502","claim(uint256)":"379607f5","claim_many(uint256[])":"1f1db043","claimable(uint256)":"d1d58b25","claimableMany(uint256[])":"dce44f4d","depositor()":"c7c4ff46","last_token_time()":"7f58e8f8","notifyPenalty()":"bcc3dd34","setDepositor(address)":"f2c098b7","start_time()":"834ee417","time_cursor()":"127dcbd3","time_cursor_of(uint256)":"486d25fe","timestamp()":"b80777ea","token()":"fc0c546a","token_last_balance()":"22b04bfc","tokens_per_week(uint256)":"edf59997","user_epoch_of(uint256)":"16aea5c0","ve_for_at(uint256,uint256)":"68809889","ve_supply(uint256)":"d4dafba8","voting_escrow()":"dfe05031"},"id":0}