{"abi":[{"type":"constructor","inputs":[{"name":"_voting_escrow","type":"address","internalType":"address"}],"stateMutability":"nonpayable"},{"type":"function","name":"checkpoint_token","inputs":[],"outputs":[],"stateMutability":"nonpayable"},{"type":"function","name":"checkpoint_total_supply","inputs":[],"outputs":[],"stateMutability":"nonpayable"},{"type":"function","name":"claim","inputs":[{"name":"_tokenId","type":"uint256","internalType":"uint256"}],"outputs":[{"name":"","type":"uint256","internalType":"uint256"}],"stateMutability":"nonpayable"},{"type":"function","name":"claim_many","inputs":[{"name":"_tokenIds","type":"uint256[]","internalType":"uint256[]"}],"outputs":[{"name":"","type":"bool","internalType":"bool"}],"stateMutability":"nonpayable"},{"type":"function","name":"claimable","inputs":[{"name":"_tokenId","type":"uint256","internalType":"uint256"}],"outputs":[{"name":"","type":"uint256","internalType":"uint256"}],"stateMutability":"view"},{"type":"function","name":"depositor","inputs":[],"outputs":[{"name":"","type":"address","internalType":"address"}],"stateMutability":"view"},{"type":"function","name":"last_token_time","inputs":[],"outputs":[{"name":"","type":"uint256","internalType":"uint256"}],"stateMutability":"view"},{"type":"function","name":"setDepositor","inputs":[{"name":"_depositor","type":"address","internalType":"address"}],"outputs":[],"stateMutability":"nonpayable"},{"type":"function","name":"start_time","inputs":[],"outputs":[{"name":"","type":"uint256","internalType":"uint256"}],"stateMutability":"view"},{"type":"function","name":"time_cursor","inputs":[],"outputs":[{"name":"","type":"uint256","internalType":"uint256"}],"stateMutability":"view"},{"type":"function","name":"time_cursor_of","inputs":[{"name":"","type":"uint256","internalType":"uint256"}],"outputs":[{"name":"","type":"uint256","internalType":"uint256"}],"stateMutability":"view"},{"type":"function","name":"timestamp","inputs":[],"outputs":[{"name":"","type":"uint256","internalType":"uint256"}],"stateMutability":"view"},{"type":"function","name":"token","inputs":[],"outputs":[{"name":"","type":"address","internalType":"address"}],"stateMutability":"view"},{"type":"function","name":"token_last_balance","inputs":[],"outputs":[{"name":"","type":"uint256","internalType":"uint256"}],"stateMutability":"view"},{"type":"function","name":"tokens_per_week","inputs":[{"name":"","type":"uint256","internalType":"uint256"}],"outputs":[{"name":"","type":"uint256","internalType":"uint256"}],"stateMutability":"view"},{"type":"function","name":"user_epoch_of","inputs":[{"name":"","type":"uint256","internalType":"uint256"}],"outputs":[{"name":"","type":"uint256","internalType":"uint256"}],"stateMutability":"view"},{"type":"function","name":"ve_for_at","inputs":[{"name":"_tokenId","type":"uint256","internalType":"uint256"},{"name":"_timestamp","type":"uint256","internalType":"uint256"}],"outputs":[{"name":"","type":"uint256","internalType":"uint256"}],"stateMutability":"view"},{"type":"function","name":"ve_supply","inputs":[{"name":"","type":"uint256","internalType":"uint256"}],"outputs":[{"name":"","type":"uint256","internalType":"uint256"}],"stateMutability":"view"},{"type":"function","name":"voting_escrow","inputs":[],"outputs":[{"name":"","type":"address","internalType":"address"}],"stateMutability":"view"},{"type":"event","name":"CheckpointToken","inputs":[{"name":"time","type":"uint256","indexed":false,"internalType":"uint256"},{"name":"tokens","type":"uint256","indexed":false,"internalType":"uint256"}],"anonymous":false},{"type":"event","name":"Claimed","inputs":[{"name":"tokenId","type":"uint256","indexed":false,"internalType":"uint256"},{"name":"amount","type":"uint256","indexed":false,"internalType":"uint256"},{"name":"claim_epoch","type":"uint256","indexed":false,"internalType":"uint256"},{"name":"max_epoch","type":"uint256","indexed":false,"internalType":"uint256"}],"anonymous":false}],"bytecode":{"object":"0x60806040523480156200001157600080fd5b5060405162001b6e38038062001b6e83398101604081905262000034916200018d565b600062093a80620000468142620001bf565b620000529190620001e2565b90508060008190555080600481905550806001819055506000826001600160a01b031663fc0c546a6040518163ffffffff1660e01b8152600401602060405180830381865afa158015620000aa573d6000803e3d6000fd5b505050506040513d601f19601f82011682018060405250810190620000d091906200018d565b600780546001600160a01b038381166001600160a01b031992831681179093556006805491881691831682179055600a8054909216331790915560405163095ea7b360e01b8152600481019190915260001960248201529192509063095ea7b3906044016020604051808303816000875af115801562000154573d6000803e3d6000fd5b505050506040513d601f19601f820116820180604052508101906200017a919062000210565b6200018457600080fd5b50505062000234565b600060208284031215620001a057600080fd5b81516001600160a01b0381168114620001b857600080fd5b9392505050565b600082620001dd57634e487b7160e01b600052601260045260246000fd5b500490565b60008160001904831182151516156200020b57634e487b7160e01b600052601160045260246000fd5b500290565b6000602082840312156200022357600080fd5b81518015158114620001b857600080fd5b61192a80620002446000396000f3fe608060405234801561001057600080fd5b50600436106101215760003560e01c8063834ee417116100ad578063d4dafba811610071578063d4dafba81461023e578063dfe050311461025e578063edf5999714610271578063f2c098b714610291578063fc0c546a146102a457600080fd5b8063834ee417146101e7578063b21ed502146101f0578063b80777ea146101f8578063c7c4ff4614610200578063d1d58b251461022b57600080fd5b8063379607f5116100f4578063379607f51461018e578063486d25fe146101a157806368809889146101c15780637f58e8f8146101d4578063811a40fe146101dd57600080fd5b8063127dcbd31461012657806316aea5c0146101425780631f1db0431461016257806322b04bfc14610185575b600080fd5b61012f60015481565b6040519081526020015b60405180910390f35b61012f61015036600461153c565b60036020526000908152604090205481565b61017561017036600461159c565b6102b7565b6040519015158152602001610139565b61012f60085481565b61012f61019c36600461153c565b610404565b61012f6101af36600461153c565b60026020526000908152604090205481565b61012f6101cf366004611642565b610567565b61012f60045481565b6101e56106a4565b005b61012f60005481565b6101e56106fc565b61012f610704565b600a54610213906001600160a01b031681565b6040516001600160a01b039091168152602001610139565b61012f61023936600461153c565b610723565b61012f61024c36600461153c565b60096020526000908152604090205481565b600654610213906001600160a01b031681565b61012f61027f36600461153c565b60056020526000908152604090205481565b6101e561029f366004611664565b61075d565b600754610213906001600160a01b031681565b600060015442106102ca576102ca610796565b60045462093a806102db81836116a3565b6102e591906116c5565b6006549091506001600160a01b03166000805b85518110156103da576000868281518110610315576103156116e4565b602002602001015190508060000361032d57506103da565b600061033a828688610921565b905080156103c55760075460405163a9059cbb60e01b8152336004820152602481018390526001600160a01b039091169063a9059cbb906044016020604051808303816000875af1158015610393573d6000803e3d6000fd5b505050506040513d601f19601f820116820180604052508101906103b791906116fa565b506103c2818561171c565b93505b505080806103d290611734565b9150506102f8565b5080156103f95780600860008282546103f3919061174d565b90915550505b506001949350505050565b60065460405163f8a0576360e01b81526004810183905260009142916001600160a01b039091169063f8a0576390602401602060405180830381865afa158015610452573d6000803e3d6000fd5b505050506040513d601f19601f820116820180604052508101906104769190611764565b1161048057600080fd5b600154421061049157610491610796565b60045462093a806104a281836116a3565b6104ac91906116c5565b6006549091506000906104ca9085906001600160a01b031684610921565b905080156105605760075460405163a9059cbb60e01b8152336004820152602481018390526001600160a01b039091169063a9059cbb906044016020604051808303816000875af1158015610523573d6000803e3d6000fd5b505050506040513d601f19601f8201168201806040525081019061054791906116fa565b50806008600082825461055a919061174d565b90915550505b9392505050565b60065460405163391044d760e21b8152600481018490526000916001600160a01b0316908290829063e441135c90602401602060405180830381865afa1580156105b5573d6000803e3d6000fd5b505050506040513d601f19601f820116820180604052508101906105d99190611764565b905060006105e983878785610d24565b6040516309bb79ed60e11b815260048101889052602481018290529091506000906001600160a01b03851690631376f3da90604401608060405180830381865afa15801561063b573d6000803e3d6000fd5b505050506040513d601f19601f8201168201806040525081019061065f9190611794565b9050610699816040015187610674919061174d565b82602001516106839190611806565b825161068f91906118a4565b600f0b6000610e18565b979650505050505050565b600a546001600160a01b031633146106f25760405162461bcd60e51b815260206004820152600d60248201526c3737ba103232b837b9b4ba37b960991b604482015260640160405180910390fd5b6106fa610e2f565b565b6106fa610796565b600062093a8061071481426116a3565b61071e91906116c5565b905090565b60008062093a808060045461073891906116a3565b61074291906116c5565b6006549091506105609084906001600160a01b03168361105c565b600a546001600160a01b0316331461077457600080fd5b600a80546001600160a01b0319166001600160a01b0392909216919091179055565b6006546001546001600160a01b0390911690600062093a806107b881426116a3565b6107c291906116c5565b9050826001600160a01b031663c2c4c5c16040518163ffffffff1660e01b8152600401600060405180830381600087803b1580156107ff57600080fd5b505af1158015610813573d6000803e3d6000fd5b5050505060005b60148110156109195781831161091957600061083685856113d8565b60405163d1febfb960e01b8152600481018290529091506000906001600160a01b0387169063d1febfb990602401608060405180830381865afa158015610881573d6000803e3d6000fd5b505050506040513d601f19601f820116820180604052508101906108a59190611794565b9050600081604001518611156108c75760408201516108c4908761174d565b90505b6108e68183602001516108da9190611806565b835161068f91906118a4565b60008781526009602052604090205550505061090562093a808461171c565b92508061091181611734565b91505061081a565b505060015550565b60405163391044d760e21b8152600481018490526000908190819081906001600160a01b0387169063e441135c90602401602060405180830381865afa15801561096f573d6000803e3d6000fd5b505050506040513d601f19601f820116820180604052508101906109939190611764565b600080549192508290036109ae576000945050505050610560565b600088815260026020526040812054908190036109d8576109d1888a8486610d24565b94506109ea565b60008981526003602052604090205494505b846000036109f757600194505b6040516309bb79ed60e11b8152600481018a9052602481018690526000906001600160a01b038a1690631376f3da90604401608060405180830381865afa158015610a46573d6000803e3d6000fd5b505050506040513d601f19601f82011682018060405250810190610a6a9190611794565b905081600003610aaf5762093a8080600162093a808460400151610a8e919061171c565b610a98919061174d565b610aa291906116a3565b610aac91906116c5565b91505b6004548210610ac75760009650505050505050610560565b82821015610ad3578291505b6040805160808101825260008082526020820181905291810182905260608101829052905b6032811015610c995789841015610c995782604001518410158015610b1d5750858811155b15610be357610b2d60018961171c565b975082915085881115610b6c5760405180608001604052806000600f0b81526020016000600f0b81526020016000815260200160008152509250610c87565b6040516309bb79ed60e11b8152600481018d9052602481018990526001600160a01b038c1690631376f3da90604401608060405180830381865afa158015610bb8573d6000803e3d6000fd5b505050506040513d601f19601f82011682018060405250810190610bdc9190611794565b9250610c87565b6000826040015185610bf5919061174d565b90506000610c18846020015183610c0c9190611806565b855161068f91906118a4565b905080158015610c275750878a115b15610c33575050610c99565b8015610c7557600086815260096020908152604080832054600590925290912054610c5e90836116c5565b610c6891906116a3565b610c72908a61171c565b98505b610c8262093a808761171c565b955050505b80610c9181611734565b915050610af8565b50610cae85610ca960018a61174d565b61152d565b60008c8152600360209081526040808320849055600282529182902086905581518e8152908101899052908101829052606081018790529097507fcae2990aa9af8eb1c64713b7eddb3a80bf18e49a94a13fe0d0002b5d61d58f009060800160405180910390a150939998505050505050505050565b60008082815b6080811015610e0c5781831015610e0c5760006002610d49848661171c565b610d5490600261171c565b610d5e91906116a3565b6040516309bb79ed60e11b8152600481018a9052602481018290529091506000906001600160a01b038b1690631376f3da90604401608060405180830381865afa158015610db0573d6000803e3d6000fd5b505050506040513d601f19601f82011682018060405250810190610dd49190611794565b905087816040015111610de957819450610df7565b610df460018361174d565b93505b50508080610e0490611734565b915050610d2a565b50909695505050505050565b600081831015610e285781610560565b5090919050565b6007546040516370a0823160e01b81523060048201526000916001600160a01b0316906370a0823190602401602060405180830381865afa158015610e78573d6000803e3d6000fd5b505050506040513d601f19601f82011682018060405250810190610e9c9190611764565b9050600060085482610eae919061174d565b60088390556004549091506000610ec5824261174d565b426004559050600062093a80610edb81856116a3565b610ee591906116c5565b90506000805b601481101561101a57610f0162093a808461171c565b915081421015610f835783158015610f1857508442145b15610f465760008381526005602052604081208054889290610f3b90849061171c565b9091555061101a9050565b83610f51864261174d565b610f5b90886116c5565b610f6591906116a3565b60008481526005602052604081208054909190610f3b90849061171c565b83158015610f9057508482145b15610fbe5760008381526005602052604081208054889290610fb390849061171c565b909155506110019050565b83610fc9868461174d565b610fd390886116c5565b610fdd91906116a3565b60008481526005602052604081208054909190610ffb90849061171c565b90915550505b819450819250808061101290611734565b915050610eeb565b5060408051428152602081018790527fce749457b74e10f393f2c6b1ce4261b78791376db5a3f501477a809f03f500d6910160405180910390a1505050505050565b60405163391044d760e21b8152600481018490526000908190819081906001600160a01b0387169063e441135c90602401602060405180830381865afa1580156110aa573d6000803e3d6000fd5b505050506040513d601f19601f820116820180604052508101906110ce9190611764565b600080549192508290036110e9576000945050505050610560565b600088815260026020526040812054908190036111135761110c888a8486610d24565b9450611125565b60008981526003602052604090205494505b8460000361113257600194505b6040516309bb79ed60e11b8152600481018a9052602481018690526000906001600160a01b038a1690631376f3da90604401608060405180830381865afa158015611181573d6000803e3d6000fd5b505050506040513d601f19601f820116820180604052508101906111a59190611794565b9050816000036111ea5762093a8080600162093a8084604001516111c9919061171c565b6111d3919061174d565b6111dd91906116a3565b6111e791906116c5565b91505b60045482106112025760009650505050505050610560565b8282101561120e578291505b6040805160808101825260008082526020820181905291810182905260608101829052905b60328110156113c857898410156113c857826040015184101580156112585750858811155b1561131e5761126860018961171c565b9750829150858811156112a75760405180608001604052806000600f0b81526020016000600f0b815260200160008152602001600081525092506113b6565b6040516309bb79ed60e11b8152600481018d9052602481018990526001600160a01b038c1690631376f3da90604401608060405180830381865afa1580156112f3573d6000803e3d6000fd5b505050506040513d601f19601f820116820180604052508101906113179190611794565b92506113b6565b6000826040015185611330919061174d565b90506000611347846020015183610c0c9190611806565b9050801580156113565750878a115b156113625750506113c8565b80156113a45760008681526009602090815260408083205460059092529091205461138d90836116c5565b61139791906116a3565b6113a1908a61171c565b98505b6113b162093a808761171c565b955050505b806113c081611734565b915050611233565b50949a9950505050505050505050565b600080600090506000846001600160a01b031663900cf0cf6040518163ffffffff1660e01b8152600401602060405180830381865afa15801561141f573d6000803e3d6000fd5b505050506040513d601f19601f820116820180604052508101906114439190611764565b905060005b608081101561152357818310156115235760006002611467848661171c565b61147290600261171c565b61147c91906116a3565b60405163d1febfb960e01b8152600481018290529091506000906001600160a01b0389169063d1febfb990602401608060405180830381865afa1580156114c7573d6000803e3d6000fd5b505050506040513d601f19601f820116820180604052508101906114eb9190611794565b9050868160400151116115005781945061150e565b61150b60018361174d565b93505b5050808061151b90611734565b915050611448565b5090949350505050565b6000818310610e285781610560565b60006020828403121561154e57600080fd5b5035919050565b634e487b7160e01b600052604160045260246000fd5b604051601f8201601f1916810167ffffffffffffffff8111828210171561159457611594611555565b604052919050565b600060208083850312156115af57600080fd5b823567ffffffffffffffff808211156115c757600080fd5b818501915085601f8301126115db57600080fd5b8135818111156115ed576115ed611555565b8060051b91506115fe84830161156b565b818152918301840191848101908884111561161857600080fd5b938501935b838510156116365784358252938501939085019061161d565b98975050505050505050565b6000806040838503121561165557600080fd5b50508035926020909101359150565b60006020828403121561167657600080fd5b81356001600160a01b038116811461056057600080fd5b634e487b7160e01b600052601160045260246000fd5b6000826116c057634e487b7160e01b600052601260045260246000fd5b500490565b60008160001904831182151516156116df576116df61168d565b500290565b634e487b7160e01b600052603260045260246000fd5b60006020828403121561170c57600080fd5b8151801515811461056057600080fd5b6000821982111561172f5761172f61168d565b500190565b6000600182016117465761174661168d565b5060010190565b60008282101561175f5761175f61168d565b500390565b60006020828403121561177657600080fd5b5051919050565b8051600f81900b811461178f57600080fd5b919050565b6000608082840312156117a657600080fd5b6040516080810181811067ffffffffffffffff821117156117c9576117c9611555565b6040526117d58361177d565b81526117e36020840161177d565b602082015260408301516040820152606083015160608201528091505092915050565b600081600f0b83600f0b60016001607f1b036000821360008413838304851182821616156118365761183661168d565b6f7fffffffffffffffffffffffffffffff1960008512828116878305871216156118625761186261168d565b6000871292508582058712848416161561187e5761187e61168d565b858505871281841616156118945761189461168d565b5050509290910295945050505050565b600081600f0b83600f0b600081128160016001607f1b0319018312811516156118cf576118cf61168d565b8160016001607f1b030183138116156118ea576118ea61168d565b509003939250505056fea26469706673582212202f6a01ba885bc5395a828a41a5ce7e4a186d49f5629608ba2d0234c8cab2a71164736f6c634300080d0033","linkReferences":{}},"methodIdentifiers":{"checkpoint_token()":"811a40fe","checkpoint_total_supply()":"b21ed502","claim(uint256)":"379607f5","claim_many(uint256[])":"1f1db043","claimable(uint256)":"d1d58b25","depositor()":"c7c4ff46","last_token_time()":"7f58e8f8","setDepositor(address)":"f2c098b7","start_time()":"834ee417","time_cursor()":"127dcbd3","time_cursor_of(uint256)":"486d25fe","timestamp()":"b80777ea","token()":"fc0c546a","token_last_balance()":"22b04bfc","tokens_per_week(uint256)":"edf59997","user_epoch_of(uint256)":"16aea5c0","ve_for_at(uint256,uint256)":"68809889","ve_supply(uint256)":"d4dafba8","voting_escrow()":"dfe05031"},"id":0}