{"abi":[{"type":"constructor","inputs":[{"name":"_voting_escrow","type":"address","internalType":"address"}],"stateMutability":"nonpayable"},{"type":"function","name":"checkpoint_token","inputs":[],"outputs":[],"stateMutability":"nonpayable"},{"type":"function","name":"checkpoint_total_supply","inputs":[],"outputs":[],"stateMutability":"nonpayable"},{"type":"function","name":"claim","inputs":[{"name":"_tokenId","type":"uint256","internalType":"uint256"}],"outputs":[{"name":"","type":"uint256","internalType":"uint256"}],"stateMutability":"nonpayable"},{"type":"function","name":"claim_many","inputs":[{"name":"_tokenIds","type":"uint256[]","internalType":"uint256[]"}],"outputs":[{"name":"","type":"bool","internalType":"bool"}],"stateMutability":"nonpayable"},{"type":"function","name":"claimable","inputs":[{"name":"_tokenId","type":"uint256","internalType":"uint256"}],"outputs":[{"name":"","type":"uint256","internalType":"uint256"}],"stateMutability":"view"},{"type":"function","name":"depositor","inputs":[],"outputs":[{"name":"","type":"address","internalType":"address"}],"stateMutability":"view"},{"type":"function","name":"last_token_time","inputs":[],"outputs":[{"name":"","type":"uint256","internalType":"uint256"}],"stateMutability":"view"},{"type":"function","name":"notifyPenalty","inputs":[],"outputs":[],"stateMutability":"nonpayable"},{"type":"function","name":"setDepositor","inputs":[{"name":"_depositor","type":"address","internalType":"address"}],"outputs":[],"stateMutability":"nonpayable"},{"type":"function","name":"start_time","inputs":[],"outputs":[{"name":"","type":"uint256","internalType":"uint256"}],"stateMutability":"view"},{"type":"function","name":"time_cursor","inputs":[],"outputs":[{"name":"","type":"uint256","internalType":"uint256"}],"stateMutability":"view"},{"type":"function","name":"time_cursor_of","inputs":[{"name":"","type":"uint256","internalType":"uint256"}],"outputs":[{"name":"","type":"uint256","internalType":"uint256"}],"stateMutability":"view"},{"type":"function","name":"timestamp","inputs":[],"outputs":[{"name":"","type":"uint256","internalType":"uint256"}],"stateMutability":"view"},{"type":"function","name":"token","inputs":[],"outputs":[{"name":"","type":"address","internalType":"address"}],"stateMutability":"view"},{"type":"function","name":"token_last_balance","inputs":[],"outputs":[{"name":"","type":"uint256","internalType":"uint256"}],"stateMutability":"view"},{"type":"function","name":"tokens_per_week","inputs":[{"name":"","type":"uint256","internalType":"uint256"}],"outputs":[{"name":"","type":"uint256","internalType":"uint256"}],"stateMutability":"view"},{"type":"function","name":"user_epoch_of","inputs":[{"name":"","type":"uint256","internalType":"uint256"}],"outputs":[{"name":"","type":"uint256","internalType":"uint256"}],"stateMutability":"view"},{"type":"function","name":"ve_for_at","inputs":[{"name":"_tokenId","type":"uint256","internalType":"uint256"},{"name":"_timestamp","type":"uint256","internalType":"uint256"}],"outputs":[{"name":"","type":"uint256","internalType":"uint256"}],"stateMutability":"view"},{"type":"function","name":"ve_supply","inputs":[{"name":"","type":"uint256","internalType":"uint256"}],"outputs":[{"name":"","type":"uint256","internalType":"uint256"}],"stateMutability":"view"},{"type":"function","name":"voting_escrow","inputs":[],"outputs":[{"name":"","type":"address","internalType":"address"}],"stateMutability":"view"},{"type":"event","name":"CheckpointToken","inputs":[{"name":"time","type":"uint256","indexed":false,"internalType":"uint256"},{"name":"tokens","type":"uint256","indexed":false,"internalType":"uint256"}],"anonymous":false},{"type":"event","name":"Claimed","inputs":[{"name":"tokenId","type":"uint256","indexed":false,"internalType":"uint256"},{"name":"amount","type":"uint256","indexed":false,"internalType":"uint256"},{"name":"claim_epoch","type":"uint256","indexed":false,"internalType":"uint256"},{"name":"max_epoch","type":"uint256","indexed":false,"internalType":"uint256"}],"anonymous":false}],"bytecode":{"object":"0x60806040523480156200001157600080fd5b5060405162001c8938038062001c8983398101604081905262000034916200018d565b600062093a80620000468142620001bf565b620000529190620001e2565b90508060008190555080600481905550806001819055506000826001600160a01b031663fc0c546a6040518163ffffffff1660e01b8152600401602060405180830381865afa158015620000aa573d6000803e3d6000fd5b505050506040513d601f19601f82011682018060405250810190620000d091906200018d565b600780546001600160a01b038381166001600160a01b031992831681179093556006805491881691831682179055600a8054909216331790915560405163095ea7b360e01b8152600481019190915260001960248201529192509063095ea7b3906044016020604051808303816000875af115801562000154573d6000803e3d6000fd5b505050506040513d601f19601f820116820180604052508101906200017a919062000210565b6200018457600080fd5b50505062000234565b600060208284031215620001a057600080fd5b81516001600160a01b0381168114620001b857600080fd5b9392505050565b600082620001dd57634e487b7160e01b600052601260045260246000fd5b500490565b60008160001904831182151516156200020b57634e487b7160e01b600052601160045260246000fd5b500290565b6000602082840312156200022357600080fd5b81518015158114620001b857600080fd5b611a4580620002446000396000f3fe608060405234801561001057600080fd5b506004361061012c5760003560e01c8063b21ed502116100ad578063d4dafba811610071578063d4dafba814610251578063dfe0503114610271578063edf5999714610284578063f2c098b7146102a4578063fc0c546a146102b757600080fd5b8063b21ed502146101fb578063b80777ea14610203578063bcc3dd341461020b578063c7c4ff4614610213578063d1d58b251461023e57600080fd5b8063486d25fe116100f4578063486d25fe146101ac57806368809889146101cc5780637f58e8f8146101df578063811a40fe146101e8578063834ee417146101f257600080fd5b8063127dcbd31461013157806316aea5c01461014d5780631f1db0431461016d57806322b04bfc14610190578063379607f514610199575b600080fd5b61013a60015481565b6040519081526020015b60405180910390f35b61013a61015b366004611657565b60036020526000908152604090205481565b61018061017b3660046116b7565b6102ca565b6040519015158152602001610144565b61013a60085481565b61013a6101a7366004611657565b610417565b61013a6101ba366004611657565b60026020526000908152604090205481565b61013a6101da36600461175d565b61057a565b61013a60045481565b6101f06106b7565b005b61013a60005481565b6101f061070f565b61013a610717565b6101f0610736565b600a54610226906001600160a01b031681565b6040516001600160a01b039091168152602001610144565b61013a61024c366004611657565b61083e565b61013a61025f366004611657565b60096020526000908152604090205481565b600654610226906001600160a01b031681565b61013a610292366004611657565b60056020526000908152604090205481565b6101f06102b236600461177f565b610878565b600754610226906001600160a01b031681565b600060015442106102dd576102dd6108b1565b60045462093a806102ee81836117be565b6102f891906117e0565b6006549091506001600160a01b03166000805b85518110156103ed576000868281518110610328576103286117ff565b602002602001015190508060000361034057506103ed565b600061034d828688610a3c565b905080156103d85760075460405163a9059cbb60e01b8152336004820152602481018390526001600160a01b039091169063a9059cbb906044016020604051808303816000875af11580156103a6573d6000803e3d6000fd5b505050506040513d601f19601f820116820180604052508101906103ca9190611815565b506103d58185611837565b93505b505080806103e59061184f565b91505061030b565b50801561040c5780600860008282546104069190611868565b90915550505b506001949350505050565b60065460405163f8a0576360e01b81526004810183905260009142916001600160a01b039091169063f8a0576390602401602060405180830381865afa158015610465573d6000803e3d6000fd5b505050506040513d601f19601f82011682018060405250810190610489919061187f565b1161049357600080fd5b60015442106104a4576104a46108b1565b60045462093a806104b581836117be565b6104bf91906117e0565b6006549091506000906104dd9085906001600160a01b031684610a3c565b905080156105735760075460405163a9059cbb60e01b8152336004820152602481018390526001600160a01b039091169063a9059cbb906044016020604051808303816000875af1158015610536573d6000803e3d6000fd5b505050506040513d601f19601f8201168201806040525081019061055a9190611815565b50806008600082825461056d9190611868565b90915550505b9392505050565b60065460405163391044d760e21b8152600481018490526000916001600160a01b0316908290829063e441135c90602401602060405180830381865afa1580156105c8573d6000803e3d6000fd5b505050506040513d601f19601f820116820180604052508101906105ec919061187f565b905060006105fc83878785610e3f565b6040516309bb79ed60e11b815260048101889052602481018290529091506000906001600160a01b03851690631376f3da90604401608060405180830381865afa15801561064e573d6000803e3d6000fd5b505050506040513d601f19601f8201168201806040525081019061067291906118af565b90506106ac8160400151876106879190611868565b82602001516106969190611921565b82516106a291906119bf565b600f0b6000610f33565b979650505050505050565b600a546001600160a01b031633146107055760405162461bcd60e51b815260206004820152600d60248201526c3737ba103232b837b9b4ba37b960991b604482015260640160405180910390fd5b61070d610f4a565b565b61070d6108b1565b600062093a8061072781426117be565b61073191906117e0565b905090565b6007546040516370a0823160e01b81523060048201526000916001600160a01b0316906370a0823190602401602060405180830381865afa15801561077f573d6000803e3d6000fd5b505050506040513d601f19601f820116820180604052508101906107a3919061187f565b90506000600854826107b59190611868565b60088390559050600062093a806107cc81426117be565b6107d691906117e0565b9050816005600083815260200190815260200160002060008282546107fb9190611837565b909155505060408051428152602081018490527fce749457b74e10f393f2c6b1ce4261b78791376db5a3f501477a809f03f500d6910160405180910390a1505050565b60008062093a808060045461085391906117be565b61085d91906117e0565b6006549091506105739084906001600160a01b031683611177565b600a546001600160a01b0316331461088f57600080fd5b600a80546001600160a01b0319166001600160a01b0392909216919091179055565b6006546001546001600160a01b0390911690600062093a806108d381426117be565b6108dd91906117e0565b9050826001600160a01b031663c2c4c5c16040518163ffffffff1660e01b8152600401600060405180830381600087803b15801561091a57600080fd5b505af115801561092e573d6000803e3d6000fd5b5050505060005b6014811015610a3457818311610a3457600061095185856114f3565b60405163d1febfb960e01b8152600481018290529091506000906001600160a01b0387169063d1febfb990602401608060405180830381865afa15801561099c573d6000803e3d6000fd5b505050506040513d601f19601f820116820180604052508101906109c091906118af565b9050600081604001518611156109e25760408201516109df9087611868565b90505b610a018183602001516109f59190611921565b83516106a291906119bf565b600087815260096020526040902055505050610a2062093a8084611837565b925080610a2c8161184f565b915050610935565b505060015550565b60405163391044d760e21b8152600481018490526000908190819081906001600160a01b0387169063e441135c90602401602060405180830381865afa158015610a8a573d6000803e3d6000fd5b505050506040513d601f19601f82011682018060405250810190610aae919061187f565b60008054919250829003610ac9576000945050505050610573565b60008881526002602052604081205490819003610af357610aec888a8486610e3f565b9450610b05565b60008981526003602052604090205494505b84600003610b1257600194505b6040516309bb79ed60e11b8152600481018a9052602481018690526000906001600160a01b038a1690631376f3da90604401608060405180830381865afa158015610b61573d6000803e3d6000fd5b505050506040513d601f19601f82011682018060405250810190610b8591906118af565b905081600003610bca5762093a8080600162093a808460400151610ba99190611837565b610bb39190611868565b610bbd91906117be565b610bc791906117e0565b91505b6004548210610be25760009650505050505050610573565b82821015610bee578291505b6040805160808101825260008082526020820181905291810182905260608101829052905b6032811015610db45789841015610db45782604001518410158015610c385750858811155b15610cfe57610c48600189611837565b975082915085881115610c875760405180608001604052806000600f0b81526020016000600f0b81526020016000815260200160008152509250610da2565b6040516309bb79ed60e11b8152600481018d9052602481018990526001600160a01b038c1690631376f3da90604401608060405180830381865afa158015610cd3573d6000803e3d6000fd5b505050506040513d601f19601f82011682018060405250810190610cf791906118af565b9250610da2565b6000826040015185610d109190611868565b90506000610d33846020015183610d279190611921565b85516106a291906119bf565b905080158015610d425750878a115b15610d4e575050610db4565b8015610d9057600086815260096020908152604080832054600590925290912054610d7990836117e0565b610d8391906117be565b610d8d908a611837565b98505b610d9d62093a8087611837565b955050505b80610dac8161184f565b915050610c13565b50610dc985610dc460018a611868565b611648565b60008c8152600360209081526040808320849055600282529182902086905581518e8152908101899052908101829052606081018790529097507fcae2990aa9af8eb1c64713b7eddb3a80bf18e49a94a13fe0d0002b5d61d58f009060800160405180910390a150939998505050505050505050565b60008082815b6080811015610f275781831015610f275760006002610e648486611837565b610e6f906002611837565b610e7991906117be565b6040516309bb79ed60e11b8152600481018a9052602481018290529091506000906001600160a01b038b1690631376f3da90604401608060405180830381865afa158015610ecb573d6000803e3d6000fd5b505050506040513d601f19601f82011682018060405250810190610eef91906118af565b905087816040015111610f0457819450610f12565b610f0f600183611868565b93505b50508080610f1f9061184f565b915050610e45565b50909695505050505050565b600081831015610f435781610573565b5090919050565b6007546040516370a0823160e01b81523060048201526000916001600160a01b0316906370a0823190602401602060405180830381865afa158015610f93573d6000803e3d6000fd5b505050506040513d601f19601f82011682018060405250810190610fb7919061187f565b9050600060085482610fc99190611868565b60088390556004549091506000610fe08242611868565b426004559050600062093a80610ff681856117be565b61100091906117e0565b90506000805b60148110156111355761101c62093a8084611837565b91508142101561109e578315801561103357508442145b156110615760008381526005602052604081208054889290611056908490611837565b909155506111359050565b8361106c8642611868565b61107690886117e0565b61108091906117be565b60008481526005602052604081208054909190611056908490611837565b831580156110ab57508482145b156110d957600083815260056020526040812080548892906110ce908490611837565b9091555061111c9050565b836110e48684611868565b6110ee90886117e0565b6110f891906117be565b60008481526005602052604081208054909190611116908490611837565b90915550505b819450819250808061112d9061184f565b915050611006565b5060408051428152602081018790527fce749457b74e10f393f2c6b1ce4261b78791376db5a3f501477a809f03f500d6910160405180910390a1505050505050565b60405163391044d760e21b8152600481018490526000908190819081906001600160a01b0387169063e441135c90602401602060405180830381865afa1580156111c5573d6000803e3d6000fd5b505050506040513d601f19601f820116820180604052508101906111e9919061187f565b60008054919250829003611204576000945050505050610573565b6000888152600260205260408120549081900361122e57611227888a8486610e3f565b9450611240565b60008981526003602052604090205494505b8460000361124d57600194505b6040516309bb79ed60e11b8152600481018a9052602481018690526000906001600160a01b038a1690631376f3da90604401608060405180830381865afa15801561129c573d6000803e3d6000fd5b505050506040513d601f19601f820116820180604052508101906112c091906118af565b9050816000036113055762093a8080600162093a8084604001516112e49190611837565b6112ee9190611868565b6112f891906117be565b61130291906117e0565b91505b600454821061131d5760009650505050505050610573565b82821015611329578291505b6040805160808101825260008082526020820181905291810182905260608101829052905b60328110156114e357898410156114e357826040015184101580156113735750858811155b1561143957611383600189611837565b9750829150858811156113c25760405180608001604052806000600f0b81526020016000600f0b815260200160008152602001600081525092506114d1565b6040516309bb79ed60e11b8152600481018d9052602481018990526001600160a01b038c1690631376f3da90604401608060405180830381865afa15801561140e573d6000803e3d6000fd5b505050506040513d601f19601f8201168201806040525081019061143291906118af565b92506114d1565b600082604001518561144b9190611868565b90506000611462846020015183610d279190611921565b9050801580156114715750878a115b1561147d5750506114e3565b80156114bf576000868152600960209081526040808320546005909252909120546114a890836117e0565b6114b291906117be565b6114bc908a611837565b98505b6114cc62093a8087611837565b955050505b806114db8161184f565b91505061134e565b50949a9950505050505050505050565b600080600090506000846001600160a01b031663900cf0cf6040518163ffffffff1660e01b8152600401602060405180830381865afa15801561153a573d6000803e3d6000fd5b505050506040513d601f19601f8201168201806040525081019061155e919061187f565b905060005b608081101561163e578183101561163e57600060026115828486611837565b61158d906002611837565b61159791906117be565b60405163d1febfb960e01b8152600481018290529091506000906001600160a01b0389169063d1febfb990602401608060405180830381865afa1580156115e2573d6000803e3d6000fd5b505050506040513d601f19601f8201168201806040525081019061160691906118af565b90508681604001511161161b57819450611629565b611626600183611868565b93505b505080806116369061184f565b915050611563565b5090949350505050565b6000818310610f435781610573565b60006020828403121561166957600080fd5b5035919050565b634e487b7160e01b600052604160045260246000fd5b604051601f8201601f1916810167ffffffffffffffff811182821017156116af576116af611670565b604052919050565b600060208083850312156116ca57600080fd5b823567ffffffffffffffff808211156116e257600080fd5b818501915085601f8301126116f657600080fd5b81358181111561170857611708611670565b8060051b9150611719848301611686565b818152918301840191848101908884111561173357600080fd5b938501935b8385101561175157843582529385019390850190611738565b98975050505050505050565b6000806040838503121561177057600080fd5b50508035926020909101359150565b60006020828403121561179157600080fd5b81356001600160a01b038116811461057357600080fd5b634e487b7160e01b600052601160045260246000fd5b6000826117db57634e487b7160e01b600052601260045260246000fd5b500490565b60008160001904831182151516156117fa576117fa6117a8565b500290565b634e487b7160e01b600052603260045260246000fd5b60006020828403121561182757600080fd5b8151801515811461057357600080fd5b6000821982111561184a5761184a6117a8565b500190565b600060018201611861576118616117a8565b5060010190565b60008282101561187a5761187a6117a8565b500390565b60006020828403121561189157600080fd5b5051919050565b8051600f81900b81146118aa57600080fd5b919050565b6000608082840312156118c157600080fd5b6040516080810181811067ffffffffffffffff821117156118e4576118e4611670565b6040526118f083611898565b81526118fe60208401611898565b602082015260408301516040820152606083015160608201528091505092915050565b600081600f0b83600f0b60016001607f1b03600082136000841383830485118282161615611951576119516117a8565b6f7fffffffffffffffffffffffffffffff19600085128281168783058712161561197d5761197d6117a8565b60008712925085820587128484161615611999576119996117a8565b858505871281841616156119af576119af6117a8565b5050509290910295945050505050565b600081600f0b83600f0b600081128160016001607f1b0319018312811516156119ea576119ea6117a8565b8160016001607f1b03018313811615611a0557611a056117a8565b509003939250505056fea26469706673582212203ca9ec9834d5a2ad07144e3d72b235a7a7f9f931fda3ee97900094050888a7af64736f6c634300080d0033","linkReferences":{}},"methodIdentifiers":{"checkpoint_token()":"811a40fe","checkpoint_total_supply()":"b21ed502","claim(uint256)":"379607f5","claim_many(uint256[])":"1f1db043","claimable(uint256)":"d1d58b25","depositor()":"c7c4ff46","last_token_time()":"7f58e8f8","notifyPenalty()":"bcc3dd34","setDepositor(address)":"f2c098b7","start_time()":"834ee417","time_cursor()":"127dcbd3","time_cursor_of(uint256)":"486d25fe","timestamp()":"b80777ea","token()":"fc0c546a","token_last_balance()":"22b04bfc","tokens_per_week(uint256)":"edf59997","user_epoch_of(uint256)":"16aea5c0","ve_for_at(uint256,uint256)":"68809889","ve_supply(uint256)":"d4dafba8","voting_escrow()":"dfe05031"},"id":0}