{"abi":[{"type":"constructor","inputs":[{"name":"_escrow","type":"address","internalType":"address"},{"name":"_ltvBps","type":"uint256","internalType":"uint256"}],"stateMutability":"nonpayable"},{"type":"function","name":"borrow","inputs":[{"name":"tokenId","type":"uint256","internalType":"uint256"},{"name":"amount","type":"uint256","internalType":"uint256"}],"outputs":[],"stateMutability":"nonpayable"},{"type":"function","name":"collateral","inputs":[{"name":"","type":"uint256","internalType":"uint256"}],"outputs":[{"name":"owner","type":"address","internalType":"address"},{"name":"debt","type":"uint256","internalType":"uint256"}],"stateMutability":"view"},{"type":"function","name":"dues","inputs":[],"outputs":[{"name":"","type":"address","internalType":"contract IERC20"}],"stateMutability":"view"},{"type":"function","name":"escrow","inputs":[],"outputs":[{"name":"","type":"address","internalType":"contract IBeehiveEscrow"}],"stateMutability":"view"},{"type":"function","name":"fund","inputs":[{"name":"amount","type":"uint256","internalType":"uint256"}],"outputs":[],"stateMutability":"nonpayable"},{"type":"function","name":"healthFactor","inputs":[{"name":"tokenId","type":"uint256","internalType":"uint256"}],"outputs":[{"name":"","type":"int256","internalType":"int256"}],"stateMutability":"view"},{"type":"function","name":"isCollateralized","inputs":[{"name":"tokenId","type":"uint256","internalType":"uint256"}],"outputs":[{"name":"","type":"bool","internalType":"bool"}],"stateMutability":"view"},{"type":"function","name":"liquidate","inputs":[{"name":"tokenId","type":"uint256","internalType":"uint256"},{"name":"repayAmount","type":"uint256","internalType":"uint256"},{"name":"to","type":"address","internalType":"address"}],"outputs":[],"stateMutability":"nonpayable"},{"type":"function","name":"lockedEnd","inputs":[{"name":"tokenId","type":"uint256","internalType":"uint256"}],"outputs":[{"name":"","type":"uint256","internalType":"uint256"}],"stateMutability":"view"},{"type":"function","name":"ltvBps","inputs":[],"outputs":[{"name":"","type":"uint256","internalType":"uint256"}],"stateMutability":"view"},{"type":"function","name":"maxBorrow","inputs":[{"name":"tokenId","type":"uint256","internalType":"uint256"}],"outputs":[{"name":"","type":"uint256","internalType":"uint256"}],"stateMutability":"view"},{"type":"function","name":"ownerOf","inputs":[{"name":"tokenId","type":"uint256","internalType":"uint256"}],"outputs":[{"name":"","type":"address","internalType":"address"}],"stateMutability":"view"},{"type":"function","name":"repay","inputs":[{"name":"tokenId","type":"uint256","internalType":"uint256"},{"name":"amount","type":"uint256","internalType":"uint256"}],"outputs":[],"stateMutability":"nonpayable"},{"type":"event","name":"Borrowed","inputs":[{"name":"tokenId","type":"uint256","indexed":true,"internalType":"uint256"},{"name":"owner","type":"address","indexed":true,"internalType":"address"},{"name":"amount","type":"uint256","indexed":false,"internalType":"uint256"}],"anonymous":false},{"type":"event","name":"Funded","inputs":[{"name":"provider","type":"address","indexed":true,"internalType":"address"},{"name":"amount","type":"uint256","indexed":false,"internalType":"uint256"}],"anonymous":false},{"type":"event","name":"Liquidated","inputs":[{"name":"tokenId","type":"uint256","indexed":true,"internalType":"uint256"},{"name":"liquidator","type":"address","indexed":true,"internalType":"address"},{"name":"repaid","type":"uint256","indexed":false,"internalType":"uint256"}],"anonymous":false},{"type":"event","name":"Repaid","inputs":[{"name":"tokenId","type":"uint256","indexed":true,"internalType":"uint256"},{"name":"owner","type":"address","indexed":true,"internalType":"address"},{"name":"amount","type":"uint256","indexed":false,"internalType":"uint256"}],"anonymous":false}],"bytecode":{"object":"0x60e06040523480156200001157600080fd5b5060405162001616380380620016168339810160408190526200003491620000d8565b6001600160a01b038216608081905260408051637e062a3560e11b8152905163fc0c546a916004808201926020929091908290030181865afa1580156200007f573d6000803e3d6000fd5b505050506040513d601f19601f82011682018060405250810190620000a5919062000107565b6001600160a01b031660a05260c052506200012c565b80516001600160a01b0381168114620000d357600080fd5b919050565b60008060408385031215620000ec57600080fd5b620000f783620000bb565b9150602083015190509250929050565b6000602082840312156200011a57600080fd5b6200012582620000bb565b9392505050565b60805160a05160c05161143d620001d96000396000818160ee01526108ea0152600081816101cb0152818161058b0152818161075a01528181610aa801528181610c490152610f4801526000818161022b015281816102d7015281816103a601528181610472015281816106d80152818161087501528181610939015281816109cb01528181610d5301528181610e1f01528181610ffd0152818161107b0152611155015261143d6000f3fe608060405234801561001057600080fd5b50600436106100cf5760003560e01c80636a87d7801161008c578063d8aed14511610066578063d8aed14514610213578063e2fdcc1714610226578063e7e308821461024d578063f354a3391461028257600080fd5b80636a87d780146101c6578063bc71054e146101ed578063ca1d209d1461020057600080fd5b80630ecbcdab146100d4578063276b7377146100e95780633b1f18dd1461012357806361b24c3714610175578063626944df146101885780636352211e1461019b575b600080fd5b6100e76100e2366004611203565b610295565b005b6101107f000000000000000000000000000000000000000000000000000000000000000081565b6040519081526020015b60405180910390f35b610156610131366004611225565b600060208190529081526040902080546001909101546001600160a01b039091169082565b604080516001600160a01b03909316835260208301919091520161011a565b610110610183366004611225565b610852565b610110610196366004611225565b610920565b6101ae6101a9366004611225565b6109b2565b6040516001600160a01b03909116815260200161011a565b6101ae7f000000000000000000000000000000000000000000000000000000000000000081565b6101106101fb366004611225565b610a3e565b6100e761020e366004611225565b610a71565b6100e7610221366004611203565b610b78565b6101ae7f000000000000000000000000000000000000000000000000000000000000000081565b61027261025b366004611225565b600090815260208190526040902060010154151590565b604051901515815260200161011a565b6100e7610290366004611256565b610dbd565b600081116102be5760405162461bcd60e51b81526004016102b59061128f565b60405180910390fd5b6040516331a9108f60e11b8152600481018390526000907f00000000000000000000000000000000000000000000000000000000000000006001600160a01b031690636352211e90602401602060405180830381865afa158015610326573d6000803e3d6000fd5b505050506040513d601f19601f8201168201806040525081019061034a91906112b1565b90506001600160a01b03811633146103905760405162461bcd60e51b81526020600482015260096024820152683737ba1037bbb732b960b91b60448201526064016102b5565b60405163f8a0576360e01b8152600481018490527f00000000000000000000000000000000000000000000000000000000000000006001600160a01b03169063f8a0576390602401602060405180830381865afa1580156103f5573d6000803e3d6000fd5b505050506040513d601f19601f8201168201806040525081019061041991906112ce565b42106104565760405162461bcd60e51b815260206004820152600c60248201526b1b1bd8dac8195e1c1a5c995960a21b60448201526064016102b5565b60405163430c208160e01b8152306004820152602481018490527f00000000000000000000000000000000000000000000000000000000000000006001600160a01b03169063430c208190604401602060405180830381865afa1580156104c1573d6000803e3d6000fd5b505050506040513d601f19601f820116820180604052508101906104e591906112e7565b6105295760405162461bcd60e51b8152602060048201526015602482015274185c1c1c9bdd9948131bd85b9cc8199bdc88139195605a1b60448201526064016102b5565b600061053484610852565b9050808311156105745760405162461bcd60e51b815260206004820152600b60248201526a32bc31b2b2b23990262a2b60a91b60448201526064016102b5565b6040516370a0823160e01b815230600482015283907f00000000000000000000000000000000000000000000000000000000000000006001600160a01b0316906370a0823190602401602060405180830381865afa1580156105da573d6000803e3d6000fd5b505050506040513d601f19601f820116820180604052508101906105fe91906112ce565b10156106455760405162461bcd60e51b8152602060048201526016602482015275696e73756666696369656e74206c697175696469747960501b60448201526064016102b5565b600084815260208190526040902060018101541561069e5760405162461bcd60e51b8152602060048201526016602482015275185b1c9958591e4818dbdb1b185d195c985b1a5e995960521b60448201526064016102b5565b80546001600160a01b0319166001600160a01b038481169190911782556001820185905560405163fbd3a29d60e01b8152600481018790527f00000000000000000000000000000000000000000000000000000000000000009091169063fbd3a29d90602401600060405180830381600087803b15801561071e57600080fd5b505af1158015610732573d6000803e3d6000fd5b505060405163a9059cbb60e01b81526001600160a01b038681166004830152602482018890527f000000000000000000000000000000000000000000000000000000000000000016925063a9059cbb91506044016020604051808303816000875af11580156107a5573d6000803e3d6000fd5b505050506040513d601f19601f820116820180604052508101906107c991906112e7565b6108075760405162461bcd60e51b815260206004820152600f60248201526e1d1c985b9cd9995c8819985a5b1959608a1b60448201526064016102b5565b826001600160a01b0316857f68045833607620b046673ad9d71b3f95e5626241b0d4d66477a2c600ad85b7168660405161084391815260200190565b60405180910390a35050505050565b6040516339f890b560e21b81526004810182905260009081906001600160a01b037f0000000000000000000000000000000000000000000000000000000000000000169063e7e242d490602401602060405180830381865afa1580156108bc573d6000803e3d6000fd5b505050506040513d601f19601f820116820180604052508101906108e091906112ce565b905061271061090f7f00000000000000000000000000000000000000000000000000000000000000008361131f565b610919919061133e565b9392505050565b60405163f8a0576360e01b8152600481018290526000907f00000000000000000000000000000000000000000000000000000000000000006001600160a01b03169063f8a0576390602401602060405180830381865afa158015610988573d6000803e3d6000fd5b505050506040513d601f19601f820116820180604052508101906109ac91906112ce565b92915050565b6040516331a9108f60e11b8152600481018290526000907f00000000000000000000000000000000000000000000000000000000000000006001600160a01b031690636352211e90602401602060405180830381865afa158015610a1a573d6000803e3d6000fd5b505050506040513d601f19601f820116820180604052508101906109ac91906112b1565b600080610a4a83610852565b600084815260208190526040902060010154909150610a698183611360565b949350505050565b60008111610a915760405162461bcd60e51b81526004016102b59061128f565b6040516323b872dd60e01b81526001600160a01b037f000000000000000000000000000000000000000000000000000000000000000016906323b872dd90610ae19033903090869060040161139f565b6020604051808303816000875af1158015610b00573d6000803e3d6000fd5b505050506040513d601f19601f82011682018060405250810190610b2491906112e7565b610b405760405162461bcd60e51b81526004016102b5906113c3565b60405181815233907f5af8184bef8e4b45eb9f6ed7734d04da38ced226495548f46e0c8ff8d7d9a5249060200160405180910390a250565b60008111610b985760405162461bcd60e51b81526004016102b59061128f565b600082815260208190526040902080546001600160a01b03163314610bee5760405162461bcd60e51b815260206004820152600c60248201526b3737ba103137b93937bbb2b960a11b60448201526064016102b5565b8181600101541015610c325760405162461bcd60e51b815260206004820152600d60248201526c185b5bdd5b9d080f881919589d609a1b60448201526064016102b5565b6040516323b872dd60e01b81526001600160a01b037f000000000000000000000000000000000000000000000000000000000000000016906323b872dd90610c829033903090879060040161139f565b6020604051808303816000875af1158015610ca1573d6000803e3d6000fd5b505050506040513d601f19601f82011682018060405250810190610cc591906112e7565b610ce15760405162461bcd60e51b81526004016102b5906113c3565b81816001016000828254610cf591906113f0565b9091555050604051828152339084907fd7e0ec76b1d4528064c83f86d869783dfd06db26b2b5624bde17d4b99f80dd979060200160405180910390a38060010154600003610db857604051634c35bec560e11b8152600481018490527f00000000000000000000000000000000000000000000000000000000000000006001600160a01b03169063986b7d8a90602401600060405180830381600087803b158015610d9f57600080fd5b505af1158015610db3573d6000803e3d6000fd5b505050505b505050565b60008381526020819052604090206001810154610e065760405162461bcd60e51b81526020600482015260076024820152661b9bc81919589d60ca1b60448201526064016102b5565b60405163f8a0576360e01b8152600481018590526000907f00000000000000000000000000000000000000000000000000000000000000006001600160a01b03169063f8a0576390602401602060405180830381865afa158015610e6e573d6000803e3d6000fd5b505050506040513d601f19601f82011682018060405250810190610e9291906112ce565b421015905060008260010154610ea787610852565b1090508180610eb35750805b610eee5760405162461bcd60e51b815260206004820152600c60248201526b6e6f7420656c696769626c6560a01b60448201526064016102b5565b8260010154851015610f315760405162461bcd60e51b815260206004820152600c60248201526b1c995c185e480f081919589d60a21b60448201526064016102b5565b6040516323b872dd60e01b81526001600160a01b037f000000000000000000000000000000000000000000000000000000000000000016906323b872dd90610f8190339030908a9060040161139f565b6020604051808303816000875af1158015610fa0573d6000803e3d6000fd5b505050506040513d601f19601f82011682018060405250810190610fc491906112e7565b610fe05760405162461bcd60e51b81526004016102b5906113c3565b60006001840155604051634c35bec560e11b8152600481018790527f00000000000000000000000000000000000000000000000000000000000000006001600160a01b03169063986b7d8a90602401600060405180830381600087803b15801561104957600080fd5b505af115801561105d573d6000803e3d6000fd5b505060405163430c208160e01b8152306004820152602481018990527f00000000000000000000000000000000000000000000000000000000000000006001600160a01b0316925063430c20819150604401602060405180830381865afa1580156110cc573d6000803e3d6000fd5b505050506040513d601f19601f820116820180604052508101906110f091906112e7565b61113c5760405162461bcd60e51b815260206004820152601860248201527f6e6f7420617070726f76656420746f207472616e73666572000000000000000060448201526064016102b5565b82546040516323b872dd60e01b81526001600160a01b037f00000000000000000000000000000000000000000000000000000000000000008116926323b872dd9261119292919091169088908b9060040161139f565b600060405180830381600087803b1580156111ac57600080fd5b505af11580156111c0573d6000803e3d6000fd5b50506040518781523392508891507ff4c6cbfcc96248be8ecbaf76de0fee34f71f2fadd9af537dd38c2657621930d69060200160405180910390a3505050505050565b6000806040838503121561121657600080fd5b50508035926020909101359150565b60006020828403121561123757600080fd5b5035919050565b6001600160a01b038116811461125357600080fd5b50565b60008060006060848603121561126b57600080fd5b833592506020840135915060408401356112848161123e565b809150509250925092565b6020808252600890820152670616d6f756e743d360c41b604082015260600190565b6000602082840312156112c357600080fd5b81516109198161123e565b6000602082840312156112e057600080fd5b5051919050565b6000602082840312156112f957600080fd5b8151801515811461091957600080fd5b634e487b7160e01b600052601160045260246000fd5b600081600019048311821515161561133957611339611309565b500290565b60008261135b57634e487b7160e01b600052601260045260246000fd5b500490565b60008083128015600160ff1b85018412161561137e5761137e611309565b6001600160ff1b038401831381161561139957611399611309565b50500390565b6001600160a01b039384168152919092166020820152604081019190915260600190565b6020808252601390820152721d1c985b9cd9995c919c9bdb4819985a5b1959606a1b604082015260600190565b60008282101561140257611402611309565b50039056fea2646970667358221220a0a2f9195f288266fa1cde01280bd915cae78bb013646dc6bb9a5aef2c261ce964736f6c634300080d0033","linkReferences":{}},"methodIdentifiers":{"borrow(uint256,uint256)":"0ecbcdab","collateral(uint256)":"3b1f18dd","dues()":"6a87d780","escrow()":"e2fdcc17","fund(uint256)":"ca1d209d","healthFactor(uint256)":"bc71054e","isCollateralized(uint256)":"e7e30882","liquidate(uint256,uint256,address)":"f354a339","lockedEnd(uint256)":"626944df","ltvBps()":"276b7377","maxBorrow(uint256)":"61b24c37","ownerOf(uint256)":"6352211e","repay(uint256,uint256)":"d8aed145"},"id":2}